:100000000C9478000C9499000C9499000C9499002D
:100010000C9499000C9499000C9499000C949900FC
:100020000C9499000C9499000C9499000C949900EC
:100030000C9499000C9499000C9499000C949900DC
:100040000C9499000C9499000C9499000C949900CC
:100050000C9499000C9471050C9499000C949900DF
:100060000C9499000C9499000C9499000C949900AC
:100070000C9499000C9499000C9499000C9499009C
:100080000C9499000C9499000C9499000C9499008C
:100090000C9499000C9499000C9499000C9499007C
:1000A0000C9499000C9499000C9499000C9499006C
:1000B0000C9499000C9499000C9499000C9499005C
:1000C0000C9499000C9499000C9499000C9499004C
:1000D0000C9499000C9499000C9499000C9499003C
:1000E0000C9499000C9478030C943D040C94E9034F
:1000F00011241FBECFEFD1E2DEBFCDBF00E00CBFA9
:1001000012E0A0E0B2E0ECE6FEE000E00BBF02C0CF
:1001100007900D92AE33B107D9F722E0AEE3B2E01B
:1001200001C01D92AB36B207E1F70E94D5050C94D1
:1001300034070C94000082E08093C0001092C50048
:1001400080E18093C400E1ECF0E0808188618083ED
:1001500008958091C000881F8827881F0895809186
:10016000C00087FF03C08091C60008958FEF0895F7
:100170009091C10095FDFCCF9091C00095FFF8CF04
:100180008093C60081E00895FC012081222371F054
:1001900031969091C10095FDFCCF9091C00095FFE4
:1001A000F8CF2093C60021912111F3CF08950F932A
:1001B0001F93CF93DF93CB0110925D02181619069F
:1001C000DCF4EDE5F2E0CEE3D2E0C095D0950AE0B4
:1001D00010E09E012E0F3F1FB8010E94DE05805DDA
:1001E0008293CB010097A9F7C901825C9D4FDF91F3
:1001F000CF911F910F9108958EE392E0DF91CF91FF
:100200001F910F910895EF92FF920F931F93CF9339
:10021000DF9310925D021816190664F5CDE5D2E061
:100220000EE312E0009510952AE0E22EF12CF80181
:10023000EC0FFD1FB7010E94DE0520E3280F2A9373
:10024000CB010097A1F7E25CFD4F31969091C10080
:1002500095FDFCCF9091C00095FFF8CF2093C6008C
:1002600021912111F3CFDF91CF911F910F91FF9039
:10027000EF90089520913E022223A9F3EEE3F2E0ED
:10028000E4CFEF92FF920F931F93CF93DF93CB01B5
:1002900010925D021816190664F5CDE5D2E00EE362
:1002A00012E0009510952AE0E22EF12CF801EC0FF7
:1002B000FD1FB7010E94DE0520E3280F2A93CB0122
:1002C0000097A1F7E25CFD4F31969091C10095FD3A
:1002D000FCCF9091C00095FFF8CF2093C6002191EC
:1002E0002111F3CFDF91CF911F910F91FF90EF90EC
:1002F000089520913E022223A9F3EEE3F2E0E4CF39
:10030000CF92DF92EF92FF920F931F93CF93DF93E1
:10031000CDB7DEB7E1970FB6F894DEBF0FBECDBF05
:1003200021E1E6E0F2E0DE01919601900D922A953E
:10033000E1F79E012F5F3F4F690120E2D6011D9238
:100340002A95E9F7FE01B0960EEF1FEF0C191D0973
:10035000A8014E0F5F1FBA0131979C012F703078B2
:1003600037FF06C021503109206F3F6F2F5F3F4F8D
:10037000A1E2EA2EF12CEC0EFD1E2E0D3F1DD9013F
:100380002C91208397FD0F96959587959595879548
:10039000959587959595879518161906CCF28091B5
:1003A000C10085FDFCCF8091C00085FFF8CF80E3C0
:1003B0008093C6008091C10085FDFCCF8091C00074
:1003C00085FFF8CF88E78093C6004B3151057CF05C
:1003D0004F5F5F4FF601E40FF51F9601255E3F4F1B
:1003E00080E38293E217F307E1F76AE170E0FE0130
:1003F000E60FF71F9281992391F06E5F7F4FD60130
:10040000A60FB71F8091C10085FDFCCF8091C00071
:1004100085FFF8CF9093C6009D919111F3CFE1969F
:100420000FB6F894DEBF0FBECDBFDF91CF911F9105
:100430000F91FF90EF90DF90CF900895CF92DF92D1
:10044000EF92FF920F931F93CF93DF93CDB7DEB759
:10045000E1970FB6F894DEBF0FBECDBF21E1E6E015
:10046000F2E0DE01919601900D922A95E1F79E014E
:100470002F5F3F4F690120E2D6011D922A95E9F7CF
:10048000DE0190960EEF1FEF0C191D0998012A0F3F
:100490003B1FA9011197CB018F70907897FF04C083
:1004A0000197806F9F6F0196E1E2F0E0EC0FFD1F76
:1004B0008E0F9F1FFC0180818C9377FF02C0615FCC
:1004C0007F4F759567957595679575956795759542
:1004D000679516161706D4F28091C10085FDFCCFF2
:1004E0008091C00085FFF8CF80E38093C6008091A3
:1004F000C10085FDFCCF8091C00085FFF8CF88E763
:100500008093C6002B3131057CF02F5F3F4FD60121
:10051000A20FB31F9601255E3F4F80E38E93A21773
:10052000B307E1F74AE150E0DE01A40FB51F1296D0
:100530009C91992391F04E5F5F4FF601E40FF51FF8
:100540008091C10085FDFCCF8091C00085FFF8CF70
:100550009093C60091919111F3CFE1960FB6F89464
:10056000DEBF0FBECDBFDF91CF911F910F91FF90E6
:10057000EF90DF90CF9008950F931F93CF93DF9369
:10058000C62F282F30E0C9012115310561F0EDE5B6
:10059000F2E00AE010E0B8010E94DE05805D82937F
:1005A000CB010097C1F7D0E0CE0110925D022097F9
:1005B00061F0EDE5F2E00AE010E0B8010E94DE052E
:1005C000805D8293CB010097C1F79091C10095FDAA
:1005D000FCCF8091C00085FFF8CF8BE18093C600EF
:1005E0009091C10095FDFCCF8091C00085FFF8CFB0
:1005F0008BE58093C600C9010E9403018091C10070
:1006000085FDFCCF8091C00085FFF8CF8BE3809300
:10061000C600CE010E9403018091C10085FDFCCF80
:100620008091C00085FFF8CF88E48093C600DF91F9
:10063000CF911F910F9108959091C10095FDFCCF2E
:100640009091C00095FFF8CF9BE19093C6009091E8
:10065000C10095FDFCCF9091C00095FFF8CF9BE5C0
:100660009093C6009091C10095FDFCCF9091C00081
:1006700095FFF8CF93E39093C6009091C10095FD4C
:10068000FCCF9091C00095FFF8CF8093C600809179
:10069000C10085FDFCCF8091C00085FFF8CF8DE6BD
:1006A0008093C6000895F0E0E4E2508160E8608342
:1006B000E5E2508160E860830895F0E0E4E2508173
:1006C00060E86083E5E2508160E060830895181679
:1006D00019066CF430E020E0EFE9FFE03197F1F724
:1006E00000C000002F5F3F4F82179307A9F70895BE
:1006F000FC01208131818091C0004FEF87FD409146
:10070000C600F0E0E4E2508160E86083E5E25081F9
:1007100060E860831216130664F490E080E0EFE96D
:10072000FFE03197F1F700C0000001962817390764
:10073000B1F7F0E0E4E2508160E86083E5E25081E7
:1007400060E060831216130664F490E080E0EFE945
:10075000FFE03197F1F700C0000001962817390734
:10076000B1F7413631F04A3709F0C5CF2C5E3F4F23
:10077000C2CF24513109BFCF8091C10085FDFCCF8C
:100780008091C00085FFF8CF8BE18093C6008091F7
:10079000C10085FDFCCF8091C00085FFF8CF8BE5BF
:1007A0008093C6008091C10085FDFCCF8091C00080
:1007B00085FFF8CF82E38093C6008091C10085FD5C
:1007C000FCCF8091C00085FFF8CF8AE48093C600FB
:1007D0000895C0915E02D0915F0204E610E080911E
:1007E0005E0290915F0284569109C817D907BCF741
:1007F000C0915E02D0915F0260E080E00E94BC0286
:100800000E94BC0383E30E941C03E8E1F2E094E54C
:100810008091C10085FDFCCF8091C00085FFF8CF9D
:100820009093C60091919111F3CF80915E029091C7
:100830005F02B8010E94DE05072E000C880B990BA1
:100840000E94410160E082E00E94BC02E0E2F2E02E
:100850009EE48091C10085FDFCCF8091C00085FFA2
:10086000F8CF9093C60091919111F3CF80916102DE
:10087000909162020E940301B2CF7894912F802F51
:10088000FD2FEC2F0994AF92BF92CF92DF92EF929F
:10089000FF920F931F93CF93DF937C01B62EA72E69
:1008A000D42EC52E8901C9010E940606E80166976B
:1008B000C80FD91F1882A982BA82CB82DC821D821E
:1008C0001E821F82188619861A861B861C861D8624
:1008D0001E861F86188A198A1A8A1B8A8DE394E05D
:1008E0009C8B8D8B8091630290916402FC01EF5789
:1008F000FF4F108211821282138231971082409131
:100900006102509162029A0122953295307F32271E
:10091000207F3227FC01E20FF31F4083F701019093
:100920000020E9F7AF012D5F3F4F4E195F09B70176
:10093000820F931F0E942B07E0916302F0916402E3
:1009400080916102909162029C0122953295307FE4
:100950003227207F3227E20FF31F17870687D283C3
:10096000C18301969093620280936102DF91CF91DF
:100970001F910F91FF90EF90DF90CF90BF90AF90BD
:1009800008958091600220916102309162022150AD
:1009900031098217130624F01092600280E0089556
:1009A0008F5F809360020895EEE6F0E080818260C0
:1009B000808384B5826084BD85B5856085BD8CE902
:1009C00087BD08952F923F924F925F926F927F92D0
:1009D0008F929F92AF92BF92CF92DF92EF92FF924F
:1009E0000F931F93CF93DF93F0E0EEE52081EDE5C9
:1009F0003081F72FE62F31932083F92FE82F519183
:100A00006081F0E0EEE56083EDE55083DF91CF910A
:100A10001F910F91FF90EF90DF90CF90BF90AF901C
:100A20009F908F907F906F905F904F903F902F900E
:100A30000895CF93DF9300D01F92CDB7DEB70E9409
:100A40009B00EEE6F0E080818260808384B5826066
:100A500084BD85B5856085BD8CE987BD789488EEB9
:100A600093E09C838B8381E090E09A83898380E18B
:100A700090E00E940606909366028093650280E9EA
:100A800090E00E94060690936402809363021092A5
:100A900062021092610228EC30E0AE014D5F5F4FC0
:100AA00068E773E083E392E00E94430428EC30E0BF
:100AB000AE014F5F5F4F69EE73E089E392E00E9401
:100AC0004304809163029091640265E672E00196AE
:100AD0000E94E2040F900F900F900F90DF91CF9142
:100AE00008951F920F920FB60F9211240BB60F921A
:100AF0000F931F932F933F934F935F936F937F9326
:100B00008F939F93AF93BF93CF93DF93EF93FF9315
:100B100000916002C02FD0E080916102909162024A
:100B20000197C817D907BCF11092600201E010E0EC
:100B300080915E0290915F02019690935F02809394
:100B40005E028091630290916402BE01629572958B
:100B5000707F7627607F76276F5F7F4F680F791FE2
:100B6000800F911F0E94E204FF91EF91DF91CF91DE
:100B7000BF91AF919F918F917F916F915F914F91B5
:100B80003F912F911F910F910F900BBE0F900FBEB1
:100B90000F901F9018950F5F0093600280E1089FEF
:100BA000800111240F5F1F4FC3CF10925F0210927C
:100BB0005E020E94190590E080E0089597FB072EE1
:100BC00016F4009407D077FD09D00E94F20507FCC7
:100BD00005D03EF4909581959F4F0895709561954D
:100BE0007F4F0895AA1BBB1B51E107C0AA1FBB1F63
:100BF000A617B70710F0A61BB70B881F991F5A95A9
:100C0000A9F780959095BC01CD0108950F931F938E
:100C1000CF93DF938230910510F482E090E0E09171
:100C20006902F0916A0230E020E0B0E0A0E0309785
:100C300099F42115310509F44AC0281B390B2430D9
:100C40003105D8F58A819B816115710589F1FB0118
:100C500093838283FE0111C04081518102811381FF
:100C600048175907E0F04817590799F4109761F0B1
:100C700012960C93129713961C933296CF01DF9124
:100C8000CF911F910F9108950093690210936A020A
:100C9000F4CF2115310551F04217530738F0A9015F
:100CA000DB019A01BD01DF01F801C1CFEF01F9CFEE
:100CB00090936A0280936902CDCFFE01E20FF31F89
:100CC000819391932250310939832883D7CF209182
:100CD000670230916802232B41F420910202309187
:100CE0000302309368022093670220910002309142
:100CF00001022115310541F42DB73EB740910402A0
:100D000050910502241B350BE0916702F0916802B7
:100D1000E217F307A0F42E1B3F0B2817390778F0D2
:100D2000AC014E5F5F4F2417350748F04E0F5F1F31
:100D30005093680240936702819391939FCFF0E0B4
:100D4000E0E09CCFCF93DF930097E9F0FC0132976E
:100D500013821282A0916902B0916A02ED0130E023
:100D600020E01097A1F420813181820F931F209100
:100D70006702309168022817390709F061C0F093C3
:100D80006802E0936702DF91CF910895EA01CE17E0
:100D9000DF07E8F54A815B819E0141155105B1F7F6
:100DA000E901FB83EA8349915991C40FD51FEC17E0
:100DB000FD0761F4808191810296840F951FE901FE
:100DC00099838883828193819B838A83F0E0E0E02A
:100DD00012968D919C9113970097B9F52D913C91A6
:100DE0001197CD010296820F931F209167023091D7
:100DF00068022817390739F6309751F510926A02C0
:100E000010926902B0936802A0936702BCCFD383AB
:100E1000C28340815181840F951FC817D90761F49F
:100E20004E5F5F4F88819981480F591F51834083DE
:100E30008A819B81938382832115310509F0B0CF8C
:100E4000F0936A02E09369029ECFFD01DC01C0CFFE
:100E500013821282D7CFFB01DC0102C001900D92F8
:0C0E600041505040D8F70895F894FFCF9F
:100E6C0000006B02200030313233343536373839DC
:100E7C004142434445460054696D65723A20004E28
:100E8C00756D626572206F6620546872656164735B
:0E0E9C003A2000626C696E6B0073746179001D
:00000001FF
