:100000000C947A000C949B000C949B000C949B0025
:100010000C949B000C949B000C949B000C949B00F4
:100020000C949B000C949B000C949B000C949B00E4
:100030000C949B000C949B000C949B000C949B00D4
:100040000C949B000C9424070C949B000C949B0034
:100050000C949B000C94EF070C949B000C949B0059
:100060000C949B000C949B000C949B000C949B00A4
:100070000C949B000C949B000C949B000C949B0094
:100080000C949B000C949B000C949B000C949B0084
:100090000C949B000C949B000C949B000C949B0074
:1000A0000C949B000C949B000C949B000C949B0064
:1000B0000C949B000C949B000C949B000C949B0054
:1000C0000C949B000C949B000C949B000C949B0044
:1000D0000C949B000C949B000C949B000C949B0034
:1000E0000C949B000C94EE050C9494030C94180D46
:1000F0000C94B70E11241FBECFEFD1E2DEBFCDBFEF
:1001000000E00CBF13E0A0E0B2E0EAE7F0E200E0BC
:100110000BBF02C007900D92A23CB107D9F723E0B4
:10012000A2ECB3E001C01D92AE3EB207E1F70E941F
:10013000B70E0C943B100C94000082E08093C0003A
:100140001092C50080E18093C400E1ECF0E0808172
:100150008861808308958091C000881F8827881F48
:1001600008958091C00087FF03C08091C600089564
:100170008FEF08959091C10095FDFCCF9091C00044
:1001800095FFF8CF8093C60081E00895FC0120819F
:10019000222371F031969091C10095FDFCCF909192
:1001A000C00095FFF8CF2093C60021912111F3CF15
:1001B00008950F931F93CF93DF93CB011092E10328
:1001C00018161906DCF4E1EEF3E0C2ECD3E0C095BA
:1001D000D0950AE010E09E012E0F3F1FB8010E944B
:1001E000E50E805D8293CB010097A9F7C9018E537C
:1001F0009C4FDF91CF911F910F91089582EC93E076
:10020000DF91CF911F910F910895EF92FF920F937D
:100210001F93CF93DF930097B1F11092E10318166B
:1002200019060CF043C0C1EED3E002EC13E00095D8
:1002300010952AE0E22EF12CF801EC0FFD1FB7011A
:100240000E94E50E20E3280F2A93CB010097A1F727
:10025000EE53FC4F31969091C10095FDFCCF9091EB
:10026000C00095FFF8CF2093C60021912111F3CF54
:10027000DF91CF911F910F91FF90EF9008958091A2
:10028000C00085FD09C08091C10085FFF8CF809135
:10029000C10085FDF8CFF3CF80E38093C600DF91E6
:1002A000CF911F910F91FF90EF9008952091C2037D
:1002B0002223A9F3E2ECF3E0CDCFEF92FF920F936C
:1002C0001F93CF93DF93CB011092E1031816190609
:1002D00064F5C1EED3E002EC13E0009510952AE03E
:1002E000E22EF12CF801EC0FFD1FB7010E94E50E84
:1002F00020E3280F2A93CB010097A1F7EE53FC4F80
:1003000031969091C10095FDFCCF9091C00095FF72
:10031000F8CF2093C60021912111F3CFDF91CF9127
:100320001F910F91FF90EF9008952091C203222317
:10033000A9F3E2ECF3E0E4CFCF92DF92EF92FF92E9
:100340000F931F93CF93DF93CDB7DEB7E1970FB62F
:10035000F894DEBF0FBECDBF21E1E2E1F2E0DE01A5
:10036000919601900D922A95E1F79E012F5F3F4FE4
:10037000690120E2D6011D922A95E9F7FE01B096A7
:100380000EEF1FEF0C191D09A8014E0F5F1FBA01D8
:1003900031979C012F70307837FF06C0215031090A
:1003A000206F3F6F2F5F3F4FA1E2EA2EF12CEC0E42
:1003B000FD1E2E0D3F1DD9012C91208397FD0F9618
:1003C0009595879595958795959587959595879515
:1003D00018161906CCF28091C10085FDFCCF8091E2
:1003E000C00085FFF8CF80E38093C6008091C100F4
:1003F00085FDFCCF8091C00085FFF8CF88E7809312
:10040000C6004B3151057CF04F5F5F4FF601E40FA2
:10041000F51F9601255E3F4F80E38293E217F307B5
:10042000E1F76AE170E0FE01E60FF71F9281992380
:1004300091F06E5F7F4FD601A60FB71F8091C1006C
:1004400085FDFCCF8091C00085FFF8CF9093C6005A
:100450009D919111F3CFE1960FB6F894DEBF0FBED8
:10046000CDBFDF91CF911F910F91FF90EF90DF9063
:10047000CF900895CF92DF92EF92FF920F931F9348
:10048000CF93DF93CDB7DEB7E1970FB6F894DEBF19
:100490000FBECDBF21E1E2E1F2E0DE0191960190D5
:1004A0000D922A95E1F79E012F5F3F4F690120E2EF
:1004B000D6011D922A95E9F7DE0190960EEF1FEF07
:1004C0000C191D0998012A0F3B1FA9011197CB0197
:1004D0008F70907897FF04C00197806F9F6F01968F
:1004E000E1E2F0E0EC0FFD1F8E0F9F1FFC01808109
:1004F0008C9377FF02C0615F7F4F75956795759507
:100500006795759567957595679516161706D4F2D4
:100510008091C10085FDFCCF8091C00085FFF8CFA0
:1005200080E38093C6008091C10085FDFCCF80915F
:10053000C00085FFF8CF88E78093C6002B313105D6
:100540007CF02F5F3F4FD601A20FB31F9601255EAF
:100550003F4F80E38E93A217B307E1F74AE150E0E3
:10056000DE01A40FB51F12969C91992391F04E5F66
:100570005F4FF601E40FF51F8091C10085FDFCCFB0
:100580008091C00085FFF8CF9093C60091919111A2
:10059000F3CFE1960FB6F894DEBF0FBECDBFDF916B
:1005A000CF911F910F91FF90EF90DF90CF90089522
:1005B0000F931F93CF93DF93C62F282F30E0C901ED
:1005C0002115310561F0E1EEF3E00AE010E0B80139
:1005D0000E94E50E805D8293CB010097C1F7D0E0C9
:1005E000CE011092E103209761F0E1EEF3E00AE022
:1005F00010E0B8010E94E50E805D8293CB01009768
:10060000C1F79091C10095FDFCCF8091C00085FF9E
:10061000F8CF8BE18093C6009091C10095FDFCCF8F
:100620008091C00085FFF8CF8BE58093C600C9019B
:100630000E9405018091C10085FDFCCF8091C00022
:1006400085FFF8CF8BE38093C600CE010E940501A1
:100650008091C10085FDFCCF8091C00085FFF8CF5F
:1006600088E48093C600DF91CF911F910F91089588
:100670009091C10095FDFCCF9091C00095FFF8CFFF
:100680009BE19093C6009091C10095FDFCCF9091A5
:10069000C00095FFF8CF9BE59093C6009091C100F4
:1006A00095FDFCCF9091C00095FFF8CF93E3909318
:1006B000C6009091C10095FDFCCF9091C00095FFC0
:1006C000F8CF8093C6008091C10085FDFCCF80915A
:1006D000C00085FFF8CF8DE68093C6000895F0E056
:1006E000E4E2508160E86083E5E2508160E8608385
:1006F0000895F0E0E4E2508160E86083E5E2508133
:1007000060E060830895181619066CF430E020E06C
:10071000EFE9FFE03197F1F700C000002F5F3F4F96
:1007200082179307A9F70895FC01208131818091F8
:10073000C0004FEF87FD4091C600F0E0E4E2508139
:1007400060E86083E5E2508160E86083121613067A
:1007500064F490E080E0EFE9FFE03197F1F700C04A
:100760000000019628173907B1F7F0E0E4E2508164
:1007700060E86083E5E2508160E060831216130652
:1007800064F490E080E0EFE9FFE03197F1F700C01A
:100790000000019628173907B1F7413631F04A3782
:1007A00009F0C5CF2C5E3F4FC2CF24513109BFCFD6
:1007B0008091C10085FDFCCF8091C00085FFF8CFFE
:1007C0008BE18093C6008091C10085FDFCCF8091B4
:1007D000C00085FFF8CF8BE58093C6008091C100F3
:1007E00085FDFCCF8091C00085FFF8CF82E3809328
:1007F000C6008091C10085FDFCCF8091C00085FFBF
:10080000F8CF8AE48093C6000895FFCFE4E68E2EE9
:10081000912CFFE1CF2E8091E2039091E3030A97A0
:100820000CF4D9C160E080E00E94D80283E30E940A
:100830003803E4E2F2E094E58091C10085FDFCCF4D
:100840008091C00085FFF8CF9093C60091919111DF
:10085000F3CF8091E2039091E303B4010E94E50E8F
:10086000072E000C880B990B0E945D01ECE2F2E070
:1008700090E28091C10085FDFCCF8091C00085FF92
:10088000F8CF9093C60091919111F3CF60E082E090
:100890000E94D802EAE4F2E09EE48091C10085FD66
:1008A000FCCF8091C00085FFF8CF9093C600919156
:1008B0009111F3CFE091E603F091E703E750FF4F8A
:1008C000808190E00E940501E091E603F091E7034A
:1008D000E750FF4F8081882309F49DCF0AE010E0A4
:1008E000D0E0C0E074E0D72E82E30E943803EE240B
:1008F000E394ED0C60E08D2D0E94D802EEE5F2E06D
:1009000094E58091C10085FDFCCF8091C00085FFFA
:10091000F8CF9093C60091919111F3CFE091E60347
:10092000F091E703CC9EC001CD9E900D1124E80FFD
:10093000F91F808190E00E94050162E0F62EFD0C17
:1009400060E08E2D0E94D802EAE6F2E094E5809104
:10095000C10085FDFCCF8091C00085FFF8CF90934A
:10096000C60091919111F3CFE091E603F091E70376
:10097000E00FF11F9081992371F031968091C100B1
:1009800085FDFCCF8091C00085FFF8CF9093C60015
:1009900091919111F3CF53E0E52EED0C60E08F2D96
:1009A0000E94D802E8E7F2E094E58091C10085FD5D
:1009B000FCCF8091C00085FFF8CF9093C600919145
:1009C0009111F3CFE091E603F091E703CC9EC001D3
:1009D000CD9E900D1124E80FF91F8789908D0E94FC
:1009E0009C0144E0A42EAD0C60E08E2D0E94D80244
:1009F000E4E8F2E093E58091C10085FDFCCF8091B1
:100A0000C00085FFF8CF9093C60091919111F3CF6C
:100A1000E091E603F091E703CC9EC001CD9E900DDE
:100A20001124E80FF91F838D948D20853185821B59
:100A3000930B0E94050132E9E32E32E0F32EF70119
:100A400090E28091C10085FDFCCF8091C00085FFC0
:100A5000F8CF9093C60091919111F3CF25E0B22E7B
:100A6000BD0C60E08A2D0E94D802ECE9F2E093E52B
:100A70008091C10085FDFCCF8091C00085FFF8CF3B
:100A80009093C60091919111F3CFE091E603F0911C
:100A9000E703CC9EC001CD9E900D1124E80FF91FF5
:100AA000858996890E94050190E28091C10085FDAB
:100AB000FCCF8091C00085FFF8CF9093C600F7016E
:100AC00091917F019111F1CF96E0E92EED0C60E05C
:100AD0008B2D0E94D802E9EAF2E093E48091C100F4
:100AE00085FDFCCF8091C00085FFF8CF9093C600B4
:100AF00091919111F3CFE091E603F091E703CC9E41
:100B0000C001CD9E900D1124E80FF91F80859185BD
:100B10000E949C0187E0F82EFD0C60E08E2D0E9463
:100B2000D802E0ECF2E093E58091C10085FDFCCFB6
:100B30008091C00085FFF8CF9093C60091919111EC
:100B4000F3CFE091E603F091E703CC9EC001CD9E88
:100B5000900D1124E80FF91F818D928D0E949C0148
:100B600060E08F2D0E94D802EDECF2E093E58091D9
:100B7000C10085FDFCCF8091C00085FFF8CF909328
:100B8000C60091919111F3CFE091E603F091E70354
:100B9000CC9EC001CD9E900D1124E80FF91F838DCE
:100BA000948D0E949C01F9E0DF0E2196015E1F4F9B
:100BB000E091E603F091E703E750FF4F80818C1747
:100BC0001D0611F00CF090CE8091E2039091E303AA
:100BD0000A970CF027CE0E94D80324CE7894912F48
:100BE000802FFD2FEC2F09949F92AF92BF92CF924E
:100BF000DF92EF92FF920F931F93CF93DF937C01CD
:100C0000B62EC72EA42E952E8901C9010E940D0F64
:100C1000EC012091E6033091E703F901E750FF4F23
:100C200090818FE1D82EF901D99EE00DF11D11249C
:100C3000D28FC18FAE01400F511F548F438F11824D
:100C4000128213821482158241E050E0578346835A
:100C5000A80146515109C40FD51FD68FC58F1882E0
:100C6000C982BA829B82AC821D821E821F82188634
:100C700019861A861B861C861D861E861F86188A64
:100C8000198A1A8A1B8A4EEE55E05C8B4D8B908335
:100C9000B78AC08EF70101900020E9F7AF01B901D2
:100CA0009D9D600D711D1124CB014E195F09B70187
:100CB0000A960E943210E091E603F091E703DF010B
:100CC000A750BF4F8C91D89EE00DF11D1124168BBB
:100CD000058BD187C0878F5F8C93DF91CF911F9158
:100CE0000F91FF90EF90DF90CF90BF90AF909F90CB
:100CF00008950E949D0089E091E00E940D0F90935D
:100D0000E7038093E603FC01E850FF4F21E02083D6
:100D10003196208386509F4FFC01108211821282EF
:100D200013828091E4039091E5030C946D08FFCF4A
:100D30000F931F93CF93DF93A091E603B091E70346
:100D4000BD0168507F4FFB018081873009F480E04E
:100D5000FD01E750FF4F40814150550B9FE1949FAB
:100D6000E001959FD00D1124CA0FDB1F26968D013F
:100D7000045C1E4F282F30E02417350794F4929F0F
:100D8000F001939FF00D1124EA0FFB1F268137819C
:100D90002130310509F18F5F282F30E02417350706
:100DA00074F342175307B9F728813981213031058F
:100DB00091F341155105C9F030E020E080E016962E
:100DC000ED91FC911797319761F7FB018083DF91DB
:100DD000CF911F910F9108958A3089F0FB01808394
:100DE000DF91CF911F910F9108951696ED91FC918F
:100DF0001797E130F105E9F780E08F5FCDCF4B30F9
:100E0000510544F0F8012081318121303105B9F3D9
:100E10008F5FC2CF2AE030E0C4CF2091E60330914B
:100E2000E703F901E850FF4F808127503F4FD90178
:100E30002C912150330B821713061CF0108280E096
:100E400008958F5F808308951F920F920FB60F92BF
:100E500011240F900FBE0F901F901895EEE6F0E052
:100E600080818260808384B5826084BD85B5856021
:100E700085BD8CE987BD89E09DE3909389008093CF
:100E80008800EFE6F0E0808182608083E1E8F0E0B6
:100E900080818D60808308952F923F924F925F9260
:100EA0006F927F928F929F92AF92BF92CF92DF927A
:100EB000EF92FF920F931F93CF93DF93F0E0EEE555
:100EC0002081EDE53081F72FE62F31932083F92F34
:100ED000E82F51916081F0E0EEE56083EDE550830D
:100EE000DF91CF911F910F91FF90EF90DF90CF9006
:100EF000BF90AF909F908F907F906F905F904F903A
:100F00003F902F9008958091E6039091E703FC01B4
:100F1000E850FF4F208187509F4FDC018C9181501A
:100F2000990B28171906ACF0108288E090E07894AD
:100F30004091E6035091E703BA013FE1239F600D22
:100F4000711D1124685F7F4F840F951F0E944C070D
:100F5000089581E0820F8083BFE18B9FC00111243F
:100F60000896E5CFCF93DF9300D01F921F92CDB7A5
:100F7000DEB785E0E8EDF2E0DE01119601900D921A
:100F80008A95E1F70E942E0778948091E60390916C
:100F9000E703FC01128E118E148E138E168E158EA1
:100FA000108227EB3EE0308F278B25E0FE01319643
:100FB000DC011A9601900D922A95E1F7FC01168A40
:100FC000158ABC01685F7F4F87960E944C070F907F
:100FD0000F900F900F900F90DF91CF9108951F9277
:100FE0000F920FB60F9211240BB60F92FF920F9330
:100FF0001F932F933F934F935F936F937F938F93A1
:101000009F93AF93BF93CF93DF93EF93FF93C091E1
:10101000E603D091E703FE01E850FF4FF080DE01C8
:10102000A750BF4F8C918150990BF81619068CF17F
:10103000108208E010E08091E2039091E3030196B2
:101040009093E3038093E203BE018FE1F89E600D6D
:10105000711D1124685F7F4FCE01800F911F0E9488
:101060004C07FF91EF91DF91CF91BF91AF919F918D
:101070008F917F916F915F914F913F912F911F9130
:101080000F91FF900F900BBE0F900FBE0F901F900F
:10109000189501E00F0D00838FE1089F8001112456
:1010A000085F1F4FC8CF8130910599F070F08230F2
:1010B000910519F0039729F0089588E093E00C94C6
:1010C000C6008AEE92E00C94C60089EF92E00C9480
:1010D000C6008DED92E00C94C6000895FC01F894D2
:1010E00080819181019721F4118210827894089572
:1010F0008091E6039091E703DC01A850BF4F2C914B
:10110000422F50E03FE1239F800D911D112423E0E9
:1011100030E0DC0117963C932E9316972289338991
:101120002F5F3F4F338B228B220F331FE20FF31FB2
:10113000518340830E94830778940895623071053B
:101140006CF0FC013296660F771F860F971F228185
:10115000338121933193E817F907C9F70895DC012A
:10116000F89421E030E011963C932E9352968D91A5
:101170009C915397AC014150510953965C934E9307
:10118000529718161906E4F4E091E603F091E7038C
:1011900012964D915C9113976FE1649FC001659F1A
:1011A000900D1124E80FF91F37832683FD01329635
:1011B00050968281938181939193EA17FB07C9F737
:1011C0007894089508950895CF93DF93D0E0C0E018
:1011D00087E30E943803CE01CB30D1050CF4B9C0AF
:1011E0009C012B5031092A30310508F45BC09C0169
:1011F000255131092A30310508F4D2C09C012F5104
:1012000031092A30310508F432C189970A9708F468
:10121000D5C1E39709F060C260E08AE10E94D8027C
:1012200080E492E00E94C60060E08BE10E94D80258
:1012300080E492E00E94C60060E08CE10E94D80247
:1012400080E492E00E94C60060E08DE10E94D80236
:1012500080E492E00E94C60060E08EE10E94D80225
:1012600080E492E00E94C60060E08FE10E94D80214
:1012700080E492E00E94C60060E080E20E94D80212
:1012800080E492E00E94C60087E30E94380384E372
:1012900090E0C4E3D0E09C012B5031092A303105A5
:1012A00008F0A5CF60E08AE10E94D80289E393E0CC
:1012B0000E94C60060E08BE10E94D80288E193E0C2
:1012C0000E94C60060E08CE10E94D80280E293E0B8
:1012D0000E94C60060E08DE10E94D80288E293E09F
:1012E0000E94C60060E08EE10E94D80285E393E090
:1012F0000E94C60086E30E94380385E593E00E94C1
:10130000C60087E30E94380385E393E00E94C6008D
:1013100060E08FE10E94D80288E293E00E94C6005C
:1013200060E080E20E94D80280E293E00E94C60062
:1013300060E081E20E94D80288E193E00E94C6004A
:10134000219687E30E943803CE01CB30D1050CF003
:1013500047CF60E08AE10E94D80289E392E00E94D0
:10136000C60060E08BE10E94D80288E193E00E9411
:10137000C60060E08CE10E94D80280E293E00E9407
:10138000C60060E08DE10E94D80288E293E00E94EE
:10139000C60060E08EE10E94D80281E393E0B6CF00
:1013A00060E08AE10E94D80289E392E00E94C600D0
:1013B00060E08BE10E94D80288E193E00E94C600C1
:1013C00060E08CE10E94D80280E293E00E94C600B7
:1013D00060E08DE10E94D80283E493E00E94C600A1
:1013E00086E30E94380385E593E00E94C60087E308
:1013F0000E94380383E293E00E94C60060E08EE121
:101400000E94D80284E493E00E94C60086E30E9412
:10141000380385E593E00E94C60087E30E94380305
:1014200089E493E00E94C60086E30E94380385E5C4
:1014300093E00E94C60087E30E94380384E493E0AF
:101440000E94C60060E08FE10E94D80283E493E02E
:101450000E94C60086E30E94380385E593E00E945F
:10146000C60087E30E94380383E293E057CF60E031
:101470008AE10E94D80289E393E00E94C60060E0FE
:101480008BE10E94D80288E193E00E94C60060E0F0
:101490008CE10E94D80287E493E00E94C60086E3B4
:1014A0000E94380385E593E00E94C60087E30E940E
:1014B000380384E293E00E94C60060E08DE10E9460
:1014C000D80288E493E00E94C60086E30E943803B5
:1014D00085E593E00E94C60087E30E94380389E413
:1014E00093E00E94C60086E30E94380385E593E0FE
:1014F0000E94C60087E30E94380384E293E00E94C2
:10150000C60060E08EE10E94D80289E493E00E9468
:10151000C60086E30E94380385E593E00E94C6007A
:1015200087E30E94380385E393E00E94C60086E3C8
:101530000E94380385E593E00E94C60087E30E947D
:10154000380389E493E00E94C60060E08FE10E94C6
:10155000D80288E493E00E94C60086E30E94380324
:1015600085E593E00E94C60087E30E94380389E482
:1015700093E00E94C60086E30E94380385E593E06D
:101580000E94C60087E30E94380384E293E00E9431
:10159000C60060E080E20E94D80287E493E00E94E7
:1015A000C60086E30E94380385E593E00E94C600EA
:1015B00087E30E94380384E293E0B8CE60E08AE1DA
:1015C0000E94D80288E392E00E94C60060E08BE1AE
:1015D0000E94D80286E30E9438038BE493E00E94C5
:1015E000C60060E08CE10E94D80286E30E943803C6
:1015F00083E593E00E94C60087E30E94380389E4F4
:1016000093E00E94C60086E30E94380386E993E0D7
:101610000E94C60060E08DE10E94D80284E593E05C
:101620000E94C60087E30E94380385E393E00E948E
:10163000C60086E30E94380386E993E00E94C60054
:1016400060E08EE10E94D80285E593E00E94C6002A
:1016500087E30E94380383E393E00E94C60086E399
:101660000E94380385E593E00E94C60060E08FE1A8
:101670000E94D80284E593E00E94C60087E30E949E
:10168000380385E393E00E94C60086E30E94380396
:1016900086E993E00E94C60060E080E20E94D802E2
:1016A00083E593E00E94C60087E30E94380389E443
:1016B00093E00E94C60086E30E94380386E993E027
:1016C0000E94C60060E081E20E94D8028BE493E0B1
:1016D0000E94C60021967CCDDF91CF910895C1E094
:1016E000D0E01FE18091E4039091E5030E946E0831
:1016F0000E94E408A091E403B091E503F8941196E8
:10170000DC93CE9352968D919C9153979C012150DE
:10171000310953963C932E93529718161906DCF410
:10172000E091E603F091E70312962D913C91139717
:10173000129FC001139F900D1124E80FF91FD7834A
:10174000C683FD0132965096828193818193919355
:10175000EA17FB07C9F77894C5CFCF93DF93D0E0A2
:10176000C0E0CE01CB30D1050CF4A5C09C012B50BC
:1017700031092A30310508F460C09C012551310936
:101780002A30310508F4B6C09C012F5131092A30A6
:10179000310508F4D6C089970A9708F401C1E39788
:1017A00009F038C160E082E00E94D80280E492E053
:1017B0000E94C60060E083E00E94D80280E492E0CC
:1017C0000E94C60060E084E00E94D80280E492E0BB
:1017D0000E94C60060E085E00E94D80280E492E0AA
:1017E0000E94C60060E086E00E94D80280E492E099
:1017F0000E94C60060E087E00E94D80280E492E088
:101800000E94C60060E088E00E94D80280E492E076
:101810000E94C60060E089E00E94D80280E492E065
:101820000E94C60084E390E0C4E3D0E09C012B500A
:1018300031092A30310508F0A0CF60E082E00E9433
:10184000D80288E193E00E94C60060E083E00E9435
:10185000D80280E293E00E94C60060E084E00E942B
:10186000D80288E293E00E94C60060E085E00E9412
:10187000D80287E593E00E94C60060E086E00E94FF
:10188000D80288E293E00E94C60060E087E00E94F0
:10189000D80280E293E00E94C60060E088E00E94E7
:1018A000D80288E193E00E94C6002196CE01CB3099
:1018B000D1050CF05BCF60E082E00E94D80288E1A5
:1018C00093E00E94C60060E083E00E94D80280E2BC
:1018D00093E00E94C60060E084E00E94D80288E2A3
:1018E00093E00E94C60060E085E00E94D80281E398
:1018F00093E0C1CF60E082E00E94D80288E193E0EB
:101900000E94C60060E083E00E94D80280E293E07B
:101910000E94C60060E084E00E94D8028FE593E058
:101920000E94C60060E085E00E94D80288E693E04D
:101930000E94C60060E086E00E94D8028FE593E036
:10194000A2CF60E082E00E94D80288E193E00E948A
:10195000C60060E083E00E94D80280E793E00E9426
:10196000C60060E084E00E94D80288E793E00E940D
:10197000C60060E085E00E94D80281E893E00E9402
:10198000C60060E086E00E94D80288E793E00E94EB
:10199000C60060E087E00E94D80280E793E07BCF3A
:1019A00060E082E00E94D8028BE493E00E94C600CF
:1019B00060E083E00E94D80289E893E00E94C600BC
:1019C00060E084E00E94D80281E993E00E94C600B2
:1019D00060E085E00E94D8028AE993E00E94C60098
:1019E00060E086E00E94D80281E993E00E94C60090
:1019F00060E087E00E94D80289E893E00E94C60078
:101A000060E088E00E94D8028BE493E00E94C60068
:101A10002196A7CEDF91CF9108950E94AD0B0E9431
:101A2000AD0B0E94AD0B0E94AD0B0C94AD0B089555
:101A30008091E4039091E5030E946E088091E20397
:101A40009091E30302970CF48FC160E080E00E9464
:101A5000D80283E30E94380383E292E00E94C6002A
:101A60008091E2039091E30364E670E00E94E50E4A
:101A7000072E000C880B990B0E945D018BE292E00F
:101A80000E94C60060E082E00E94D80289E492E0F1
:101A90000E94C600E091E603F091E703E750FF4F94
:101AA000808190E00E940501E091E603F091E70358
:101AB000E750FF4F8081882309F41FC13AE0C32E0D
:101AC000D12CB12CF12CE12CFEC0C70163E070E0F9
:101AD0000E94E50E9EE1899FC02D1124F8E1AF2EF2
:101AE000A7E19A2EB6E18B2ED5E17D2E14E1612E71
:101AF00003E1502E82E1482E91E1392E20E1222E81
:101B0000DFE082E30E9438036C2F8D2F0E94D80201
:101B10008DE592E00E94C600E091E603F091E703B4
:101B2000DFE1DE9D8001DF9D100D1124E00FF11F2C
:101B3000808190E00E9405016C2F822D0E94D802C6
:101B400089E692E00E94C6008091E6039091E70347
:101B50008C0D9D1D0E94C6006C2F832D0E94D80203
:101B600087E792E00E94C600E091E603F091E70368
:101B7000E00FF11F8789908D0E949C016C2F842DAE
:101B80000E94D80283E892E00E94C600E091E6033A
:101B9000F091E703E00FF11F838D948D208531854F
:101BA000821B930B0E94050181E992E00E94C6000E
:101BB0006C2F852D0E94D8028BE992E00E94C6000E
:101BC000E091E603F091E703E00FF11F8589968924
:101BD0000E94050181E992E00E94C6006C2F862DCB
:101BE0000E94D80288EA92E00E94C600E091E603D3
:101BF000F091E703E00FF11F808591850E949C0121
:101C00006C2F872D0E94D8028FEB92E00E94C600B5
:101C1000E091E603F091E703E00FF11F818D928DD3
:101C20000E949C016C2F882D0E94D8028CEC92E0BF
:101C30000E94C600E091E603F091E703E00FF11F78
:101C4000838D948D0E949C016C2F892D0E94D80257
:101C500082EA93E00E94C6008091E6039091E70338
:101C6000FC01E850FF4F2081D29F800D911D11246F
:101C7000FC01828193810E9405016C2F8A2D0E94B4
:101C8000D80281EB93E00E94C6008091E603909118
:101C9000E703080F191FF801868197810E945308F6
:101CA000FFEFEF1AFF0A81E2B80E9FE1C90ED11CC7
:101CB000E091E603F091E703E750FF4F80818E1536
:101CC0001F04D9F0D4F083E0E816F1040CF0FDCE47
:101CD000CB2D8DE0A82E9CE0992E2BE0822E3AE0B1
:101CE000732E49E0642E58E0552E67E0462E76E0CC
:101CF000372EE5E02E2ED4E004CFA091E403B0917E
:101D0000E503F89421E030E011963C932E9352962F
:101D10008D919C915397AC014150510953965C931E
:101D20004E9352971816190614F0789481CEE091CC
:101D3000E603F091E70312964D915C9113976FE1E2
:101D4000649FC001659F900D1124E80FF91F378330
:101D50002683FD01329650968281938181939193DF
:101D6000EA17FB07C9F7E1CF0E94D8036ECECF93E5
:101D7000DF9300D01F92CDB7DEB71092E30310922D
:101D8000E20384E190E09C838B8381E090E09A837E
:101D900089830E94790628EC30E0AE014D5F5F4FE9
:101DA00064E973E086E092E00E94F40528EC30E0FC
:101DB000AE014F5F5F4F68E17DE08CE092E00E94F2
:101DC000F4050E94B2077894FFCF97FB072E16F414
:101DD000009407D077FD09D00E94F90E07FC05D0CA
:101DE0003EF4909581959F4F0895709561957F4F32
:101DF0000895AA1BBB1B51E107C0AA1FBB1FA61752
:101E0000B70710F0A61BB70B881F991F5A95A9F7A3
:101E100080959095BC01CD0108950F931F93CF93AA
:101E2000DF938230910510F482E090E0E091EC03C2
:101E3000F091ED0330E020E0B0E0A0E0309799F4BD
:101E40002115310509F44AC0281B390B243031050E
:101E5000D8F58A819B816115710589F1FB01938316
:101E60008283FE0111C04081518102811381481794
:101E70005907E0F04817590799F4109761F0129646
:101E80000C93129713961C933296CF01DF91CF914A
:101E90001F910F9108950093EC031093ED03F4CF7D
:101EA0002115310551F04217530738F0A901DB0124
:101EB0009A01BD01DF01F801C1CFEF01F9CF909385
:101EC000ED038093EC03CDCFFE01E20FF31F81936E
:101ED00091932250310939832883D7CF2091EA0387
:101EE0003091EB03232B41F4209102023091030245
:101EF0003093EB032093EA0320910002309101021A
:101F00002115310541F42DB73EB74091040250919F
:101F10000502241B350BE091EA03F091EB03E21775
:101F2000F307A0F42E1B3F0B2817390778F0AC01FC
:101F30004E5F5F4F2417350748F04E0F5F1F5093D9
:101F4000EB034093EA03819391939FCFF0E0E0E0AD
:101F50009CCFCF93DF930097E9F0FC013297138277
:101F60001282A091EC03B091ED03ED0130E020E08E
:101F70001097A1F420813181820F931F2091EA03F1
:101F80003091EB032817390709F061C0F093EB0398
:101F9000E093EA03DF91CF910895EA01CE17DF07BE
:101FA000E8F54A815B819E0141155105B1F7E901D0
:101FB000FB83EA8349915991C40FD51FEC17FD07A4
:101FC00061F4808191810296840F951FE9019983C4
:101FD0008883828193819B838A83F0E0E0E012967C
:101FE0008D919C9113970097B9F52D913C91119784
:101FF000CD010296820F931F2091EA033091EB03EB
:102000002817390739F6309751F51092ED031092E1
:10201000EC03B093EB03A093EA03BCCFD383C2835A
:1020200040815181840F951FC817D90761F44E5F15
:102030005F4F88819981480F591F518340838A815E
:102040009B81938382832115310509F0B0CFF093F2
:10205000ED03E093EC039ECFFD01DC01C0CF1382C2
:102060001282D7CFFB01DC0102C001900D924150DA
:0A2070005040D8F70895F894FFCF10
:10207A000000EE032000626C696E6B007374617479
:10208A0073003031323334353637383941424344BC
:10209A0045460054696D65723A20002020202020B0
:1020AA002020202020202020202020202020202026
:1020BA002020202020202020004E756D626572208D
:1020CA006F6620546872656164733A2000546872BE
:1020DA006561642049643A2000546872656164202D
:1020EA006E616D653A2000546872656164205043E0
:1020FA003A2000537461636B2055736167653A2017
:10210A000020627974657320202000537461636B28
:10211A002053697A653A200043757272656E74209D
:10212A00746F70206F6620737461636B3A2000537A
:10213A007461636B20626173653A20005374616352
:10214A006B20656E643A20006D61696E00544852D6
:10215A004541445F5245414459005448524541441F
:10216A005F57414954494E47005448524541445FDC
:10217A0052554E4E494E47005448524541445F53CA
:10218A004C454550494E470020202023202020005E
:10219A00202023232320200020232323232320203D
:1021AA00002323232323232300434F4E53554D4912
:1021BA004E47002023230020202300202020302007
:1021CA002020002020300023232330232323002033
:1021DA0023233023232020002323302330232300EA
:1021EA0020202330232020002023302330232020C6
:1021FA0000233023232330230020203023302020C3
:10220A0000203023232330202000302323232323BC
:10221A00300053636865642E20436F756E743A20EC
:10222A0000546872656164205374617475733A204E
:02223A000000A2
:00000001FF
