:100000000C9478000C9499000C9499000C9499002D
:100010000C9499000C9499000C9499000C949900FC
:100020000C9499000C9499000C9499000C949900EC
:100030000C9499000C9499000C9499000C949900DC
:100040000C9499000C9499000C9499000C949900CC
:100050000C9499000C94F4050C9499000C9499005C
:100060000C9499000C9499000C9499000C949900AC
:100070000C9499000C9499000C9499000C9499009C
:100080000C9499000C9499000C9499000C9499008C
:100090000C9499000C9499000C9499000C9499007C
:1000A0000C9499000C9499000C9499000C9499006C
:1000B0000C9499000C9499000C9499000C9499005C
:1000C0000C9499000C9499000C9499000C9499004C
:1000D0000C9499000C9499000C9499000C9499003C
:1000E0000C9499000C9492030C94C0040C94080492
:1000F00011241FBECFEFD1E2DEBFCDBF00E00CBFA9
:1001000012E0A0E0B2E0E2E7FFE000E00BBF02C0D7
:1001100007900D92A436B107D9F722E0A4E6B2E029
:1001200001C01D92A139B207E1F70E9458060C9454
:10013000B7070C94000082E08093C0001092C500C5
:1001400080E18093C400E1ECF0E0808188618083ED
:1001500008958091C000881F8827881F0895809186
:10016000C00087FF03C08091C60008958FEF0895F7
:100170009091C10095FDFCCF9091C00095FFF8CF04
:100180008093C60081E00895FC012081222371F054
:1001900031969091C10095FDFCCF9091C00095FFE4
:1001A000F8CF2093C60021912111F3CF08950F932A
:1001B0001F93CF93DF93CB01109283021816190679
:1001C000DCF4E3E8F2E0C4E6D2E0C095D0950AE0C2
:1001D00010E09E012E0F3F1FB8010E946106805D56
:1001E0008293CB010097A9F7C9018C599D4FDF91EC
:1001F000CF911F910F91089584E692E0DF91CF9106
:100200001F910F910895EF92FF920F931F93CF9339
:10021000DF930097B1F110928302181619060CF0C3
:1002200043C0C3E8D2E004E612E0009510952AE04E
:10023000E22EF12CF801EC0FFD1FB7010E946106C0
:1002400020E3280F2A93CB010097A1F7EC59FD4F2B
:1002500031969091C10095FDFCCF9091C00095FF23
:10026000F8CF2093C60021912111F3CFDF91CF91D8
:100270001F910F91FF90EF9008958091C00085FD30
:1002800009C08091C10085FFF8CF8091C10085FD34
:10029000F8CFF3CF80E38093C600DF91CF911F9119
:1002A0000F91FF90EF900895209164022223A9F30B
:1002B000E4E6F2E0CDCFEF92FF920F931F93CF933E
:1002C000DF93CB01109283021816190664F5C3E878
:1002D000D2E004E612E0009510952AE0E22EF12C1F
:1002E000F801EC0FFD1FB7010E94610620E3280F03
:1002F0002A93CB010097A1F7EC59FD4F31969091CD
:10030000C10095FDFCCF9091C00095FFF8CF2093E0
:10031000C60021912111F3CFDF91CF911F910F9151
:10032000FF90EF900895209164022223A9F3E4E660
:10033000F2E0E4CFCF92DF92EF92FF920F931F9300
:10034000CF93DF93CDB7DEB7E1970FB6F894DEBF5A
:100350000FBECDBF21E1E6E0F2E0DE019196019013
:100360000D922A95E1F79E012F5F3F4F690120E230
:10037000D6011D922A95E9F7FE01B0960EEF1FEF08
:100380000C191D09A8014E0F5F1FBA0131979C017E
:100390002F70307837FF06C021503109206F3F6F32
:1003A0002F5F3F4FA1E2EA2EF12CEC0EFD1E2E0D29
:1003B0003F1DD9012C91208397FD0F969595879528
:1003C000959587959595879595958795181619060E
:1003D000CCF28091C10085FDFCCF8091C00085FFEB
:1003E000F8CF80E38093C6008091C10085FDFCCFEB
:1003F0008091C00085FFF8CF88E78093C6004B311D
:1004000051057CF04F5F5F4FF601E40FF51F960139
:10041000255E3F4F80E38293E217F307E1F76AE13D
:1004200070E0FE01E60FF71F9281992391F06E5F55
:100430007F4FD601A60FB71F8091C10085FDFCCF6D
:100440008091C00085FFF8CF9093C6009D919111D7
:10045000F3CFE1960FB6F894DEBF0FBECDBFDF91AC
:10046000CF911F910F91FF90EF90DF90CF90089563
:10047000CF92DF92EF92FF920F931F93CF93DF9370
:10048000CDB7DEB7E1970FB6F894DEBF0FBECDBF94
:1004900021E1E6E0F2E0DE01919601900D922A95CD
:1004A000E1F79E012F5F3F4F690120E2D6011D92C7
:1004B0002A95E9F7DE0190960EEF1FEF0C191D0942
:1004C00098012A0F3B1FA9011197CB018F709078DB
:1004D00097FF04C00197806F9F6F0196E1E2F0E003
:1004E000EC0FFD1F8E0F9F1FFC0180818C9377FF07
:1004F00002C0615F7F4F7595679575956795759596
:1005000067957595679516161706D4F28091C10008
:1005100085FDFCCF8091C00085FFF8CF80E38093FC
:10052000C6008091C10085FDFCCF8091C00085FF91
:10053000F8CF88E78093C6002B3131057CF02F5F20
:100540003F4FD601A20FB31F9601255E3F4F80E3B8
:100550008E93A217B307E1F74AE150E0DE01A40F42
:10056000B51F12969C91992391F04E5F5F4FF60153
:10057000E40FF51F8091C10085FDFCCF8091C00084
:1005800085FFF8CF9093C60091919111F3CFE1963A
:100590000FB6F894DEBF0FBECDBFDF91CF911F9194
:1005A0000F91FF90EF90DF90CF9008950F931F93DE
:1005B000CF93DF93C62F282F30E0C90121153105D5
:1005C00061F0E3E8F2E00AE010E0B8010E946106A1
:1005D000805D8293CB010097C1F7D0E0CE011092ED
:1005E0008302209761F0E3E8F2E00AE010E0B8014E
:1005F0000E946106805D8293CB010097C1F79091C4
:10060000C10095FDFCCF8091C00085FFF8CF8BE144
:100610008093C6009091C10095FDFCCF8091C000F1
:1006200085FFF8CF8BE58093C600C9010E940301C6
:100630008091C10085FDFCCF8091C00085FFF8CF7F
:100640008BE38093C600CE010E9403018091C1001C
:1006500085FDFCCF8091C00085FFF8CF88E48093B2
:10066000C600DF91CF911F910F9108959091C10025
:1006700095FDFCCF9091C00095FFF8CF9BE1909342
:10068000C6009091C10095FDFCCF9091C00095FFF0
:10069000F8CF9BE59093C6009091C10095FDFCCFEB
:1006A0009091C00095FFF8CF93E39093C60090918E
:1006B000C10095FDFCCF9091C00095FFF8CF8093CD
:1006C000C6008091C10085FDFCCF8091C00085FFF0
:1006D000F8CF8DE68093C6000895F0E0E4E2508103
:1006E00060E86083E5E2508160E860830895F0E0AF
:1006F000E4E2508160E86083E5E2508160E060837D
:100700000895181619066CF430E020E0EFE9FFE0D8
:100710003197F1F700C000002F5F3F4F821793071A
:10072000A9F70895FC01C081D1816AE08AE00E94A6
:10073000D602CE010E9403018091C0002FEF87FDF9
:100740002091C600F0E0E4E2508160E86083E5E2D9
:10075000508160E860831C161D0664F490E080E020
:10076000EFE9FFE03197F1F700C000000196C817EC
:10077000D907B1F7F0E0E4E2508160E86083E5E298
:10078000508160E060831C161D0664F490E080E0F8
:10079000EFE9FFE03197F1F700C000000196C817BC
:1007A000D907B1F7213629F02A3709F0BECF649670
:1007B000BCCF6497BACF8091C10085FDFCCF8091FA
:1007C000C00085FFF8CF8BE18093C6008091C10007
:1007D00085FDFCCF8091C00085FFF8CF8BE580932D
:1007E000C6008091C10085FDFCCF8091C00085FFCF
:1007F000F8CF82E38093C6008091C10085FDFCCFD5
:100800008091C00085FFF8CF8AE48093C6000895E8
:10081000C0918402D091850204E610E080E3F82EB6
:10082000809184029091850284569109C817D90756
:10083000BCF7C0918402D091850260E080E00E9404
:10084000D6020E94DB0383E30E943603E8E1F2E074
:1008500094E58091C10085FDFCCF8091C00085FFAB
:10086000F8CF9093C60091919111F3CF80918402BB
:1008700090918502B8010E946106072E000C880B3A
:10088000990B0E945B0160E082E00E94D602E0E2E8
:10089000F2E09EE48091C10085FDFCCF8091C00014
:1008A00085FFF8CF9093C60091919111F3CF80917D
:1008B0008702909188020E94030160E084E00E9418
:1008C000D602E4E3F2E094E58091C10085FDFCCF1F
:1008D0008091C00085FFF8CF9093C600919191114F
:1008E000F3CF8091C10085FDFCCF8091C00085FFD2
:1008F000F8CFF092C60060E085E00E94D602E0E406
:10090000F2E094E58091C10085FDFCCF8091C000AC
:1009100085FFF8CF9093C60091919111F3CFE091AC
:100920008902F0918A029381992371F03496809123
:10093000C10085FDFCCF8091C00085FFF8CF90936A
:10094000C60091919111F3CF60E086E00E94D6023B
:10095000EEE4F2E094E58091C10085FDFCCF80914A
:10096000C00085FFF8CF9093C60091919111F3CF0D
:100970008091890290918A0201960E949A0150CF3B
:100980007894912F802FFD2FEC2F0994AF92BF9276
:10099000CF92DF92EF92FF920F931F93CF93DF934B
:1009A0007C01B62EA72ED42EC52E8901C9010E9426
:1009B0008906E8016697C80FD91F1882A982BA82F2
:1009C000CB82DC821D821E821F82188619861A86BF
:1009D0001B861C861D861E861F86188A198A1A8AFF
:1009E0001B8A80EC94E09C8B8D8B80918902909186
:1009F0008A02FC01EF57FF4F10821182128213828C
:100A00003197108240918702509188029A01229575
:100A10003295307F3227207F3227FC01E20FF31F0F
:100A20004083F70101900020E9F7AF012D5F3F4FB0
:100A30004E195F09B701820F931F0E94AE07E09124
:100A40008902F0918A0280918702909188029C012C
:100A500022953295307F3227207F3227E20FF31F15
:100A600017870687D283C18301969093880280936B
:100A70008702DF91CF911F910F91FF90EF90DF9050
:100A8000CF90BF90AF900895809186022091870209
:100A900030918802215031098217130624F01092F8
:100AA000860280E008958F5F809386020895EEE6C7
:100AB000F0E080818260808384B5826084BD85B5EA
:100AC000856085BD8CE987BD08952F923F924F9236
:100AD0005F926F927F928F929F92AF92BF92CF92CE
:100AE000DF92EF92FF920F931F93CF93DF93F0E08B
:100AF000EEE52081EDE53081F72FE62F319320835D
:100B0000F92FE82F51916081F0E0EEE56083EDE58B
:100B10005083DF91CF911F910F91FF90EF90DF9065
:100B2000CF90BF90AF909F908F907F906F905F908D
:100B30004F903F902F900895CF93DF9300D01F9256
:100B4000CDB7DEB70E949B0084E190E09C838B834D
:100B500081E090E09A83898380E190E00E94890699
:100B600090938C0280938B0280E990E00E9489062A
:100B700090938A02809389021092880210928702D1
:100B800028EC30E0AE014D5F5F4F62E973E089E52C
:100B900092E00E94C60428EC30E0AE014F5F5F4F48
:100BA00068E074E08FE592E00E94C604EEE6F0E0B3
:100BB00080818260808384B5826084BD85B58560D4
:100BC00085BD8CE987BD78948091890290918A02D5
:100BD0006BE872E001960E9465050F900F900F90F0
:100BE0000F90DF91CF9108951F920F920FB60F9241
:100BF00011240BB60F920F931F932F933F934F9394
:100C00005F936F937F938F939F93AF93BF93CF9394
:100C1000DF93EF93FF9300918602C02FD0E0809185
:100C20008702909188020197C817D907BCF11092EA
:100C3000860201E010E08091840290918502019685
:100C400090938502809384028091890290918A0218
:100C5000BE0162957295707F7627607F76276F5F01
:100C60007F4F680F791F800F911F0E946505FF91CC
:100C7000EF91DF91CF91BF91AF919F918F917F9134
:100C80006F915F914F913F912F911F910F910F9015
:100C90000BBE0F900FBE0F901F9018950F5F009323
:100CA000860280E1089F800111240F5F1F4FC3CF90
:100CB00010928502109284020E949C0590E080E0D0
:100CC000089597FB072E16F4009407D077FD09D0FE
:100CD0000E94750607FC05D03EF4909581959F4FC4
:100CE0000895709561957F4F0895AA1BBB1B51E134
:100CF00007C0AA1FBB1FA617B70710F0A61BB70B8C
:100D0000881F991F5A95A9F780959095BC01CD0130
:100D100008950F931F93CF93DF938230910510F4C2
:100D200082E090E0E0918F02F091900230E020E0CC
:100D3000B0E0A0E0309799F42115310509F44AC0DC
:100D4000281B390B24303105D8F58A819B81611528
:100D5000710589F1FB0193838283FE0111C04081FB
:100D600051810281138148175907E0F0481759074C
:100D700099F4109761F012960C93129713961C93A6
:100D80003296CF01DF91CF911F910F91089500937B
:100D90008F0210939002F4CF2115310551F04217C4
:100DA000530738F0A901DB019A01BD01DF01F80109
:100DB000C1CFEF01F9CF9093900280938F02CDCFF6
:100DC000FE01E20FF31F8193919322503109398381
:100DD0002883D7CF20918D0230918E02232B41F4AE
:100DE000209102023091030230938E0220938D02F3
:100DF00020910002309101022115310541F42DB7F7
:100E00003EB74091040250910502241B350BE0913E
:100E10008D02F0918E02E217F307A0F42E1B3F0B18
:100E20002817390778F0AC014E5F5F4F241735075C
:100E300048F04E0F5F1F50938E0240938D028193B6
:100E400091939FCFF0E0E0E09CCFCF93DF930097AA
:100E5000E9F0FC01329713821282A0918F02B091C7
:100E60009002ED0130E020E01097A1F42081318163
:100E7000820F931F20918D0230918E02281739071F
:100E800009F061C0F0938E02E0938D02DF91CF9163
:100E90000895EA01CE17DF07E8F54A815B819E01DC
:100EA00041155105B1F7E901FB83EA834991599155
:100EB000C40FD51FEC17FD0761F480819181029664
:100EC000840F951FE90199838883828193819B8395
:100ED0008A83F0E0E0E012968D919C911397009741
:100EE000B9F52D913C911197CD010296820F931F78
:100EF00020918D0230918E022817390739F63097EC
:100F000051F51092900210928F02B0938E02A0932E
:100F10008D02BCCFD383C28340815181840F951F42
:100F2000C817D90761F44E5F5F4F88819981480FD8
:100F3000591F518340838A819B819383828321152A
:100F4000310509F0B0CFF0939002E0938F029ECF6D
:100F5000FD01DC01C0CF13821282D7CFFB01DC017F
:100F600002C001900D9241505040D8F70895F89476
:020F7000FFCFB1
:100F720000009102200030313233343536373839AF
:100F82004142434445460054696D65723A20004E21
:100F9200756D626572206F66205468726561647354
:100FA2003A20005468726561642049643A20005412
:100FB2006872656164206E616D653A2000546872E2
:100FC2006561642050433A2000626C696E6B007365
:040FD20074617900CD
:00000001FF
