:100000000C9478000C9499000C9499000C9499002D
:100010000C9499000C9499000C9499000C949900FC
:100020000C9499000C9499000C9499000C949900EC
:100030000C9499000C9499000C9499000C949900DC
:100040000C9499000C9499000C9499000C949900CC
:100050000C9499000C947F050C9499000C949900D1
:100060000C9499000C9499000C9499000C949900AC
:100070000C9499000C9499000C9499000C9499009C
:100080000C9499000C9499000C9499000C9499008C
:100090000C9499000C9499000C9499000C9499007C
:1000A0000C9499000C9499000C9499000C9499006C
:1000B0000C9499000C9499000C9499000C9499005C
:1000C0000C9499000C9499000C9499000C9499004C
:1000D0000C9499000C9499000C9499000C9499003C
:1000E0000C9499000C945B040C94C5030C941104BB
:1000F00011241FBECFEFD1E2DEBFCDBF00E00CBFA9
:1001000012E0A0E0B2E0E4EFFEE000E00BBF02C0CE
:1001100007900D92AA33B107D9F722E0AAE3B2E023
:1001200001C01D92A736B207E1F70E94E3050C94C7
:1001300078070C94000082E08093C0001092C50004
:1001400080E18093C400E1ECF0E0808188618083ED
:1001500008958091C000881F8827881F0895809186
:10016000C00087FF03C08091C60008958FEF0895F7
:100170009091C10095FDFCCF9091C00095FFF8CF04
:100180008093C60081E00895FC012081222371F054
:1001900031969091C10095FDFCCF9091C00095FFE4
:1001A000F8CF2093C60021912111F3CF08950F932A
:1001B0001F93CF93DF93CB011092590218161906A3
:1001C000DCF4E9E5F2E0CAE3D2E0C095D0950AE0BC
:1001D00010E09E012E0F3F1FB8010E942206805D95
:1001E0008293CB010097A9F7C901865C9D4FDF91EF
:1001F000CF911F910F9108958AE392E0DF91CF9103
:100200001F910F910895EF92FF920F931F93CF9339
:10021000DF93109259021816190664F5C9E5D2E069
:100220000AE312E0009510952AE0E22EF12CF80185
:10023000EC0FFD1FB7010E94220620E3280F2A932E
:10024000CB010097A1F7E65CFD4F31969091C1007C
:1002500095FDFCCF9091C00095FFF8CF2093C6008C
:1002600021912111F3CFDF91CF911F910F91FF9039
:10027000EF90089520913A022223A9F3EAE3F2E0F5
:10028000E4CFEF92FF920F931F93CF93DF93CB01B5
:10029000109259021816190664F5C9E5D2E00AE36E
:1002A00012E0009510952AE0E22EF12CF801EC0FF7
:1002B000FD1FB7010E94220620E3280F2A93CB01DD
:1002C0000097A1F7E65CFD4F31969091C10095FD36
:1002D000FCCF9091C00095FFF8CF2093C6002191EC
:1002E0002111F3CFDF91CF911F910F91FF90EF90EC
:1002F000089520913A022223A9F3EAE3F2E0E4CF41
:10030000CF92DF92EF92FF920F931F93CF93DF93E1
:10031000CDB7DEB7E1970FB6F894DEBF0FBECDBF05
:1003200021E1EEE0F2E0DE01919601900D922A9536
:10033000E1F79E012F5F3F4F690120E2D6011D9238
:100340002A95E9F7FE01B0960EEF1FEF0C191D0973
:10035000A8014E0F5F1FBA0131979C012F703078B2
:1003600037FF06C021503109206F3F6F2F5F3F4F8D
:10037000A1E2EA2EF12CEC0EFD1E2E0D3F1DD9013F
:100380002C91208397FD0F96959587959595879548
:10039000959587959595879518161906CCF28091B5
:1003A000C10085FDFCCF8091C00085FFF8CF80E3C0
:1003B0008093C6008091C10085FDFCCF8091C00074
:1003C00085FFF8CF88E78093C6004B3151057CF05C
:1003D0004F5F5F4FF601E40FF51F9601255E3F4F1B
:1003E00080E38293E217F307E1F76AE170E0FE0130
:1003F000E60FF71F9281992391F06E5F7F4FD60130
:10040000A60FB71F8091C10085FDFCCF8091C00071
:1004100085FFF8CF9093C6009D919111F3CFE1969F
:100420000FB6F894DEBF0FBECDBFDF91CF911F9105
:100430000F91FF90EF90DF90CF900895CF92DF92D1
:10044000EF92FF920F931F93CF93DF93CDB7DEB759
:10045000E1970FB6F894DEBF0FBECDBF21E1EEE00D
:10046000F2E0DE01919601900D922A95E1F79E014E
:100470002F5F3F4F690120E2D6011D922A95E9F7CF
:10048000DE0190960EEF1FEF0C191D0998012A0F3F
:100490003B1FA9011197CB018F70907897FF04C083
:1004A0000197806F9F6F0196E1E2F0E0EC0FFD1F76
:1004B0008E0F9F1FFC0180818C9377FF02C0615FCC
:1004C0007F4F759567957595679575956795759542
:1004D000679516161706D4F28091C10085FDFCCFF2
:1004E0008091C00085FFF8CF80E38093C6008091A3
:1004F000C10085FDFCCF8091C00085FFF8CF88E763
:100500008093C6002B3131057CF02F5F3F4FD60121
:10051000A20FB31F9601255E3F4F80E38E93A21773
:10052000B307E1F74AE150E0DE01A40FB51F1296D0
:100530009C91992391F04E5F5F4FF601E40FF51FF8
:100540008091C10085FDFCCF8091C00085FFF8CF70
:100550009093C60091919111F3CFE1960FB6F89464
:10056000DEBF0FBECDBFDF91CF911F910F91FF90E6
:10057000EF90DF90CF900895CF92DF92EF92FF92AD
:100580000F931F93CF93DF93262F90E0009709F4EA
:100590008FC0E9E5F2E04AE3E42E42E0F42E670181
:1005A000C094D094CAE0D0E086010E0F1F1FBE0198
:1005B0000E942206805D8293CB010097A9F7065C1A
:1005C0001D4FE801822F90E010925902009709F424
:1005D0007CC0E9E5F2E0E094F0942AE0C22ED12C50
:1005E00097012E0F3F1FB6010E942206805D829365
:1005F000CB010097A9F7D901A65CBD4F9D01809161
:10060000C10085FDFCCF8091C00085FFF8CF8BE154
:100610008093C6008091C10085FDFCCF8091C00011
:1006200085FFF8CF8BE58093C600F8019081992370
:1006300071F021968091C10085FDFCCF8091C000B2
:1006400085FFF8CF9093C60099919111F3CF8091D7
:10065000C10085FDFCCF8091C00085FFF8CF8BE302
:100660008093C6009C91992379F0F901319680918D
:10067000C10085FDFCCF8091C00085FFF8CF90932D
:10068000C60091919111F3CF8091C10085FDFCCFFF
:100690008091C00085FFF8CF88E48093C600DF9189
:1006A000CF911F910F91FF90EF90DF90CF90089521
:1006B0003AE3E32E32E0F32EE7018701822F90E048
:1006C00010925902009709F084CF2AE332E0D90151
:1006D00096CF9091C10095FDFCCF9091C00095FF01
:1006E000F8CF9BE19093C6009091C10095FDFCCF9F
:1006F0009091C00095FFF8CF9BE59093C600909134
:10070000C10095FDFCCF9091C00095FFF8CF93E319
:100710009093C6009091C10095FDFCCF9091C000D0
:1007200095FFF8CF8093C6008091C10085FDFCCF76
:100730008091C00085FFF8CF8DE68093C6000895B4
:10074000F0E0E4E2508160E86083E5E2508160E837
:1007500060830895F0E0E4E2508160E86083E5E2C0
:10076000508160E060830895181619066CF430E03B
:1007700020E0EFE9FFE03197F1F700C000002F5FC4
:100780003F4F82179307A9F7089524EF31E0809136
:10079000C0004FEF87FD4091C600F0E0E4E25081D9
:1007A00060E86083E5E2508160E86083121613061A
:1007B00064F490E080E0EFE9FFE03197F1F700C0EA
:1007C0000000019628173907B1F7F0E0E4E2508104
:1007D00060E86083E5E2508160E0608312161306F2
:1007E00064F490E080E0EFE9FFE03197F1F700C0BA
:1007F0000000019628173907B1F7413659F04A37FA
:1008000009F0C5CF283EF3E03F070CF0C0CF2C5EC7
:100810003F4FBDCF253131050CF4B9CF24513109FB
:10082000B6CF8FE99FE00197F1F700C000008FE994
:100830009FE00197F1F700C00000E0E2F2E09AE4E7
:100840008091C10085FDFCCF8091C00085FFF8CF6D
:100850009093C60091919111F3CFE3CF8091C100A5
:1008600085FDFCCF8091C00085FFF8CF8BE18093A0
:10087000C6008091C10085FDFCCF8091C00085FF3E
:10088000F8CF8BE58093C6008091C10085FDFCCF39
:100890008091C00085FFF8CF82E38093C6008091ED
:1008A000C10085FDFCCF8091C00085FFF8CF8AE4B0
:1008B0008093C60008957894AF92BF92CF92DF9252
:1008C000EF92FF920F931F93CF93DF937C015B0115
:1008D0006A018901C9010E944A06E8016697C80FAA
:1008E000D91F1882B982AA82BB82CC821D821E8245
:1008F0001F82188619861A861B861C861D861E86F0
:100900001F86188A198A1A8A1B8A8BE594E09C8BA9
:100910008D8B80915F0290916002FC01EF57FF4F39
:1009200010821182128213823197108220915D020F
:1009300030915E0222953295307F3227207F322718
:10094000FC01E20FF31FD6014C914083F7010190A7
:100950000020E9F7AF012D5F3F4F4E195F09B70146
:10096000820F931F0E946F07E0915F02F091600277
:1009700080915D0290915E029C0122953295307FBC
:100980003227207F3227E20FF31F17870687D28393
:10099000C183019690935E0280935D02DF91CF91B7
:1009A0001F910F91FF90EF90DF90CF90BF90AF908D
:1009B000089580915C0220915D0230915E02215089
:1009C00031098217130624F010925C0280E008952A
:1009D0008F5F80935C020895EEE6F0E08081826094
:1009E000808384B5826084BD85B5856085BD8CE9D2
:1009F00087BD08952F923F924F925F926F927F92A0
:100A00008F929F92AF92BF92CF92DF92EF92FF921E
:100A10000F931F93CF93DF93F92FE82F60813196C7
:100A20005081F0E0EEE56083EDE55083DF91CF91FA
:100A30001F910F91FF90EF90DF90CF90BF90AF90FC
:100A40009F908F907F906F905F904F903F902F90EE
:100A50000895CF93DF9300D01F92CDB7DEB70E94E9
:100A60009B00EEE6F0E080818260808384B5826046
:100A700084BD85B5856085BD8CE987BD78941C8271
:100A80001B8281E090E09A83898380E190E00E945C
:100A90004A06909362028093610280E990E00E948E
:100AA0004A069093600280935F0210925E02109259
:100AB0005D0228EC30E0AE014D5F5F4F65EC73E006
:100AC0008FE292E00E945C0428EC30E0AE014F5FC0
:100AD0005F4F61E174E085E392E00E945C048091E5
:100AE0005F029091600261E672E001960E94FA0452
:100AF0000F900F900F900F90DF91CF9108951F925C
:100B00000F920FB60F9211240BB60F920F931F93F3
:100B10002F933F934F935F936F937F938F939F9305
:100B2000AF93BF93CF93DF93EF93FF9300915C025A
:100B3000C02FD0E080915D0290915E020197C817AE
:100B4000D907BCF110925C0201E010E080915A02DA
:100B500090915B02019690935B0280935A02809180
:100B60005F0290916002BE0162957295707F762758
:100B7000607F76276F5F7F4F680F791F800F911F0F
:100B80000E94FA04FF91EF91DF91CF91BF91AF9155
:100B90009F918F917F916F915F914F913F912F9195
:100BA0001F910F910F900BBE0F900FBE0F901F90D3
:100BB00018950F5F00935C0280E1089F800111246B
:100BC0000F5F1F4FC3CF10925B0210925A02C09169
:100BD0005A02D0915B020E94290504E610E0809140
:100BE0005A0290915B0284569109C817D907BCF745
:100BF000C0915A02D0915B0260E080E00E94BC028A
:100C00000E942E0483E30E94690386E092E00E9422
:100C1000C40080915A0290915B02B8010E942206A2
:100C2000072E000C880B990B0E94410187E30E945C
:100C3000690364E084E00E94BC0283ED93E60E94B5
:100C40008001CDCF97FB072E16F4009407D077FDD7
:100C500009D00E94360607FC05D03EF49095819598
:100C60009F4F0895709561957F4F0895AA1BBB1BF8
:100C700051E107C0AA1FBB1FA617B70710F0A61B9C
:100C8000B70B881F991F5A95A9F780959095BC01BD
:100C9000CD0108950F931F93CF93DF938230910579
:100CA00010F482E090E0E0916502F091660230E09D
:100CB00020E0B0E0A0E0309799F42115310509F467
:100CC0004AC0281B390B24303105D8F58A819B8115
:100CD0006115710589F1FB0193838283FE0111C0C7
:100CE000408151810281138148175907E0F048176C
:100CF000590799F4109761F012960C931297139676
:100D00001C933296CF01DF91CF911F910F910895DF
:100D10000093650210936602F4CF2115310551F05E
:100D20004217530738F0A901DB019A01BD01DF0129
:100D3000F801C1CFEF01F9CF90936602809365026D
:100D4000CDCFFE01E20FF31F819391932250310921
:100D500039832883D7CF2091630230916402232BFB
:100D600041F42091020230910302309364022093F7
:100D7000630220910002309101022115310541F4F6
:100D80002DB73EB74091040250910502241B350B4C
:100D9000E0916302F0916402E217F307A0F42E1BC6
:100DA0003F0B2817390778F0AC014E5F5F4F2417CF
:100DB000350748F04E0F5F1F509364024093630263
:100DC000819391939FCFF0E0E0E09CCFCF93DF93AE
:100DD0000097E9F0FC01329713821282A09165021C
:100DE000B0916602ED0130E020E01097A1F420817F
:100DF0003181820F931F2091630230916402281782
:100E0000390709F061C0F0936402E0936302DF9157
:100E1000CF910895EA01CE17DF07E8F54A815B819B
:100E20009E0141155105B1F7E901FB83EA83499120
:100E30005991C40FD51FEC17FD0761F48081918192
:100E40000296840F951FE90199838883828193819B
:100E50009B838A83F0E0E0E012968D919C9113973A
:100E60000097B9F52D913C911197CD010296820F13
:100E7000931F20916302309164022817390739F6D5
:100E8000309751F51092660210926502B093640299
:100E9000A0936302BCCFD383C28340815181840F6E
:100EA000951FC817D90761F44E5F5F4F88819981FC
:100EB000480F591F518340838A819B81938382838A
:100EC0002115310509F0B0CFF0936602E093650279
:100ED0009ECFFD01DC01C0CF13821282D7CFFB0170
:100EE000DC0102C001900D9241505040D8F70895A6
:040EF000F894FFCFA4
:100EF40000006702200054696D65723A20003031A9
:100F04003233343536373839414243444546004A52
:100F14006F7264616E206973206865726521006276
:0A0F24006C696E6B00737461790054
:00000001FF
