:100000000C947A000C949B000C949B000C949B0025
:100010000C949B000C949B000C949B000C949B00F4
:100020000C949B000C949B000C949B000C949B00E4
:100030000C949B000C949B000C949B000C949B00D4
:100040000C949B000C94F2060C949B000C949B0067
:100050000C949B000C94E4070C949B000C949B0064
:100060000C949B000C949B000C949B000C949B00A4
:100070000C949B000C949B000C949B000C949B0094
:100080000C949B000C949B000C949B000C949B0084
:100090000C949B000C949B000C949B000C949B0074
:1000A0000C949B000C949B000C949B000C949B0064
:1000B0000C949B000C949B000C949B000C949B0054
:1000C0000C949B000C949B000C949B000C949B0044
:1000D0000C949B000C949B000C949B000C949B0034
:1000E0000C949B000C94EE050C94B3090C94BF087F
:1000F0000C947C1011241FBECFEFD1E2DEBFCDBF28
:1001000000E00CBF14E0A0E0B2E0E4E0F4E200E0C4
:100110000BBF02C007900D92A432B107D9F724E0BB
:10012000A4E2B4E001C01D92A035B207E1F70E943D
:100130007C100C9400120C94000082E08093C000AC
:100140001092C50080E18093C400E1ECF0E0808172
:100150008861808308958091C000881F8827881F48
:1001600008958091C00087FF03C08091C600089564
:100170008FEF08959091C10095FDFCCF9091C00044
:1001800095FFF8CF8093C60081E00895FC0120819F
:10019000222371F031969091C10095FDFCCF909192
:1001A000C00095FFF8CF2093C60021912111F3CF15
:1001B00008950F931F93CF93DF93CB0110924304C5
:1001C00018161906DCF4E3E4F4E0C4E2D4E0C095C8
:1001D000D0950AE010E09E012E0F3F1FB8010E944B
:1001E000AA10805D8293CB010097A9F7C9018C5DAD
:1001F0009B4FDF91CF911F910F91089584E294E07E
:10020000DF91CF911F910F910895EF92FF920F937D
:100210001F93CF93DF930097B1F110924304181608
:1002200019060CF043C0C3E4D4E004E214E00095E6
:1002300010952AE0E22EF12CF801EC0FFD1FB7011A
:100240000E94AA1020E3280F2A93CB010097A1F760
:10025000EC5DFB4F31969091C10095FDFCCF9091E4
:10026000C00095FFF8CF2093C60021912111F3CF54
:10027000DF91CF911F910F91FF90EF9008958091A2
:10028000C00085FD09C08091C10085FFF8CF809135
:10029000C10085FDF8CFF3CF80E38093C600DF91E6
:1002A000CF911F910F91FF90EF900895209124041A
:1002B0002223A9F3E4E2F4E0CDCFEF92FF920F9373
:1002C0001F93CF93DF93CB011092430418161906A6
:1002D00064F5C3E4D4E004E214E0009510952AE04C
:1002E000E22EF12CF801EC0FFD1FB7010E94AA10BD
:1002F00020E3280F2A93CB010097A1F7EC5DFB4F79
:1003000031969091C10095FDFCCF9091C00095FF72
:10031000F8CF2093C60021912111F3CFDF91CF9127
:100320001F910F91FF90EF900895209124042223B4
:10033000A9F3E4E2F4E0E4CFCF92DF92EF92FF92F0
:100340000F931F93CF93DF93CDB7DEB7E1970FB62F
:10035000F894DEBF0FBECDBF21E1E6E1F2E0DE01A1
:10036000919601900D922A95E1F79E012F5F3F4FE4
:10037000690120E2D6011D922A95E9F7FE01B096A7
:100380000EEF1FEF0C191D09A8014E0F5F1FBA01D8
:1003900031979C012F70307837FF06C0215031090A
:1003A000206F3F6F2F5F3F4FA1E2EA2EF12CEC0E42
:1003B000FD1E2E0D3F1DD9012C91208397FD0F9618
:1003C0009595879595958795959587959595879515
:1003D00018161906CCF28091C10085FDFCCF8091E2
:1003E000C00085FFF8CF80E38093C6008091C100F4
:1003F00085FDFCCF8091C00085FFF8CF88E7809312
:10040000C6004B3151057CF04F5F5F4FF601E40FA2
:10041000F51F9601255E3F4F80E38293E217F307B5
:10042000E1F76AE170E0FE01E60FF71F9281992380
:1004300091F06E5F7F4FD601A60FB71F8091C1006C
:1004400085FDFCCF8091C00085FFF8CF9093C6005A
:100450009D919111F3CFE1960FB6F894DEBF0FBED8
:10046000CDBFDF91CF911F910F91FF90EF90DF9063
:10047000CF900895CF92DF92EF92FF920F931F9348
:10048000CF93DF93CDB7DEB7E1970FB6F894DEBF19
:100490000FBECDBF21E1E6E1F2E0DE0191960190D1
:1004A0000D922A95E1F79E012F5F3F4F690120E2EF
:1004B000D6011D922A95E9F7DE0190960EEF1FEF07
:1004C0000C191D0998012A0F3B1FA9011197CB0197
:1004D0008F70907897FF04C00197806F9F6F01968F
:1004E000E1E2F0E0EC0FFD1F8E0F9F1FFC01808109
:1004F0008C9377FF02C0615F7F4F75956795759507
:100500006795759567957595679516161706D4F2D4
:100510008091C10085FDFCCF8091C00085FFF8CFA0
:1005200080E38093C6008091C10085FDFCCF80915F
:10053000C00085FFF8CF88E78093C6002B313105D6
:100540007CF02F5F3F4FD601A20FB31F9601255EAF
:100550003F4F80E38E93A217B307E1F74AE150E0E3
:10056000DE01A40FB51F12969C91992391F04E5F66
:100570005F4FF601E40FF51F8091C10085FDFCCFB0
:100580008091C00085FFF8CF9093C60091919111A2
:10059000F3CFE1960FB6F894DEBF0FBECDBFDF916B
:1005A000CF911F910F91FF90EF90DF90CF90089522
:1005B0000F931F93CF93DF93C62F282F30E0C901ED
:1005C0002115310561F0E3E4F4E00AE010E0B80140
:1005D0000E94AA10805D8293CB010097C1F7D0E002
:1005E000CE0110924304209761F0E3E4F4E00AE0C6
:1005F00010E0B8010E94AA10805D8293CB010097A1
:10060000C1F79091C10095FDFCCF8091C00085FF9E
:10061000F8CF8BE18093C6009091C10095FDFCCF8F
:100620008091C00085FFF8CF8BE58093C600C9019B
:100630000E9405018091C10085FDFCCF8091C00022
:1006400085FFF8CF8BE38093C600CE010E940501A1
:100650008091C10085FDFCCF8091C00085FFF8CF5F
:1006600088E48093C600DF91CF911F910F91089588
:100670009091C10095FDFCCF9091C00095FFF8CFFF
:100680009BE19093C6009091C10095FDFCCF9091A5
:10069000C00095FFF8CF9BE59093C6009091C100F4
:1006A00095FDFCCF9091C00095FFF8CF93E3909318
:1006B000C6009091C10095FDFCCF9091C00095FFC0
:1006C000F8CF8093C6008091C10085FDFCCF80915A
:1006D000C00085FFF8CF8DE68093C6000895F0E056
:1006E000E4E2508160E86083E5E2508160E8608385
:1006F0000895F0E0E4E2508160E86083E5E2508133
:1007000060E060830895181619066CF430E020E06C
:10071000EFE9FFE03197F1F700C000002F5F3F4F96
:1007200082179307A9F70895FC01208131818091F8
:10073000C0004FEF87FD4091C600F0E0E4E2508139
:1007400060E86083E5E2508160E86083121613067A
:1007500064F490E080E0EFE9FFE03197F1F700C04A
:100760000000019628173907B1F7F0E0E4E2508164
:1007700060E86083E5E2508160E060831216130652
:1007800064F490E080E0EFE9FFE03197F1F700C01A
:100790000000019628173907B1F7413631F04A3782
:1007A00009F0C5CF2C5E3F4FC2CF24513109BFCFD6
:1007B0008091C10085FDFCCF8091C00085FFF8CFFE
:1007C0008BE18093C6008091C10085FDFCCF8091B4
:1007D000C00085FFF8CF8BE58093C6008091C100F3
:1007E00085FDFCCF8091C00085FFF8CF82E3809328
:1007F000C6008091C10085FDFCCF8091C00085FFBF
:10080000F8CF8AE48093C6000895FFCFE4E68E2EE9
:10081000912CFFE1CF2E80914404909145040A97DA
:100820000CF4D9C160E080E00E94D80283E30E940A
:100830003803E8E2F2E094E58091C10085FDFCCF49
:100840008091C00085FFF8CF9093C60091919111DF
:10085000F3CF8091440490914504B4010E94AA1002
:10086000072E000C880B990B0E945D01E0E3F2E07B
:1008700090E28091C10085FDFCCF8091C00085FF92
:10088000F8CF9093C60091919111F3CF60E082E090
:100890000E94D802EEE4F2E09EE48091C10085FD62
:1008A000FCCF8091C00085FFF8CF9093C600919156
:1008B0009111F3CFE0914804F0914904E750FF4FC4
:1008C000808190E00E940501E0914804F091490484
:1008D000E750FF4F8081882309F49DCF0AE010E0A4
:1008E000D0E0C0E074E0D72E82E30E943803EE240B
:1008F000E394ED0C60E08D2D0E94D802E2E6F2E078
:1009000094E58091C10085FDFCCF8091C00085FFFA
:10091000F8CF9093C60091919111F3CFE0914804E4
:10092000F0914904CC9EC001CD9E900D1124E80F9A
:10093000F91F808190E00E94050162E0F62EFD0C17
:1009400060E08E2D0E94D802EEE6F2E094E5809100
:10095000C10085FDFCCF8091C00085FFF8CF90934A
:10096000C60091919111F3CFE0914804F0914904B0
:10097000E00FF11F9081992371F031968091C100B1
:1009800085FDFCCF8091C00085FFF8CF9093C60015
:1009900091919111F3CF53E0E52EED0C60E08F2D96
:1009A0000E94D802ECE7F2E094E58091C10085FD59
:1009B000FCCF8091C00085FFF8CF9093C600919145
:1009C0009111F3CFE0914804F0914904CC9EC0010D
:1009D000CD9E900D1124E80FF91F8789908D0E94FC
:1009E0009C0144E0A42EAD0C60E08E2D0E94D80244
:1009F000E8E8F2E093E58091C10085FDFCCF8091AD
:100A0000C00085FFF8CF9093C60091919111F3CF6C
:100A1000E0914804F0914904CC9EC001CD9E900D18
:100A20001124E80FF91F838D948D20853185821B59
:100A3000930B0E94050136E9E32E32E0F32EF70115
:100A400090E28091C10085FDFCCF8091C00085FFC0
:100A5000F8CF9093C60091919111F3CF25E0B22E7B
:100A6000BD0C60E08A2D0E94D802E0EAF2E093E536
:100A70008091C10085FDFCCF8091C00085FFF8CF3B
:100A80009093C60091919111F3CFE0914804F091B9
:100A90004904CC9EC001CD9E900D1124E80FF91F92
:100AA000858996890E94050190E28091C10085FDAB
:100AB000FCCF8091C00085FFF8CF9093C600F7016E
:100AC00091917F019111F1CF96E0E92EED0C60E05C
:100AD0008B2D0E94D802EDEAF2E093E48091C100F0
:100AE00085FDFCCF8091C00085FFF8CF9093C600B4
:100AF00091919111F3CFE0914804F0914904CC9E7B
:100B0000C001CD9E900D1124E80FF91F80859185BD
:100B10000E949C0187E0F82EFD0C60E08E2D0E9463
:100B2000D802E4ECF2E093E58091C10085FDFCCFB2
:100B30008091C00085FFF8CF9093C60091919111EC
:100B4000F3CFE0914804F0914904CC9EC001CD9EC2
:100B5000900D1124E80FF91F818D928D0E949C0148
:100B600060E08F2D0E94D802E1EDF2E093E58091E4
:100B7000C10085FDFCCF8091C00085FFF8CF909328
:100B8000C60091919111F3CFE0914804F09149048E
:100B9000CC9EC001CD9E900D1124E80FF91F838DCE
:100BA000948D0E949C01F9E0DF0E2196015E1F4F9B
:100BB000E0914804F0914904E750FF4F80818C1781
:100BC0001D0611F00CF090CE8091440490914504E4
:100BD0000A970CF027CE0E94D80324CE7894912F48
:100BE000802FFD2FEC2F09949F92AF92BF92CF924E
:100BF000DF92EF92FF920F931F93CF93DF937C01CD
:100C0000B62EC72EA42E952E8901C9010E94D2109E
:100C1000EC012091480430914904F901E750FF4F5D
:100C200090818FE1D82EF901D99EE00DF11D11249C
:100C3000D28FC18FAE01400F511F548F438F11824D
:100C4000128213821482158241E050E0578346835A
:100C5000A80146515109C40FD51FD68FC58F1882E0
:100C6000C982BA829B82AC821D821E821F82188634
:100C700019861A861B861C861D861E861F86188A64
:100C8000198A1A8A1B8A4EEE55E05C8B4D8B908335
:100C9000B78AC08EF70101900020E9F7AF01B901D2
:100CA0009D9D600D711D1124CB014E195F09B70187
:100CB0000A960E94F711E0914804F0914904DF017F
:100CC000A750BF4F8C91D89EE00DF11D1124168BBB
:100CD000058BD187C0878F5F8C93DF91CF911F9158
:100CE0000F91FF90EF90DF90CF90BF90AF909F90CB
:100CF00008950E949D0089E091E00E94D210909397
:100D0000490480934804FC01E850FF4F21E0208310
:100D10003196208386509F4FFC01108211821282EF
:100D2000138284E190E00E94D21090934704809354
:100D300046040C946C080F931F93CF936091480462
:100D4000709149048B0108501F4FD801CC91FB01D1
:100D5000E750FF4FA081A150BB0B81E08C0FCA1759
:100D60001B060CF080E09FE105C08F5F4A175B0710
:100D70000CF080E0482F50E0FB01989FE00DF11D42
:100D80001124268137812130310579F78C1769F3D9
:100D9000D8018C9342815381648175814F5F5F4F8D
:100DA0006F4F7F4F4283538364837583CF911F912D
:100DB0000F910895FFCF2091480430914904F90123
:100DC000E850FF4F808127503F4FD9012C9121508F
:100DD000330B821713061CF0108280E008958F5F9A
:100DE000808308951F920F920FB60F9211240BB6B5
:100DF0000F928F939F93AF93BF93EF93FF93E091E5
:100E00004804F0914904DF01A750BF4F9C919923FA
:100E100049F080E012821382148215828F5F7F96E0
:100E20008913F8CFFF91EF91BF91AF919F918F916F
:100E30000F900BBE0F900FBE0F901F901895EEE60F
:100E4000F0E080818260808384B5826084BD85B556
:100E5000856085BD8CE987BD89E09DE3909389001D
:100E600080938800EFE6F0E0808182608083E1E893
:100E7000F0E080818D60808308952F923F924F92A1
:100E80005F926F927F928F929F92AF92BF92CF921A
:100E9000DF92EF92FF920F931F93CF93DF93F0E0D7
:100EA000EEE52081EDE53081F72FE62F31932083A9
:100EB000F92FE82F51916081F0E0EEE56083EDE5D8
:100EC0005083DF91CF911F910F91FF90EF90DF90B2
:100ED000CF90BF90AF909F908F907F906F905F90DA
:100EE0004F903F902F900895CF93DF9380914804C7
:100EF00090914904FC01E850FF4FD081CFE1CD9F94
:100F0000800D911D112423E030E0FC0137832683FE
:100F10000E949B062091480430914904F901C89F22
:100F2000E00DF11D112417821682B901DC9F600DBE
:100F3000711D1124685F7F4FCF0108960E943D0705
:100F4000DF91CF910895CF93DF9300D01F921F922E
:100F5000CDB7DEB785E0ECEDF2E0DE011196019051
:100F60000D928A95E1F70E941F07789480914804BA
:100F700090914904FC01128E118E148E138E168EE0
:100F8000158E10822CE730E1308F278B25E0FE0193
:100F90003196DC011A9601900D922A95E1F7FC0139
:100FA000168A158A21E030E037832683BC01685F0A
:100FB0007F4F87960E943D070F900F900F900F90E4
:100FC0000F90DF91CF9108951F920F920FB60F925D
:100FD00011240BB60F92EF92FF920F931F932F9352
:100FE0003F934F935F936F937F938F939F93AF93B1
:100FF000BF93CF93DF93EF93FF9380914804909139
:101000004904FC01E850FF4FE080FC012FE1E29E23
:10101000E00DF11D112486819781039721F081E075
:1010200090E0978386830E949B060091480410916C
:1010300049049FE1F92EF89EE0011124F801EC0F1C
:10104000FD1F1782168280914404909145040196F9
:101050009093450480934404B801EF9C600D711D8A
:101060001124685F7F4FCE010896800F911F0E9468
:101070003D07FF91EF91DF91CF91BF91AF919F918C
:101080008F917F916F915F914F913F912F911F9120
:101090000F91FF90EF900F900BBE0F900FBE0F902F
:1010A0001F9018958130910599F070F0823091056C
:1010B00019F0039729F0089582E193E00C94C6009B
:1010C00081EF92E00C94C60081E093E00C94C6009E
:1010D00081EE92E00C94C600FC0181E090E09183E7
:1010E0008083138A128A13821282158214821782D5
:1010F0001682118610861386128615861486178628
:101100001686118A108A0895CF93DF93FC01F89414
:10111000808191811816190634F411821082789416
:10112000DF91CF9108958091480490914904A2895C
:10113000B389EC01C850DF4F288130E01196AA0F27
:10114000BB1FAE0FBF1F11963C932E93428953894C
:101150004F5F5F4F538B428B6FE1629FA001639F94
:10116000500D1124840F951F23E030E0FC013783DC
:1011700026830E9474077894DF91CF910895C1E08F
:10118000D0E01FE180914604909147040E948408BA
:1011900060E082E00E94D80282E293E00E94C600F2
:1011A000809148049091490489960E94C60060E0AD
:1011B00083E00E94D80280E393E00E94C600E091A1
:1011C0004804F091490485A196A10E94520860E06C
:1011D00085E00E94D80282E293E00E94C6008091DE
:1011E000480490914904885B9F4F0E94C60060E0CC
:1011F00086E00E94D80280E393E00E94C600E0915E
:101200004804F0914904EC5BFF4F808191810E947A
:10121000520863E282E00E94D8028FE393E00E94CA
:10122000C600E0914604F0914704828993890E94A8
:10123000050163E283E00E94D802E0914604F09148
:101240004704828193810E94050163E284E00E9449
:10125000D802E0914604F0914704848195810E9470
:10126000050163E285E00E94D802E0914604F09116
:101270004704868197810E94050163E286E00E940F
:10128000D802E0914604F0914704808591850E9440
:10129000050163E287E00E94D802E0914604F091E4
:1012A0004704828593850E94050163E288E00E94DD
:1012B000D802E0914604F0914704848595850E9408
:1012C000050163E289E00E94D802E0914604F091B2
:1012D0004704868597850E94050163E28AE00E94A3
:1012E000D802E0914604F0914704808991890E94D8
:1012F0000501A0914604B0914704F8941196DC933F
:10130000CE9352968D919C915397181619064CF5D1
:10131000E0914804F091490412962D913C91139765
:10132000129FC001139F900D1124E80FF91FD7835E
:10133000C68390E080E0FC01EE0FFF1FEA0FFB1F69
:10134000248135813383228301968730910599F773
:1013500052968D919C915397019753969C938E939F
:10136000529778940FCF80914604909147040E9441
:101370008408A0914604B0914704F89481E090E07D
:1013800011969C938E9352962D913C9153971216E1
:10139000130654F5E0914804F091490412964D91DA
:1013A0005C9113976FE1649F9001659F300D11244C
:1013B000E20FF31F9783868390E080E0FC01EE0F3D
:1013C000FF1FEA0FFB1F248135813383228301969F
:1013D0008730910599F752968D919C91539701977B
:1013E00053969C938E935297789408956150710907
:1013F0001616170684F430E020E0F901EE0FFF1F07
:10140000E80FF91F44815581538342832F5F3F4F7B
:101410002617370794F30895DC01F89481E090E0F3
:1014200011969C938E9352962D913C915397121640
:1014300013065CF5E0914804F091490412964D9131
:101440005C9113976FE1649F9001659F300D1124AB
:10145000E20FF31F9783868330E020E0F901EE0F5F
:10146000FF1FEA0FFB1F84819581938382832F5F87
:101470003F4F2730310591F752968D919C915397AC
:10148000019753969C938E9352977894089508955C
:101490000895F894FC012081318121503109318374
:1014A000208378940895F894FC01208131812F5F86
:1014B0003F4F318320837894089508950895CF9302
:1014C000DF93D0E0C0E087E30E943803CE01CB3049
:1014D000D1050CF4B9C09C012B5031092A303105DB
:1014E00008F45BC09C01255131092A30310508F40C
:1014F000D2C09C012F5131092A30310508F432C184
:1015000089970A9708F4D5C1E39709F060C260E0B3
:101510008AE10E94D80284E492E00E94C60060E062
:101520008BE10E94D80284E492E00E94C60060E051
:101530008CE10E94D80284E492E00E94C60060E040
:101540008DE10E94D80284E492E00E94C60060E02F
:101550008EE10E94D80284E492E00E94C60060E01E
:101560008FE10E94D80284E492E00E94C60060E00D
:1015700080E20E94D80284E492E00E94C60087E3E1
:101580000E94380384E390E0C4E3D0E09C012B5038
:1015900031092A30310508F0A5CF60E08AE10E94C8
:1015A000D8028BE693E00E94C60060E08BE10E94C7
:1015B000D8028AE493E00E94C60060E08CE10E94B9
:1015C000D80282E593E00E94C60060E08DE10E94AF
:1015D000D8028AE593E00E94C60060E08EE10E9496
:1015E000D80287E693E00E94C60086E30E94380393
:1015F00087E893E00E94C60087E30E94380387E6ED
:1016000093E00E94C60060E08FE10E94D8028AE564
:1016100093E00E94C60060E080E20E94D80282E56A
:1016200093E00E94C60060E081E20E94D8028AE452
:1016300093E00E94C600219687E30E943803CE0102
:10164000CB30D1050CF047CF60E08AE10E94D80290
:101650008DE392E00E94C60060E08BE10E94D80218
:101660008AE493E00E94C60060E08CE10E94D80208
:1016700082E593E00E94C60060E08DE10E94D802FE
:101680008AE593E00E94C60060E08EE10E94D802E5
:1016900083E693E0B6CF60E08AE10E94D8028DE352
:1016A00092E00E94C60060E08BE10E94D8028AE4CA
:1016B00093E00E94C60060E08CE10E94D80282E5BF
:1016C00093E00E94C60060E08DE10E94D80285E7A9
:1016D00093E00E94C60086E30E94380387E893E007
:1016E0000E94C60087E30E94380385E593E00E94CC
:1016F000C60060E08EE10E94D80286E793E00E9477
:10170000C60086E30E94380387E893E00E94C60083
:1017100087E30E9438038BE793E00E94C60086E3CC
:101720000E94380387E893E00E94C60087E30E9486
:10173000380386E793E00E94C60060E08FE10E94D4
:10174000D80285E793E00E94C60086E30E94380332
:1017500087E893E00E94C60087E30E94380385E58E
:1017600093E057CF60E08AE10E94D8028BE693E0D5
:101770000E94C60060E08BE10E94D8028AE493E0F8
:101780000E94C60060E08CE10E94D80289E793E0E5
:101790000E94C60086E30E94380387E893E00E9417
:1017A000C60087E30E94380386E593E00E94C600E6
:1017B00060E08DE10E94D8028AE793E00E94C600B3
:1017C00086E30E94380387E893E00E94C60087E31F
:1017D0000E9438038BE793E00E94C60086E30E94D4
:1017E000380387E893E00E94C60087E30E9438032D
:1017F00086E593E00E94C60060E08EE10E94D80278
:101800008BE793E00E94C60086E30E94380387E8D6
:1018100093E00E94C60087E30E94380387E693E0C6
:101820000E94C60086E30E94380387E893E00E9486
:10183000C60087E30E9438038BE793E00E94C6004E
:1018400060E08FE10E94D8028AE793E00E94C60020
:1018500086E30E94380387E893E00E94C60087E38E
:101860000E9438038BE793E00E94C60086E30E9443
:10187000380387E893E00E94C60087E30E9438039C
:1018800086E593E00E94C60060E080E20E94D802F4
:1018900089E793E00E94C60086E30E94380387E848
:1018A00093E00E94C60087E30E94380386E593E038
:1018B000B8CE60E08AE10E94D8028CE392E00E94F8
:1018C000C60060E08BE10E94D80286E30E943803E4
:1018D0008DE793E00E94C60060E08CE10E94D80290
:1018E00086E30E94380385E893E00E94C60087E300
:1018F0000E9438038BE793E00E94C60086E30E94B3
:10190000380388EC93E00E94C60060E08DE10E94FD
:10191000D80286E893E00E94C60087E30E9438035D
:1019200087E693E00E94C60086E30E94380388ECB5
:1019300093E00E94C60060E08EE10E94D80287E832
:1019400093E00E94C60087E30E94380385E693E097
:101950000E94C60086E30E94380387E893E00E9455
:10196000C60060E08FE10E94D80286E893E00E9402
:10197000C60087E30E94380387E693E00E94C60012
:1019800086E30E94380388EC93E00E94C60060E082
:1019900080E20E94D80285E893E00E94C60087E3B7
:1019A0000E9438038BE793E00E94C60086E30E9402
:1019B000380388EC93E00E94C60060E081E20E9458
:1019C000D8028DE793E00E94C60021967CCDDF917E
:1019D000CF910895C1E0D0E01FE18091460490913D
:1019E00047040E9484088FE19EE40197F1F700C04C
:1019F0000000A0914604B0914704F8941196DC933E
:101A0000CE9352968D919C915397181619064CF5CA
:101A1000E0914804F091490412962D913C9113975E
:101A2000129FC001139F900D1124E80FF91FD78357
:101A3000C68390E080E0FC01EE0FFF1FEA0FFB1F62
:101A4000248135813383228301968730910599F76C
:101A500052968D919C915397019753969C938E9398
:101A600052977894BACFCF93DF93D0E0C0E0CE0105
:101A7000CB30D1050CF4A5C09C012B5031092A3084
:101A8000310508F460C09C01255131092A30310527
:101A900008F4B6C09C012F5131092A30310508F4F1
:101AA000D6C089970A9708F401C1E39709F038C1B5
:101AB00060E082E00E94D80284E492E00E94C600C6
:101AC00060E083E00E94D80284E492E00E94C600B5
:101AD00060E084E00E94D80284E492E00E94C600A4
:101AE00060E085E00E94D80284E492E00E94C60093
:101AF00060E086E00E94D80284E492E00E94C60082
:101B000060E087E00E94D80284E492E00E94C60070
:101B100060E088E00E94D80284E492E00E94C6005F
:101B200060E089E00E94D80284E492E00E94C6004E
:101B300084E390E0C4E3D0E09C012B5031092A30CB
:101B4000310508F0A0CF60E082E00E94D8028AE46C
:101B500093E00E94C60060E083E00E94D80282E524
:101B600093E00E94C60060E084E00E94D8028AE50B
:101B700093E00E94C60060E085E00E94D80289E8F8
:101B800093E00E94C60060E086E00E94D8028AE5E9
:101B900093E00E94C60060E087E00E94D80282E5E0
:101BA00093E00E94C60060E088E00E94D8028AE4C8
:101BB00093E00E94C6002196CE01CB30D1050CF0F7
:101BC0005BCF60E082E00E94D8028AE493E00E944A
:101BD000C60060E083E00E94D80282E593E00E94A4
:101BE000C60060E084E00E94D8028AE593E00E948B
:101BF000C60060E085E00E94D80283E693E0C1CF92
:101C000060E082E00E94D8028AE493E00E94C6006D
:101C100060E083E00E94D80282E593E00E94C60063
:101C200060E084E00E94D80281E993E00E94C6004F
:101C300060E085E00E94D8028AE993E00E94C60035
:101C400060E086E00E94D80281E993E0A2CF60E0E4
:101C500082E00E94D8028AE493E00E94C60060E01D
:101C600083E00E94D80282EA93E00E94C60060E00E
:101C700084E00E94D8028AEA93E00E94C60060E0F5
:101C800085E00E94D80283EB93E00E94C60060E0EA
:101C900086E00E94D8028AEA93E00E94C60060E0D3
:101CA00087E00E94D80282EA93E07BCF60E082E086
:101CB0000E94D8028DE793E00E94C60060E083E0B6
:101CC0000E94D8028BEB93E00E94C60060E084E0A3
:101CD0000E94D80283EC93E00E94C60060E085E099
:101CE0000E94D8028CEC93E00E94C60060E086E07F
:101CF0000E94D80283EC93E00E94C60060E087E077
:101D00000E94D8028BEB93E00E94C60060E088E05E
:101D10000E94D8028DE793E00E94C6002196A7CECC
:101D2000DF91CF9108950E94330D0E94330D0E94E0
:101D3000330D0E94330D0C94330D089580914604A9
:101D4000909147040E948408809144049091450436
:101D50000A970CF4CEC160E080E00E94D80283E3D1
:101D60000E94380387E292E00E94C60080914404FA
:101D70009091450464E670E00E94AA10072E000CC2
:101D8000880B990B0E945D018FE292E00E94C600D1
:101D900060E082E00E94D8028DE492E00E94C600DA
:101DA000E0914804F0914904E750FF4F808190E0B2
:101DB0000E940501E0914804F0914904E750FF4F6B
:101DC0008081882309F41FC16AE0C62ED12CB12C72
:101DD000F12CE12CFEC0C70163E070E00E94AA1064
:101DE0009EE1899FC02D1124D8E1AD2E17E1912EDF
:101DF00006E1802E85E1782E94E1692E23E1522EB2
:101E000032E1432E41E1342E50E1252EDFE082E322
:101E10000E9438036C2F8D2F0E94D80281E692E039
:101E20000E94C600E0914804F0914904DFE1DE9D84
:101E30008001DF9D100D1124E00FF11F808190E0E3
:101E40000E9405016C2F822D0E94D8028DE692E03F
:101E50000E94C60080914804909149048C0D9D1DFC
:101E60000E94C6006C2F832D0E94D8028BE792E05F
:101E70000E94C600E0914804F0914904E00FF11F70
:101E80008789908D0E949C016C2F842D0E94D8021E
:101E900087E892E00E94C600E0914804F09149046E
:101EA000E00FF11F838D948D20853185821B930B6C
:101EB0000E94050185E992E00E94C6006C2F852DE5
:101EC0000E94D8028FE992E00E94C600E091480487
:101ED000F0914904E00FF11F858996890E94050160
:101EE00085E992E00E94C6006C2F862D0E94D802E0
:101EF0008CEA92E00E94C600E0914804F091490407
:101F0000E00FF11F808591850E949C016C2F872D29
:101F10000E94D80283EC92E00E94C600E09148043F
:101F2000F0914904E00FF11F818D928D0E949C0178
:101F30006C2F882D0E94D80280ED92E00E94C6008E
:101F4000E0914804F0914904E00FF11F838D948DD6
:101F50000E949C016C2F892D0E94D80284ED93E091
:101F60000E94C6008091480490914904FC01E85009
:101F7000FF4F2081D29F800D911D1124FC01828191
:101F800093810E9405016C2F8A2D0E94D80283EE56
:101F900093E00E94C6008091480490914904080F84
:101FA000191FF801868197810E945208FFEFEF1AEE
:101FB000FF0A81E2B80E9FE1C90ED11CE0914804EE
:101FC000F0914904E750FF4F80818E151F04D9F02E
:101FD000D4F083E0E816F1040CF0FDCECB2D3DE00B
:101FE000A32E4CE0942E5BE0852E6AE0762E79E0FD
:101FF000672EE8E05E2EF7E04F2EA6E03A2EB5E021
:102000002B2ED4E004CF63E283E20E94D80283EF58
:1020100093E00E94C600E0914604F091470482815B
:1020200093810E94050181E094E00E94C600E09146
:102030004604F0914704808191810E940501A0919E
:102040004604B0914704F89481E090E011969C9387
:102050008E9352962D913C91539712161306F4F0DD
:10206000789463E284E20E94D8028AE094E00E94BD
:10207000C600E0914604F0914704828193810E945A
:10208000050181E094E00E94C600E0914604F091D1
:102090004704808191810E94050150CEE09148045F
:1020A000F091490412964D915C9113976FE1649FF2
:1020B0009001659F300D1124E20FF31F97838683F3
:1020C00090E080E0FC01EE0FFF1FEA0FFB1F248170
:1020D00035813383228301968730910599F7529693
:1020E0008D919C915397019753969C938E93529701
:1020F000B7CF0E94D8032FCECF93DF9300D01F928B
:10210000CDB7DEB7109245041092440484E190E00C
:102110009C838B8381E090E09A8389830E94790677
:1021200028EC30E0AE014D5F5F4F6FEB78E086E06A
:1021300092E00E94F40528EC30E0AE014F5F5F4F63
:1021400063EB79E08EE092E00E94F4050E94A30721
:102150007894FFCF97FB072E16F4009407D077FDF5
:1021600009D00E94BE1007FC05D03EF490958195E1
:102170009F4F0895709561957F4F0895AA1BBB1BD3
:1021800051E107C0AA1FBB1FA617B70710F0A61B77
:10219000B70B881F991F5A95A9F780959095BC0198
:1021A000CD0108950F931F93CF93DF938230910554
:1021B00010F482E090E0E0914E04F0914F0430E0A2
:1021C00020E0B0E0A0E0309799F42115310509F442
:1021D0004AC0281B390B24303105D8F58A819B81F0
:1021E0006115710589F1FB0193838283FE0111C0A2
:1021F000408151810281138148175907E0F0481747
:10220000590799F4109761F012960C931297139650
:102210001C933296CF01DF91CF911F910F910895BA
:1022200000934E0410934F04F4CF2115310551F063
:102230004217530738F0A901DB019A01BD01DF0104
:10224000F801C1CFEF01F9CF90934F0480934E0472
:10225000CDCFFE01E20FF31F8193919322503109FC
:1022600039832883D7CF20914C0430914D04232B00
:1022700041F4209102023091030230934D042093E7
:102280004C0420910002309101022115310541F4E6
:102290002DB73EB74091040250910502241B350B27
:1022A000E0914C04F0914D04E217F307A0F42E1BCB
:1022B0003F0B2817390778F0AC014E5F5F4F2417AA
:1022C000350748F04E0F5F1F50934D0440934C0468
:1022D000819391939FCFF0E0E0E09CCFCF93DF9389
:1022E0000097E9F0FC01329713821282A0914E040C
:1022F000B0914F04ED0130E020E01097A1F420816F
:102300003181820F931F20914C0430914D04281786
:10231000390709F061C0F0934D04E0934C04DF915C
:10232000CF910895EA01CE17DF07E8F54A815B8176
:102330009E0141155105B1F7E901FB83EA834991FB
:102340005991C40FD51FEC17FD0761F4808191816D
:102350000296840F951FE901998388838281938176
:102360009B838A83F0E0E0E012968D919C91139715
:102370000097B9F52D913C911197CD010296820FEE
:10238000931F20914C0430914D042817390739F6DA
:10239000309751F510924F0410924E04B0934D04B3
:1023A000A0934C04BCCFD383C28340815181840F5E
:1023B000951FC817D90761F44E5F5F4F88819981D7
:1023C000480F591F518340838A819B819383828365
:1023D0002115310509F0B0CFF0934F04E0934E047E
:1023E0009ECFFD01DC01C0CF13821282D7CFFB014B
:1023F000DC0102C001900D9241505040D8F7089581
:04240000F894FFCF7E
:102404000000500420007072696E747474006E6F62
:102414007468696E67003031323334353637383991
:102424004142434445460054696D65723A20002098
:102434002020202020202020202020202020202098
:10244400202020202020202020202020004E756DD8
:10245400626572206F6620546872656164733A2005
:10246400005468726561642049643A2000546872BB
:10247400656164206E616D653A200054687265611F
:10248400642050433A2000537461636B2055736198
:1024940067653A2000206279746573202020005318
:1024A4007461636B2053697A653A200043757272D4
:1024B400656E7420746F70206F6620737461636B33
:1024C4003A2000537461636B20626173653A2000A3
:1024D400537461636B20656E643A20006D61696EAC
:1024E400005448524541445F5245414459202020FC
:1024F400005448524541445F57414954494E47208E
:10250400005448524541445F52554E4E494E47206F
:1025140020005448524541445F534C454550494E70
:102524004700746872656164206E616D653A2000CD
:102534007468726561642073746174653A2000770D
:10254400616974696E67203D2000202020232020CB
:10255400200020202323232020002023232323239F
:102564002020002323232323232300434F4E5355AA
:102574004D494E4700202323002020230020202003
:102584003020202000202030002323233023232345
:10259400002023233023232020002323302330232F
:1025A4002300202023302320200020233023302325
:1025B4002020002330232323302300202030233005
:1025C4002020002030232323302020003023232305
:1025D4002323300053636865642E20436F756E7443
:1025E4003A20005468726561642053746174757391
:1025F4003A2000776169746C6973745B305D3A20CA
:10260400002D206C6F636B3A2000776169746C69EC
:1026140073745B305D706F737420756E6C6F636B75
:042624003A20000058
:00000001FF
