:100000000C947A000C949B000C949B000C949B0025
:100010000C949B000C949B000C949B000C949B00F4
:100020000C949B000C949B000C949B000C949B00E4
:100030000C949B000C949B000C949B000C949B00D4
:100040000C949B000C9463070C949B000C949B00F5
:100050000C949B000C943A080C949B000C949B000D
:100060000C949B000C949B000C949B000C949B00A4
:100070000C949B000C949B000C949B000C949B0094
:100080000C949B000C949B000C949B000C949B0084
:100090000C949B000C949B000C949B000C949B0074
:1000A0000C949B000C949B000C949B000C949B0064
:1000B0000C949B000C949B000C949B000C949B0054
:1000C0000C949B000C949B000C949B000C949B0044
:1000D0000C949B000C949B000C949B000C949B0034
:1000E0000C949B000C940D0A0C94EE050C94C81013
:1000F0000C941B0911241FBECFEFD1E2DEBFCDBF90
:1001000000E00CBF14E0A0E0B2E0ECE9F4E200E0B3
:100110000BBF02C007900D92AE31B107D9F724E0B2
:10012000AEE1B4E001C01D92AA34B207E1F70E942B
:10013000C8100C944C120C94000082E08093C00014
:100140001092C50080E18093C400E1ECF0E0808172
:100150008861808308958091C000881F8827881F48
:1001600008958091C00087FF03C08091C600089564
:100170008FEF08959091C10095FDFCCF9091C00044
:1001800095FFF8CF8093C60081E00895FC0120819F
:10019000222371F031969091C10095FDFCCF909192
:1001A000C00095FFF8CF2093C60021912111F3CF15
:1001B00008950F931F93CF93DF93CB0110923D04CB
:1001C00018161906DCF4EDE3F4E0CEE1D4E0C095B6
:1001D000D0950AE010E09E012E0F3F1FB8010E944B
:1001E000F610805D8293CB010097A9F7C901825E6A
:1001F0009B4FDF91CF911F910F9108958EE194E075
:10020000DF91CF911F910F910895EF92FF920F937D
:100210001F93CF93DF930097B1F110923D0418160E
:1002200019060CF043C0CDE3D4E00EE114E00095D4
:1002300010952AE0E22EF12CF801EC0FFD1FB7011A
:100240000E94F61020E3280F2A93CB010097A1F714
:10025000E25EFB4F31969091C10095FDFCCF9091ED
:10026000C00095FFF8CF2093C60021912111F3CF54
:10027000DF91CF911F910F91FF90EF9008958091A2
:10028000C00085FD09C08091C10085FFF8CF809135
:10029000C10085FDF8CFF3CF80E38093C600DF91E6
:1002A000CF911F910F91FF90EF90089520911E0420
:1002B0002223A9F3EEE1F4E0CDCFEF92FF920F936A
:1002C0001F93CF93DF93CB0110923D0418161906AC
:1002D00064F5CDE3D4E00EE114E0009510952AE03A
:1002E000E22EF12CF801EC0FFD1FB7010E94F61071
:1002F00020E3280F2A93CB010097A1F7E25EFB4F82
:1003000031969091C10095FDFCCF9091C00095FF72
:10031000F8CF2093C60021912111F3CFDF91CF9127
:100320001F910F91FF90EF90089520911E042223BA
:10033000A9F3EEE1F4E0E4CFCF92DF92EF92FF92E7
:100340000F931F93CF93DF93CDB7DEB7E1970FB62F
:10035000F894DEBF0FBECDBF21E1E6E1F2E0DE01A1
:10036000919601900D922A95E1F79E012F5F3F4FE4
:10037000690120E2D6011D922A95E9F7FE01B096A7
:100380000EEF1FEF0C191D09A8014E0F5F1FBA01D8
:1003900031979C012F70307837FF06C0215031090A
:1003A000206F3F6F2F5F3F4FA1E2EA2EF12CEC0E42
:1003B000FD1E2E0D3F1DD9012C91208397FD0F9618
:1003C0009595879595958795959587959595879515
:1003D00018161906CCF28091C10085FDFCCF8091E2
:1003E000C00085FFF8CF80E38093C6008091C100F4
:1003F00085FDFCCF8091C00085FFF8CF88E7809312
:10040000C6004B3151057CF04F5F5F4FF601E40FA2
:10041000F51F9601255E3F4F80E38293E217F307B5
:10042000E1F76AE170E0FE01E60FF71F9281992380
:1004300091F06E5F7F4FD601A60FB71F8091C1006C
:1004400085FDFCCF8091C00085FFF8CF9093C6005A
:100450009D919111F3CFE1960FB6F894DEBF0FBED8
:10046000CDBFDF91CF911F910F91FF90EF90DF9063
:10047000CF900895CF92DF92EF92FF920F931F9348
:10048000CF93DF93CDB7DEB7E1970FB6F894DEBF19
:100490000FBECDBF21E1E6E1F2E0DE0191960190D1
:1004A0000D922A95E1F79E012F5F3F4F690120E2EF
:1004B000D6011D922A95E9F7DE0190960EEF1FEF07
:1004C0000C191D0998012A0F3B1FA9011197CB0197
:1004D0008F70907897FF04C00197806F9F6F01968F
:1004E000E1E2F0E0EC0FFD1F8E0F9F1FFC01808109
:1004F0008C9377FF02C0615F7F4F75956795759507
:100500006795759567957595679516161706D4F2D4
:100510008091C10085FDFCCF8091C00085FFF8CFA0
:1005200080E38093C6008091C10085FDFCCF80915F
:10053000C00085FFF8CF88E78093C6002B313105D6
:100540007CF02F5F3F4FD601A20FB31F9601255EAF
:100550003F4F80E38E93A217B307E1F74AE150E0E3
:10056000DE01A40FB51F12969C91992391F04E5F66
:100570005F4FF601E40FF51F8091C10085FDFCCFB0
:100580008091C00085FFF8CF9093C60091919111A2
:10059000F3CFE1960FB6F894DEBF0FBECDBFDF916B
:1005A000CF911F910F91FF90EF90DF90CF90089522
:1005B0000F931F93CF93DF93C62F282F30E0C901ED
:1005C0002115310561F0EDE3F4E00AE010E0B80137
:1005D0000E94F610805D8293CB010097C1F7D0E0B6
:1005E000CE0110923D04209761F0EDE3F4E00AE0C3
:1005F00010E0B8010E94F610805D8293CB01009755
:10060000C1F79091C10095FDFCCF8091C00085FF9E
:10061000F8CF8BE18093C6009091C10095FDFCCF8F
:100620008091C00085FFF8CF8BE58093C600C9019B
:100630000E9405018091C10085FDFCCF8091C00022
:1006400085FFF8CF8BE38093C600CE010E940501A1
:100650008091C10085FDFCCF8091C00085FFF8CF5F
:1006600088E48093C600DF91CF911F910F91089588
:100670009091C10095FDFCCF9091C00095FFF8CFFF
:100680009BE19093C6009091C10095FDFCCF9091A5
:10069000C00095FFF8CF9BE59093C6009091C100F4
:1006A00095FDFCCF9091C00095FFF8CF93E3909318
:1006B000C6009091C10095FDFCCF9091C00095FFC0
:1006C000F8CF8093C6008091C10085FDFCCF80915A
:1006D000C00085FFF8CF8DE68093C6000895F0E056
:1006E000E4E2508160E86083E5E2508160E8608385
:1006F0000895F0E0E4E2508160E86083E5E2508133
:1007000060E060830895181619066CF430E020E06C
:10071000EFE9FFE03197F1F700C000002F5F3F4F96
:1007200082179307A9F70895FC01208131818091F8
:10073000C0004FEF87FD4091C600F0E0E4E2508139
:1007400060E86083E5E2508160E86083121613067A
:1007500064F490E080E0EFE9FFE03197F1F700C04A
:100760000000019628173907B1F7F0E0E4E2508164
:1007700060E86083E5E2508160E060831216130652
:1007800064F490E080E0EFE9FFE03197F1F700C01A
:100790000000019628173907B1F7413631F04A3782
:1007A00009F0C5CF2C5E3F4FC2CF24513109BFCFD6
:1007B0008091C10085FDFCCF8091C00085FFF8CFFE
:1007C0008BE18093C6008091C10085FDFCCF8091B4
:1007D000C00085FFF8CF8BE58093C6008091C100F3
:1007E00085FDFCCF8091C00085FFF8CF82E3809328
:1007F000C6008091C10085FDFCCF8091C00085FFBF
:10080000F8CF8AE48093C6000895FFCFE4E68E2EE9
:10081000912CFFE1CF2E80913E0490913F040A97E6
:100820000CF4D9C160E080E00E94D80283E30E940A
:100830003803E8E2F2E094E58091C10085FDFCCF49
:100840008091C00085FFF8CF9093C60091919111DF
:10085000F3CF80913E0490913F04B4010E94F610C2
:10086000072E000C880B990B0E945D01E0E3F2E07B
:1008700090E28091C10085FDFCCF8091C00085FF92
:10088000F8CF9093C60091919111F3CF60E082E090
:100890000E94D802EEE4F2E09EE48091C10085FD62
:1008A000FCCF8091C00085FFF8CF9093C600919156
:1008B0009111F3CFE0914204F0914304E750FF4FD0
:1008C000808190E00E940501E0914204F091430490
:1008D000E750FF4F8081882309F49DCF0AE010E0A4
:1008E000D0E0C0E074E0D72E82E30E943803EE240B
:1008F000E394ED0C60E08D2D0E94D802E2E6F2E078
:1009000094E58091C10085FDFCCF8091C00085FFFA
:10091000F8CF9093C60091919111F3CFE0914204EA
:10092000F0914304CC9EC001CD9E900D1124E80FA0
:10093000F91F808190E00E94050162E0F62EFD0C17
:1009400060E08E2D0E94D802EEE6F2E094E5809100
:10095000C10085FDFCCF8091C00085FFF8CF90934A
:10096000C60091919111F3CFE0914204F0914304BC
:10097000E00FF11F9081992371F031968091C100B1
:1009800085FDFCCF8091C00085FFF8CF9093C60015
:1009900091919111F3CF53E0E52EED0C60E08F2D96
:1009A0000E94D802ECE7F2E094E58091C10085FD59
:1009B000FCCF8091C00085FFF8CF9093C600919145
:1009C0009111F3CFE0914204F0914304CC9EC00119
:1009D000CD9E900D1124E80FF91F8789908D0E94FC
:1009E0009C0144E0A42EAD0C60E08E2D0E94D80244
:1009F000E8E8F2E093E58091C10085FDFCCF8091AD
:100A0000C00085FFF8CF9093C60091919111F3CF6C
:100A1000E0914204F0914304CC9EC001CD9E900D24
:100A20001124E80FF91F838D948D20853185821B59
:100A3000930B0E94050136E9E32E32E0F32EF70115
:100A400090E28091C10085FDFCCF8091C00085FFC0
:100A5000F8CF9093C60091919111F3CF25E0B22E7B
:100A6000BD0C60E08A2D0E94D802E0EAF2E093E536
:100A70008091C10085FDFCCF8091C00085FFF8CF3B
:100A80009093C60091919111F3CFE0914204F091BF
:100A90004304CC9EC001CD9E900D1124E80FF91F98
:100AA000858996890E94050190E28091C10085FDAB
:100AB000FCCF8091C00085FFF8CF9093C600F7016E
:100AC00091917F019111F1CF96E0E92EED0C60E05C
:100AD0008B2D0E94D802EDEAF2E093E48091C100F0
:100AE00085FDFCCF8091C00085FFF8CF9093C600B4
:100AF00091919111F3CFE0914204F0914304CC9E87
:100B0000C001CD9E900D1124E80FF91F80859185BD
:100B10000E949C0187E0F82EFD0C60E08E2D0E9463
:100B2000D802E4ECF2E093E58091C10085FDFCCFB2
:100B30008091C00085FFF8CF9093C60091919111EC
:100B4000F3CFE0914204F0914304CC9EC001CD9ECE
:100B5000900D1124E80FF91F818D928D0E949C0148
:100B600060E08F2D0E94D802E1EDF2E093E58091E4
:100B7000C10085FDFCCF8091C00085FFF8CF909328
:100B8000C60091919111F3CFE0914204F09143049A
:100B9000CC9EC001CD9E900D1124E80FF91F838DCE
:100BA000948D0E949C01F9E0DF0E2196015E1F4F9B
:100BB000E0914204F0914304E750FF4F80818C178D
:100BC0001D0611F00CF090CE80913E0490913F04F0
:100BD0000A970CF027CE0E94D80324CE7894912F48
:100BE000802FFD2FEC2F09949F92AF92BF92CF924E
:100BF000DF92EF92FF920F931F93CF93DF937C01CD
:100C0000B62EC72EA42E952E8901C9010E941E1151
:100C1000EC012091420430914304F901E750FF4F69
:100C200090818FE1D82EF901D99EE00DF11D11249C
:100C3000D28FC18FAE01400F511F548F438F11824D
:100C4000128213821482158241E050E0578346835A
:100C5000A80146515109C40FD51FD68FC58F1882E0
:100C6000C982BA829B82AC821D821E821F82188634
:100C700019861A861B861C861D861E861F86188A64
:100C8000198A1A8A1B8A4EEE55E05C8B4D8B908335
:100C9000B78AC08EF70101900020E9F7AF01B901D2
:100CA0009D9D600D711D1124CB014E195F09B70187
:100CB0000A960E944312E0914204F0914304DF013E
:100CC000A750BF4F8C91D89EE00DF11D1124168BBB
:100CD000058BD187C0878F5F8C93DF91CF911F9158
:100CE0000F91FF90EF90DF90CF90BF90AF909F90CB
:100CF00008950E949D0089E091E00E941E1190934A
:100D0000430480934204FC01E850FF4F21E020831C
:100D10003196208386509F4FFC01108211821282EF
:100D2000138284E190E00E941E119093410480930D
:100D300040040C94D3080F931F93CF936091420407
:100D4000709143048B0108501F4FF801C081319608
:100D5000A081A150BB0B8C2F90E001968A179B07B6
:100D6000FCF481E08C0F9FE107C02F5F3F4F8F5F46
:100D70002A173B070CF080E0282F30E0FB01989FFA
:100D8000E00DF11D1124468157814130510569F76D
:100D90008C1759F3F8018083CF911F910F9108951B
:100DA00080E0E1CF0F931F93CF93DF93A091420494
:100DB000B0914304BD0168507F4FFB0180818730B3
:100DC00009F480E0FD01E750FF4F40814150550B91
:100DD0009FE1949FE001959FD00D1124CA0FDB1F66
:100DE00026968D01045C1E4F282F30E0241735070E
:100DF00094F4929FF001939FF00D1124EA0FFB1FD2
:100E0000268137812130310509F18F5F282F30E0AD
:100E10002417350774F342175307B9F7288139812E
:100E20002130310591F341155105C9F01696ED9128
:100E3000FC91179730E020E080E0319761F7FB01EB
:100E40008083DF91CF911F910F9108958A3089F0AF
:100E5000FB018083DF91CF911F910F91089516962A
:100E60002D913C91179721303105C9F780E08F5FB4
:100E7000CDCF4B3051056CF0F8012081318121300C
:100E8000310519F6208131812130310591F38F5FD1
:100E9000BDCF2AE030E0BFCF20914204309143041F
:100EA000F901E850FF4F808127503F4FD9012C9125
:100EB0002150330B821713061CF0108280E0089536
:100EC0008F5F808308951F920F920FB60F921124A7
:100ED0000F900FBE0F901F901895EEE6F0E0808106
:100EE0008260808384B5826084BD85B5856085BD60
:100EF0008CE987BD89E09DE3909389008093880009
:100F0000EFE6F0E0808182608083E1E8F0E08081BC
:100F10008D60808308952F923F924F925F926F92DF
:100F20007F928F929F92AF92BF92CF92DF92EF9279
:100F3000FF920F931F93CF93DF93F0E0EEE52081B4
:100F4000EDE53081F72FE62F31932083F92FE82F3D
:100F500051916081F0E0EEE56083EDE55083DF9133
:100F6000CF911F910F91FF90EF90DF90CF90BF90A6
:100F7000AF909F908F907F906F905F904F903F9039
:100F80002F9008952091420430914304F901E850D4
:100F9000FF4F4081D901A750BF4F8C918150990BD1
:100FA00048171906DCF0108288E090E070E060E0FD
:100FB0005FE1569FF001579FF00D1124E20FF31FE0
:100FC00017821682B901459F600D711D1124685F5B
:100FD0007F4F820F931F0E948B07089581E0840F3B
:100FE0008083682F70E05FE1859FC001112408961F
:100FF000DFCFCF93DF9300D01F921F92CDB7DEB724
:1010000085E0ECEDF2E0DE01119601900D928A95FB
:10101000E1F70E946D077894809142049091430417
:10102000FC01128E118E148E138E168E158E108268
:1010300028EC30E1308F278B25E0FE013196DC0172
:101040001A9601900D922A95E1F7FC01168A158AED
:1010500021E030E037832683BC01685F7F4F8796AD
:101060000E948B070F900F900F900F900F90DF91C1
:10107000CF9108951F920F920FB60F9211240BB6C5
:101080000F92EF92FF920F931F932F933F934F93E3
:101090005F936F937F938F939F93AF93BF93CF9300
:1010A000DF93EF93FF93C0914204D0914304FE017C
:1010B000E850FF4FF0802FE1DE012F9DA00DB11D04
:1010C000112481E090E017969C938E931697DE0191
:1010D000A750BF4F8C918150990BF8161906F4F167
:1010E000108208E010E090E080E02FE1E22EE89E20
:1010F000F001E99EF00D1124EC0FFD1F17821682FE
:1011000080913E0490913F04019690933F04809318
:101110003E04BE01FE9C600D711D1124685F7F4F6F
:10112000CE01800F911F0E948B07FF91EF91DF91FD
:10113000CF91BF91AF919F918F917F916F915F916F
:101140004F913F912F911F910F91FF90EF900F9032
:101150000BBE0F900FBE0F901F90189501E00F0D62
:101160000083802F90E0029F80011124085F1F4FB1
:10117000BCCF8130910599F070F08230910519F063
:10118000039729F008958CE093E00C94C6008EEE4E
:1011900092E00C94C6008DEF92E00C94C60081EEB4
:1011A00092E00C94C600FC0181E090E09183808382
:1011B000138A128A1382128215821482178216826F
:1011C0001186108613861286158614861786168653
:1011D000118A108A0895FC01F89480819181181673
:1011E000190624F411821082789408952091420403
:1011F00030914304D901A850BF4F4C918289938903
:101200000196938B828B50E0880F991FE80FF91F8E
:10121000518340836FE1649FC001659F900D11244D
:10122000280F391F83E090E0F901978386830E949D
:10123000C20778940895C1E0D0E01FE18091400496
:10124000909141040E94EB0860E082E00E94D80285
:101250008CE193E00E94C600809142049091430487
:1012600089960E94C60060E083E00E94D8028AE26C
:1012700093E00E94C600E0914204F091430485A1EE
:1012800096A10E94B90860E085E00E94D8028CE136
:1012900093E00E94C6008091420490914304885BD1
:1012A0009F4F0E94C60060E086E00E94D8028AE25A
:1012B00093E00E94C600E0914204F0914304EC5B8D
:1012C000FF4F808191810E94B90863E282E00E9411
:1012D000D80289E393E00E94C600E0914004F091B7
:1012E0004104828993890E94050163E283E00E94A0
:1012F000D802E0914004F0914104828193810E94E0
:10130000050163E284E00E94D802E0914004F0917C
:101310004104848195810E94050163E285E00E9479
:10132000D802E0914004F0914104868197810E94A7
:10133000050163E286E00E94D802E0914004F0914A
:101340004104808591850E94050163E287E00E9447
:10135000D802E0914004F0914104828593850E9477
:10136000050163E288E00E94D802E0914004F09118
:101370004104848595850E94050163E289E00E940D
:10138000D802E0914004F0914104868597850E943F
:10139000050163E28AE00E94D802E0914004F091E6
:1013A0004104808991890E940501A0914004B09177
:1013B0004104F8941196DC93CE9352968D919C91B2
:1013C00053979C012150310953963C932E93529789
:1013D0001816190604F5E0914204F09143041296A0
:1013E0002D913C911397129FC001139F900D1124D2
:1013F000E80FF91FD783C68390E080E0FC01EE0F71
:10140000FF1FEA0FFB1F248135813383228301965E
:101410008730910599F7789411CF8091400490918D
:1014200041040E94EB08A0914004B0914104F8945B
:1014300021E030E011963C932E9352968D919C9131
:101440005397AC014150510953965C934E93529778
:10145000181619060CF5E0914204F0914304129617
:101460004D915C9113976FE1649FC001659F900D52
:101470001124E80FF91F3783268390E080E0FC01F8
:10148000EE0FFF1FEA0FFB1F248135813383228378
:1014900001968730910599F7789408956150710904
:1014A0001616170684F430E020E0F901EE0FFF1F56
:1014B000E80FF91F44815581538342832F5F3F4FCB
:1014C0002617370794F30895DC01F89421E030E003
:1014D00011963C932E9352968D919C915397AC010B
:1014E0004150510953965C934E9352971816190622
:1014F00014F5E0914204F091430412964D915C91F1
:1015000013976FE1649FC001659F900D1124E80F50
:10151000F91F3783268330E020E0F901EE0FFF1F2B
:10152000EA0FFB1F44815581538342832F5F3F4F56
:101530002730310591F77894089508950895F89427
:10154000FC0120813181215031093183208378943D
:101550000895F894FC01208131812F5F3F4F318342
:1015600020837894089508950895CF93DF93D0E071
:10157000C0E087E30E943803CE01CB30D1050CF4E4
:10158000B9C09C012B5031092A30310508F45BC0E9
:101590009C01255131092A30310508F4D2C09C0143
:1015A0002F5131092A30310508F432C189970A9741
:1015B00008F4D5C1E39709F060C260E08AE10E94B7
:1015C000D80284E492E00E94C60060E08BE10E94B1
:1015D000D80284E492E00E94C60060E08CE10E94A0
:1015E000D80284E492E00E94C60060E08DE10E948F
:1015F000D80284E492E00E94C60060E08EE10E947E
:10160000D80284E492E00E94C60060E08FE10E946C
:10161000D80284E492E00E94C60060E080E20E946A
:10162000D80284E492E00E94C60087E30E94380357
:1016300084E390E0C4E3D0E09C012B5031092A30D0
:10164000310508F0A5CF60E08AE10E94D80285E666
:1016500093E00E94C60060E08BE10E94D80284E41F
:1016600093E00E94C60060E08CE10E94D8028CE406
:1016700093E00E94C60060E08DE10E94D80284E5FC
:1016800093E00E94C60060E08EE10E94D80281E6ED
:1016900093E00E94C60086E30E94380381E893E04D
:1016A0000E94C60087E30E94380381E693E00E940F
:1016B000C60060E08FE10E94D80284E593E00E94BA
:1016C000C60060E080E20E94D8028CE493E00E94B1
:1016D000C60060E081E20E94D80284E493E00E94A8
:1016E000C600219687E30E943803CE01CB30D10596
:1016F0000CF047CF60E08AE10E94D8028DE392E0CF
:101700000E94C60060E08BE10E94D80284E493E06E
:101710000E94C60060E08CE10E94D8028CE493E055
:101720000E94C60060E08DE10E94D80284E593E04B
:101730000E94C60060E08EE10E94D8028DE593E031
:10174000B6CF60E08AE10E94D8028DE392E00E9469
:10175000C60060E08BE10E94D80284E493E00E941E
:10176000C60060E08CE10E94D8028CE493E00E9405
:10177000C60060E08DE10E94D8028FE693E00E94EF
:10178000C60086E30E94380381E893E00E94C60009
:1017900087E30E9438038FE493E00E94C60060E074
:1017A0008EE10E94D80280E793E00E94C60086E3A3
:1017B0000E94380381E893E00E94C60087E30E94FC
:1017C000380385E793E00E94C60086E30E94380351
:1017D00081E893E00E94C60087E30E94380380E717
:1017E00093E00E94C60060E08FE10E94D8028FE67D
:1017F00093E00E94C60086E30E94380381E893E0EC
:101800000E94C60087E30E9438038FE493E057CF1D
:1018100060E08AE10E94D80285E693E00E94C6005B
:1018200060E08BE10E94D80284E493E00E94C6004D
:1018300060E08CE10E94D80283E793E00E94C6003A
:1018400086E30E94380381E893E00E94C60087E3A4
:101850000E94380380E593E00E94C60060E08DE1BD
:101860000E94D80284E793E00E94C60086E30E94AB
:10187000380381E893E00E94C60087E30E943803A2
:1018800085E793E00E94C60086E30E94380381E862
:1018900093E00E94C60087E30E94380380E593E04E
:1018A0000E94C60060E08EE10E94D80285E793E0C6
:1018B0000E94C60086E30E94380381E893E00E94FC
:1018C000C60087E30E94380381E693E00E94C600C9
:1018D00086E30E94380381E893E00E94C60087E314
:1018E0000E94380385E793E00E94C60060E08FE124
:1018F0000E94D80284E793E00E94C60086E30E941B
:10190000380381E893E00E94C60087E30E94380311
:1019100085E793E00E94C60086E30E94380381E8D1
:1019200093E00E94C60087E30E94380380E593E0BD
:101930000E94C60060E080E20E94D80283E793E044
:101940000E94C60086E30E94380381E893E00E946B
:10195000C60087E30E94380380E593E0B8CE60E0DC
:101960008AE10E94D8028CE392E00E94C60060E007
:101970008BE10E94D80286E30E94380387E793E058
:101980000E94C60060E08CE10E94D80286E30E94BB
:1019900038038FE793E00E94C60087E30E94380374
:1019A00085E793E00E94C60086E30E94380382EC3C
:1019B00093E00E94C60060E08DE10E94D80280E8BA
:1019C00093E00E94C60087E30E94380381E693E01B
:1019D0000E94C60086E30E94380382EC93E00E94D6
:1019E000C60060E08EE10E94D80281E893E00E9488
:1019F000C60087E30E9438038FE593E00E94C6008B
:101A000086E30E94380381E893E00E94C60060E00C
:101A10008FE10E94D80280E893E00E94C60087E32D
:101A20000E94380381E693E00E94C60086E30E948C
:101A3000380382EC93E00E94C60060E080E20E94DE
:101A4000D8028FE793E00E94C60087E30E94380324
:101A500085E793E00E94C60086E30E94380382EC8B
:101A600093E00E94C60060E081E20E94D80287E70E
:101A700093E00E94C60021967CCDDF91CF9108951E
:101A8000C1E0D0E01FE180914004909141040E94A8
:101A9000EB08A0914004B0914104F8941196DC93B6
:101AA000CE9352968D919C9153979C012150310970
:101AB00053963C932E9352971816190604F5E0910D
:101AC0004204F091430412962D913C911397129F7A
:101AD000C001139F900D1124E80FF91FD783C6830F
:101AE00090E080E0FC01EE0FFF1FEA0FFB1F248156
:101AF00035813383228301968730910599F7789455
:101B0000C2CFCF93DF93D0E0C0E0CE01CB30D10580
:101B10000CF4A5C09C012B5031092A30310508F482
:101B200060C09C01255131092A30310508F4B6C046
:101B30009C012F5131092A30310508F4D6C089970C
:101B40000A9708F401C1E39709F038C160E082E028
:101B50000E94D80284E492E00E94C60060E083E024
:101B60000E94D80284E492E00E94C60060E084E013
:101B70000E94D80284E492E00E94C60060E085E002
:101B80000E94D80284E492E00E94C60060E086E0F1
:101B90000E94D80284E492E00E94C60060E087E0E0
:101BA0000E94D80284E492E00E94C60060E088E0CF
:101BB0000E94D80284E492E00E94C60060E089E0BE
:101BC0000E94D80284E492E00E94C60084E390E080
:101BD000C4E3D0E09C012B5031092A30310508F0D4
:101BE000A0CF60E082E00E94D80284E493E00E94EB
:101BF000C60060E083E00E94D8028CE493E00E947B
:101C0000C60060E084E00E94D80284E593E00E9470
:101C1000C60060E085E00E94D80283E893E00E945D
:101C2000C60060E086E00E94D80284E593E00E944E
:101C3000C60060E087E00E94D8028CE493E00E9436
:101C4000C60060E088E00E94D80284E493E00E942D
:101C5000C6002196CE01CB30D1050CF05BCF60E001
:101C600082E00E94D80284E493E00E94C60060E013
:101C700083E00E94D8028CE493E00E94C60060E0FA
:101C800084E00E94D80284E593E00E94C60060E0F0
:101C900085E00E94D8028DE593E0C1CF60E082E04C
:101CA0000E94D80284E493E00E94C60060E083E0D2
:101CB0000E94D8028CE493E00E94C60060E084E0B9
:101CC0000E94D8028BE893E00E94C60060E085E0A5
:101CD0000E94D80284E993E00E94C60060E086E09A
:101CE0000E94D8028BE893E0A2CF60E082E00E94DD
:101CF000D80284E493E00E94C60060E083E00E9482
:101D0000D8028CE993E00E94C60060E084E00E9463
:101D1000D80284EA93E00E94C60060E085E00E9459
:101D2000D8028DEA93E00E94C60060E086E00E943F
:101D3000D80284EA93E00E94C60060E087E00E9437
:101D4000D8028CE993E07BCF60E082E00E94D80269
:101D500087E793E00E94C60060E083E00E94D8021B
:101D600085EB93E00E94C60060E084E00E94D80208
:101D70008DEB93E00E94C60060E085E00E94D802EF
:101D800086EC93E00E94C60060E086E00E94D802E4
:101D90008DEB93E00E94C60060E087E00E94D802CD
:101DA00085EB93E00E94C60060E088E00E94D802C4
:101DB00087E793E00E94C6002196A7CEDF91CF91DE
:101DC00008950E94810D0E94810D0E94810D0E9444
:101DD000810D0C94810D08958091400490914104EF
:101DE0000E94EB0880913E0490913F040A970CF406
:101DF000CCC160E080E00E94D80283E30E943803F7
:101E000087E292E00E94C60080913E0490913F04D8
:101E100064E670E00E94F610072E000C880B990B08
:101E20000E945D018FE292E00E94C60060E082E0C5
:101E30000E94D8028DE492E00E94C600E091420424
:101E4000F0914304E750FF4F808190E00E9405012C
:101E5000E0914204F0914304E750FF4F80818823D2
:101E600009F41FC16AE0C62ED12CB12CF12CE12C53
:101E7000FEC0C70163E070E00E94F6109EE1899FFA
:101E8000C02D1124D8E1AD2E17E1912E06E1802E50
:101E900085E1782E94E1692E23E1522E32E1432E22
:101EA00041E1342E50E1252EDFE082E30E94380329
:101EB0006C2F8D2F0E94D80281E692E00E94C6000E
:101EC000E0914204F0914304DFE1DE9D8001DF9D5B
:101ED000100D1124E00FF11F808190E00E94050198
:101EE0006C2F822D0E94D8028DE692E00E94C600DF
:101EF00080914204909143048C0D9D1D0E94C60068
:101F00006C2F832D0E94D8028BE792E00E94C600BE
:101F1000E0914204F0914304E00FF11F8789908D16
:101F20000E949C016C2F842D0E94D80287E892E0C9
:101F30000E94C600E0914204F0914304E00FF11FBB
:101F4000838D948D20853185821B930B0E94050122
:101F500085E992E00E94C6006C2F852D0E94D80270
:101F60008FE992E00E94C600E0914204F0914304A0
:101F7000E00FF11F858996890E94050185E992E0AD
:101F80000E94C6006C2F862D0E94D8028CEA92E037
:101F90000E94C600E0914204F0914304E00FF11F5B
:101FA000808591850E949C016C2F872D0E94D8020C
:101FB00083EC92E00E94C600E0914204F091430459
:101FC000E00FF11F818D928D0E949C016C2F882D56
:101FD0000E94D80280ED92E00E94C600E091420487
:101FE000F0914304E00FF11F838D948D0E949C01BA
:101FF0006C2F892D0E94D8028EEC93E00E94C600BF
:102000008091420490914304FC01E850FF4F2081ED
:10201000D29F800D911D1124FC01828193810E9429
:1020200005016C2F8A2D0E94D8028DED93E00E944D
:10203000C6008091420490914304080F191FF801D3
:10204000868197810E94B908FFEFEF1AFF0A81E2AB
:10205000B80E9FE1C90ED11CE0914204F0914304F7
:10206000E750FF4F80818E151F04D9F0D4F083E034
:10207000E816F1040CF0FDCECB2D3DE0A32E4CE094
:10208000942E5BE0852E6AE0762E79E0672EE8E0FC
:102090005E2EF7E04F2EA6E03A2EB5E02B2ED4E0D0
:1020A00004CF63E283E20E94D8028DEE93E00E94A7
:1020B000C600E0914004F0914104828193810E9426
:1020C00005018BEF93E00E94C600E0914004F0917F
:1020D0004104808191810E940501A0914004B0914A
:1020E0004104F89421E030E011963C932E935296EF
:1020F0008D919C915397AC014150510953965C933B
:102100004E93529718161906F4F0789463E284E21D
:102110000E94D80284E094E00E94C600E09140044E
:10212000F0914104828193810E9405018BEF93E03D
:102130000E94C600E0914004F091410480819181A9
:102140000E94050149CEE0914204F09143041296A9
:102150004D915C9113976FE1649FC001659F900D55
:102160001124E80FF91F3783268390E080E0FC01FB
:10217000EE0FFF1FEA0FFB1F24813581338322837B
:1021800001968730910599F7C0CF0E94D80331CED0
:10219000CF93DF9300D01F92CDB7DEB710923F04EC
:1021A00010923E0484E190E09C838B8381E090E078
:1021B0009A8389830E94790628EC30E0AE014D5F56
:1021C0005F4F6BE179E086E092E00E94F40528EC35
:1021D00030E0AE014F5F5F4F6DE07AE08EE092E05D
:1021E0000E94F4050E94F9077894FFCF97FB072E11
:1021F00016F4009407D077FD09D00E940A1107FC5D
:1022000005D03EF4909581959F4F08957095619506
:102210007F4F0895AA1BBB1B51E107C0AA1FBB1F1C
:10222000A617B70710F0A61BB70B881F991F5A9562
:10223000A9F780959095BC01CD0108950F931F9348
:10224000CF93DF938230910510F482E090E0E0912B
:102250004804F091490430E020E0B0E0A0E030977D
:1022600099F42115310509F44AC0281B390B243093
:102270003105D8F58A819B816115710589F1FB01D2
:1022800093838283FE0111C04081518102811381B9
:1022900048175907E0F04817590799F4109761F06B
:1022A00012960C93129713961C933296CF01DF91DE
:1022B000CF911F910F910895009348041093490402
:1022C000F4CF2115310551F04217530738F0A90119
:1022D000DB019A01BD01DF01F801C1CFEF01F9CFA8
:1022E0009093490480934804CDCFFE01E20FF31F81
:1022F000819391932250310939832883D7CF20913C
:10230000460430914704232B41F42091020230917E
:102310000302309347042093460420910002309139
:1023200001022115310541F42DB73EB74091040259
:1023300050910502241B350BE0914604F0914704AF
:10234000E217F307A0F42E1B3F0B2817390778F08C
:10235000AC014E5F5F4F2417350748F04E0F5F1FEB
:102360005093470440934604819391939FCFF0E0AC
:10237000E0E09CCFCF93DF930097E9F0FC01329728
:1023800013821282A0914804B0914904ED0130E01B
:1023900020E01097A1F420813181820F931F2091BA
:1023A0004604309147042817390709F061C0F093BB
:1023B0004704E0934604DF91CF910895EA01CE17D8
:1023C000DF07E8F54A815B819E0141155105B1F7B0
:1023D000E901FB83EA8349915991C40FD51FEC179A
:1023E000FD0761F4808191810296840F951FE901B8
:1023F00099838883828193819B838A83F0E0E0E0E4
:1024000012968D919C9113970097B9F52D913C915F
:102410001197CD010296820F931F209146043091AF
:1024200047042817390739F6309751F510924904B7
:1024300010924804B0934704A0934604BCCFD383C2
:10244000C28340815181840F951FC817D90761F459
:102450004E5F5F4F88819981480F591F5183408398
:102460008A819B81938382832115310509F0B0CF46
:10247000F0934904E09348049ECFFD01DC01C0CFF6
:1024800013821282D7CFFB01DC0102C001900D92B2
:0C24900041505040D8F70895F894FFCF59
:10249C0000004A0420007072696E747474006E6FD0
:1024AC007468696E670030313233343536373839F9
:1024BC004142434445460054696D65723A20002000
:1024CC002020202020202020202020202020202000
:1024DC00202020202020202020202020004E756D40
:1024EC00626572206F6620546872656164733A206D
:1024FC00005468726561642049643A200054687223
:10250C00656164206E616D653A2000546872656186
:10251C00642050433A2000537461636B20557361FF
:10252C0067653A200020627974657320202000537F
:10253C007461636B2053697A653A2000437572723B
:10254C00656E7420746F70206F6620737461636B9A
:10255C003A2000537461636B20626173653A20000A
:10256C00537461636B20656E643A20006D61696E13
:10257C00005448524541445F524541445900544827
:10258C00524541445F57414954494E4700544852C3
:10259C004541445F52554E4E494E470054485245B2
:1025AC0041445F534C454550494E47007468726531
:1025BC006164206E616D653A2000746872656164B7
:1025CC002073746174653A200077616974696E6771
:1025DC00203D200020202023202020002020232309
:1025EC002320200020232323232320200023232304
:1025FC002323232300434F4E53554D494E47002070
:10260C002323002020230020202030202020002005
:10261C0020300023232330232323002023233023A3
:10262C002320200023233023302323002020233099
:10263C00232020002023302330232020002330238C
:10264C00232330230020203023302020002030236F
:10265C0023233020200030232323232330005363F3
:10266C006865642E20436F756E743A20005468724E
:10267C00656164205374617475733A2000776169E5
:10268C00746C6973745B305D3A20002D206C6F6341
:10269C006B3A2000776169746C6973745B305D70A0
:0E26AC006F737420756E6C6F636B3A200000C4
:00000001FF
