:100000000C947C000C949D000C949D000C949D001D
:100010000C949D000C949D000C949D000C949D00EC
:100020000C949D000C949D000C949D000C949D00DC
:100030000C949D000C949D000C949D000C949D00CC
:100040000C949D000C9454070C949D000C949D00FE
:100050000C949D000C9432080C949D000C949D000F
:100060000C949D000C949D000C949D000C949D009C
:100070000C949D000C949D000C949D000C949D008C
:100080000C949D000C949D000C949D000C949D007C
:100090000C949D000C949D000C949D000C949D006C
:1000A0000C949D000C949D000C949D000C949D005C
:1000B0000C949D000C949D000C949D000C949D004C
:1000C0000C949D000C949D000C949D000C949D003C
:1000D0000C949D000C949D000C949D000C949D002C
:1000E0000C949D000C94F0050C9496030C9407045A
:1000F0000C940E0F0C946F0D11241FBECFEFD1E2A4
:10010000DEBFCDBF00E00CBF13E0A0E0B2E0EEE642
:10011000F1E200E00BBF02C007900D92A63CB107D0
:10012000D9F723E0A6ECB3E001C01D92A23FB207CD
:10013000E1F70E940E0F0C94B5100C94000082E0C1
:100140008093C0001092C50080E18093C400E1EC70
:10015000F0E080818861808308958091C000881FCD
:100160008827881F08958091C00087FF03C0809171
:10017000C60008958FEF08959091C10095FDFCCFC2
:100180009091C00095FFF8CF8093C60081E008955C
:10019000FC012081222371F031969091C10095FDE0
:1001A000FCCF9091C00095FFF8CF2093C60021911D
:1001B0002111F3CF08950F931F93CF93DF93CB01BA
:1001C0001092E50318161906DCF4E5EEF3E0C6EC30
:1001D000D3E0C095D0950AE010E09E012E0F3F1F9E
:1001E000B8010E945F0F805D8293CB010097A9F751
:1001F000C9018A539C4FDF91CF911F910F910895B0
:1002000086EC93E0DF91CF911F910F910895EF92CB
:10021000FF920F931F93CF93DF930097B1F110924A
:10022000E503181619060CF043C0C5EED3E006EC42
:1002300013E0009510952AE0E22EF12CF801EC0F66
:10024000FD1FB7010E945F0F20E3280F2A93CB0107
:100250000097A1F7EA53FC4F31969091C10095FDAC
:10026000FCCF9091C00095FFF8CF2093C60021915C
:100270002111F3CFDF91CF911F910F91FF90EF905C
:1002800008958091C00085FD09C08091C10085FF5F
:10029000F8CF8091C10085FDF8CFF3CF80E3809344
:1002A000C600DF91CF911F910F91FF90EF900895BD
:1002B0002091C6032223A9F3E6ECF3E0CDCFEF9221
:1002C000FF920F931F93CF93DF93CB011092E5031F
:1002D0001816190664F5C5EED3E006EC13E0009598
:1002E00010952AE0E22EF12CF801EC0FFD1FB7016A
:1002F0000E945F0F20E3280F2A93CB010097A1F7FC
:10030000EA53FC4F31969091C10095FDFCCF90913E
:10031000C00095FFF8CF2093C60021912111F3CFA3
:10032000DF91CF911F910F91FF90EF900895209151
:10033000C6032223A9F3E6ECF3E0E4CFCF92DF92E9
:10034000EF92FF920F931F93CF93DF93CDB7DEB75A
:10035000E1970FB6F894DEBF0FBECDBF21E1E7E114
:10036000F2E0DE01919601900D922A95E1F79E014F
:100370002F5F3F4F690120E2D6011D922A95E9F7D0
:10038000FE01B0960EEF1FEF0C191D09A8014E0FCC
:100390005F1FBA0131979C012F70307837FF06C07C
:1003A00021503109206F3F6F2F5F3F4FA1E2EA2EAE
:1003B000F12CEC0EFD1E2E0D3F1DD9012C9120833A
:1003C00097FD0F9695958795959587959595879522
:1003D0009595879518161906CCF28091C10085FD78
:1003E000FCCF8091C00085FFF8CF80E38093C600EA
:1003F0008091C10085FDFCCF8091C00085FFF8CFC2
:1004000088E78093C6004B3151057CF04F5F5F4F0A
:10041000F601E40FF51F9601255E3F4F80E38293BE
:10042000E217F307E1F76AE170E0FE01E60FF71F5C
:100430009281992391F06E5F7F4FD601A60FB71F6F
:100440008091C10085FDFCCF8091C00085FFF8CF71
:100450009093C6009D919111F3CFE1960FB6F89459
:10046000DEBF0FBECDBFDF91CF911F910F91FF90E7
:10047000EF90DF90CF900895CF92DF92EF92FF92AE
:100480000F931F93CF93DF93CDB7DEB7E1970FB6EE
:10049000F894DEBF0FBECDBF21E1E7E1F2E0DE015F
:1004A000919601900D922A95E1F79E012F5F3F4FA3
:1004B000690120E2D6011D922A95E9F7DE019096A6
:1004C0000EEF1FEF0C191D0998012A0F3B1FA90100
:1004D0001197CB018F70907897FF04C00197806FC0
:1004E0009F6F0196E1E2F0E0EC0FFD1F8E0F9F1F62
:1004F000FC0180818C9377FF02C0615F7F4F75950F
:1005000067957595679575956795759567951616B1
:100510001706D4F28091C10085FDFCCF8091C00008
:1005200085FFF8CF80E38093C6008091C10085FDF0
:10053000FCCF8091C00085FFF8CF88E78093C6008C
:100540002B3131057CF02F5F3F4FD601A20FB31F37
:100550009601255E3F4F80E38E93A217B307E1F724
:100560004AE150E0DE01A40FB51F12969C91992339
:1005700091F04E5F5F4FF601E40FF51F8091C100CF
:1005800085FDFCCF8091C00085FFF8CF9093C60019
:1005900091919111F3CFE1960FB6F894DEBF0FBEA3
:1005A000CDBFDF91CF911F910F91FF90EF90DF9022
:1005B000CF9008950F931F93CF93DF93C62F282FCB
:1005C00030E0C9012115310561F0E5EEF3E00AE004
:1005D00010E0B8010E945F0F805D8293CB0100970D
:1005E000C1F7D0E0CE011092E503209761F0E5EE6F
:1005F000F3E00AE010E0B8010E945F0F805D829393
:10060000CB010097C1F79091C10095FDFCCF80917F
:10061000C00085FFF8CF8BE18093C6009091C100A8
:1006200095FDFCCF8091C00085FFF8CF8BE58093CE
:10063000C600C9010E9407018091C10085FDFCCF61
:100640008091C00085FFF8CF8BE38093C600CE0178
:100650000E9407018091C10085FDFCCF8091C00000
:1006600085FFF8CF88E48093C600DF91CF911F917A
:100670000F9108959091C10095FDFCCF9091C0001D
:1006800095FFF8CF9BE19093C6009091C10095FD36
:10069000FCCF9091C00095FFF8CF9BE59093C600EA
:1006A0009091C10095FDFCCF9091C00095FFF8CFCF
:1006B00093E39093C6009091C10095FDFCCF90917B
:1006C000C00095FFF8CF8093C6008091C10085FDE2
:1006D000FCCF8091C00085FFF8CF8DE68093C600E7
:1006E0000895F0E0E4E2508160E86083E5E2508143
:1006F00060E860830895F0E0E4E2508160E86083A0
:10070000E5E2508160E060830895181619066CF4E4
:1007100030E020E0EFE9FFE03197F1F700C00000A2
:100720002F5F3F4F82179307A9F70895FC0120819F
:1007300031818091C0004FEF87FD4091C600F0E00D
:10074000E4E2508160E86083E5E2508160E8608324
:100750001216130664F490E080E0EFE9FFE03197B1
:10076000F1F700C00000019628173907B1F7F0E053
:10077000E4E2508160E86083E5E2508160E06083FC
:100780001216130664F490E080E0EFE9FFE0319781
:10079000F1F700C00000019628173907B1F741367C
:1007A00031F04A3709F0C5CF2C5E3F4FC2CF2451FC
:1007B0003109BFCF8091C10085FDFCCF8091C00081
:1007C00085FFF8CF8BE18093C6008091C10085FD45
:1007D000FCCF8091C00085FFF8CF8BE58093C600E9
:1007E0008091C10085FDFCCF8091C00085FFF8CFCE
:1007F00082E38093C6008091C10085FDFCCF80918B
:10080000C00085FFF8CF8AE48093C6000895FFCF2B
:10081000E4E68E2E912CFFE1CF2E8091E60390919D
:10082000E7030A970CF4D9C160E080E00E94DA0285
:1008300083E30E943A03E9E2F2E094E58091C1008B
:1008400085FDFCCF8091C00085FFF8CF9093C60056
:1008500091919111F3CF8091E6039091E703B40158
:100860000E945F0F072E000C880B990B0E945F01FE
:10087000E1E3F2E090E28091C10085FDFCCF809140
:10088000C00085FFF8CF9093C60091919111F3CFEE
:1008900060E082E00E94DA02EFE4F2E09EE4809100
:1008A000C10085FDFCCF8091C00085FFF8CF9093FB
:1008B000C60091919111F3CFE091EA03F091EB031F
:1008C000E750FF4F808190E00E940701E091EA032A
:1008D000F091EB03E750FF4F8081882309F49DCF0F
:1008E0000AE010E0D0E0C0E074E0D72E82E30E947E
:1008F0003A03EE24E394ED0C60E08D2D0E94DA02C1
:10090000E3E6F2E094E58091C10085FDFCCF8091A3
:10091000C00085FFF8CF9093C60091919111F3CF5D
:10092000E091EA03F091EB03CC9EC001CD9E900DC7
:100930001124E80FF91F808190E00E94070162E016
:10094000F62EFD0C60E08E2D0E94DA02EFE6F2E05A
:1009500094E58091C10085FDFCCF8091C00085FFAA
:10096000F8CF9093C60091919111F3CFE091EA03F3
:10097000F091EB03E00FF11F9081992371F0319614
:100980008091C10085FDFCCF8091C00085FFF8CF2C
:100990009093C60091919111F3CF53E0E52EED0CA9
:1009A00060E08F2D0E94DA02EDE7F2E094E580919D
:1009B000C10085FDFCCF8091C00085FFF8CF9093EA
:1009C000C60091919111F3CFE091EA03F091EB030E
:1009D000CC9EC001CD9E900D1124E80FF91F878990
:1009E000908D0E949E0144E0A42EAD0C60E08E2DFF
:1009F0000E94DA02E9E8F2E093E58091C10085FD0A
:100A0000FCCF8091C00085FFF8CF9093C6009191F4
:100A10009111F3CFE091EA03F091EB03CC9EC0017A
:100A2000CD9E900D1124E80FF91F838D948D2085A4
:100A30003185821B930B0E94070137E9E32E32E0D8
:100A4000F32EF70190E28091C10085FDFCCF8091EB
:100A5000C00085FFF8CF9093C60091919111F3CF1C
:100A600025E0B22EBD0C60E08A2D0E94DA02E1EA98
:100A7000F2E093E58091C10085FDFCCF8091C0003C
:100A800085FFF8CF9093C60091919111F3CFE0913B
:100A9000EA03F091EB03CC9EC001CD9E900D112492
:100AA000E80FF91F858996890E94070190E28091DD
:100AB000C10085FDFCCF8091C00085FFF8CF9093E9
:100AC000C600F70191917F019111F1CF96E0E92ED7
:100AD000ED0C60E08B2D0E94DA02EEEAF2E093E486
:100AE0008091C10085FDFCCF8091C00085FFF8CFCB
:100AF0009093C60091919111F3CFE091EA03F091A8
:100B0000EB03CC9EC001CD9E900D1124E80FF91F80
:100B1000808591850E949E0187E0F82EFD0C60E0A3
:100B20008E2D0E94DA02E5ECF2E093E58091C1009F
:100B300085FDFCCF8091C00085FFF8CF9093C60063
:100B400091919111F3CFE091EA03F091EB03CC9EE8
:100B5000C001CD9E900D1124E80FF91F818D928D5B
:100B60000E949E0160E08F2D0E94DA02E2EDF2E029
:100B700093E58091C10085FDFCCF8091C00085FF89
:100B8000F8CF9093C60091919111F3CFE091EA03D1
:100B9000F091EB03CC9EC001CD9E900D1124E80F87
:100BA000F91F838D948D0E949E01F9E0DF0E21963E
:100BB000015E1F4FE091EA03F091EB03E750FF4F16
:100BC00080818C171D0611F00CF090CE8091E60309
:100BD0009091E7030A970CF027CE0E94DA0324CE07
:100BE0007894912F802FFD2FEC2F09949F92AF9234
:100BF000BF92CF92DF92EF92FF920F931F93CF930A
:100C0000DF937C01B62EC72EA42E952E8901C90133
:100C10000E94870FEC012091EA033091EB03F90168
:100C2000E750FF4F90818FE1D82EF901D99EE00D5A
:100C3000F11D1124D28FC18FAE01400F511F548F6F
:100C4000438F1182128213821482158241E050E098
:100C500057834683A80146515109C40FD51FD68F2B
:100C6000C58F1882C982BA829B82AC821D821E8285
:100C70001F82188619861A861B861C861D861E866C
:100C80001F86188A198A1A8A1B8A40EF55E05C8BE6
:100C90004D8B9083B78AC08EF70101900020E9F751
:100CA000AF01B9019D9D600D711D1124CB014E193D
:100CB0005F09B7010A960E94AC10E091EA03F09137
:100CC000EB03DF01A750BF4F8C91D89EE00DF11DC3
:100CD0001124168B058BD187C0878F5F8C93DF9192
:100CE000CF911F910F91FF90EF90DF90CF90BF9029
:100CF000AF909F9008950E949F0089E091E00E942C
:100D0000870F9093EB038093EA03FC01E850FF4FB9
:100D100021E020833196208386509F4FFC01108272
:100D200011821282138284E190E00E94870F9093D7
:100D3000E9038093E8030C94CB086091EA03709177
:100D4000EB03FB01E850FF4F80813196A081A15059
:100D5000BB0B282F30E02F5F3F4F8F5F2A173B07D9
:100D60000CF080E09FE107C02F5F3F4F8F5F2A1795
:100D70003B070CF080E0282F30E0FB01989FE00D4E
:100D8000F11D1124468157814130510569F70895BD
:100D90000F931F93CF93DF93A091EA03B091EB03DE
:100DA000BD0168507F4FFB018081873009F480E0EE
:100DB000FD01E750FF4F40814150550B9FE1949F4B
:100DC000E001959FD00D1124CA0FDB1F26968D01DF
:100DD000045C1E4F282F30E02417350794F4929FAF
:100DE000F001939FF00D1124EA0FFB1F268137813C
:100DF0002130310509F18F5F282F30E024173507A6
:100E000074F342175307B9F728813981213031052E
:100E100091F341155105C9F030E020E080E01696CD
:100E2000ED91FC911797319761F7FB018083DF917A
:100E3000CF911F910F9108958A3089F0FB01808333
:100E4000DF91CF911F910F9108951696ED91FC912E
:100E50001797E130F105E9F780E08F5FCDCF4B3098
:100E6000510544F0F8012081318121303105B9F379
:100E70008F5FC2CF2AE030E0C4CF2091EA033091E7
:100E8000EB03F901E850FF4F808127503F4FD90114
:100E90002C912150330B821713061CF0108280E036
:100EA00008958F5F808308951F920F920FB60F925F
:100EB00011240F900FBE0F901F901895EEE6F0E0F2
:100EC00080818260808384B5826084BD85B58560C1
:100ED00085BD8CE987BD89E09DE39093890080936F
:100EE0008800EFE6F0E0808182608083E1E8F0E056
:100EF00080818D60808308952F923F924F925F9200
:100F00006F927F928F929F92AF92BF92CF92DF9219
:100F1000EF92FF920F931F93CF93DF93F0E0EEE5F4
:100F20002081EDE53081F72FE62F31932083F92FD3
:100F3000E82F51916081F0E0EEE56083EDE55083AC
:100F4000DF91CF911F910F91FF90EF90DF90CF90A5
:100F5000BF90AF909F908F907F906F905F904F90D9
:100F60003F902F9008952091EA033091EB03F9010F
:100F7000E850FF4F40819FE1D901949FA00DB11D22
:100F8000112463E070E017967C936E931697D90155
:100F9000A750BF4F6C916150770B46171706DCF0D6
:100FA000108288E090E070E060E05FE1569FF00121
:100FB000579FF00D1124E20FF31F17821682B9011B
:100FC000459F600D711D1124685F7F4F820F931F35
:100FD0000E947C07089581E0840F8083682F70E071
:100FE000899FC00111240896E0CFCF93DF9300D0F2
:100FF0001F921F92CDB7DEB785E0EDEDF2E0DE0186
:10100000119601900D928A95E1F70E945E077894FF
:101010008091EA039091EB03FC01128E118E148EE5
:10102000138E168E158E10822EE03FE0308F278BA8
:1010300025E0FE013196DC011A9601900D922A9569
:10104000E1F7FC01168A158ABC01685F7F4F87961D
:101050000E947C070F900F900F900F900F90DF91E0
:10106000CF9108951F920F920FB60F9211240BB6D5
:101070000F92EF92FF920F931F932F933F934F93F3
:101080005F936F937F938F939F93AF93BF93CF9310
:10109000DF93EF93FF93C091EA03D091EB03FE013E
:1010A000E850FF4FF0802FE1DE012F9DA00DB11D14
:1010B000112481E090E017969C938E931697DE01A1
:1010C000A750BF4F8C918150990BF8161906F4F177
:1010D000108208E010E090E080E02FE1E22EE89E30
:1010E000F001E99EF00D1124EC0FFD1F178216820E
:1010F0008091E6039091E70301969093E703809334
:10110000E603BE01FE9C600D711D1124685F7F4FD8
:10111000CE01800F911F0E947C07FF91EF91DF911C
:10112000CF91BF91AF919F918F917F916F915F917F
:101130004F913F912F911F910F91FF90EF900F9042
:101140000BBE0F900FBE0F901F90189501E00F0D72
:101150000083802F90E0029F80011124085F1F4FC1
:10116000BCCF8130910599F070F08230910519F073
:10117000039729F008958DE093E00C94C8008FEE5A
:1011800092E00C94C8008EEF92E00C94C80082EEBE
:1011900092E00C94C80021E030E0FC013183208310
:1011A000138A128A0895FC01F8948081918118169F
:1011B000190624F41182108278940895A091EA030C
:1011C000B091EB03A850BF4F2C918289938901966F
:1011D000938B828B880F991FE80FF91F30E03183C2
:1011E00020830E94B30778940895623071056CF0F3
:1011F000FC013296660F771F860F971F228133817D
:1012000021933193E817F907C9F70895DC01F894A1
:1012100021E030E011963C932E9352968D919C9153
:101220005397AC014150510953965C934E9352979A
:1012300018161906E4F4E091EA03F091EB03129614
:101240004D915C9113976FE1649FC001659F900D74
:101250001124E80FF91F37832683FD01329650963B
:101260008281938181939193EA17FB07C9F7789460
:10127000089508950895CF93DF93D0E0C0E087E309
:101280000E943A03CE01CB30D1050CF4B9C09C01C9
:101290002B5031092A30310508F45BC09C012551DF
:1012A00031092A30310508F4D2C09C012F5131098F
:1012B0002A30310508F432C189970A9708F4D5C15C
:1012C000E39709F060C260E08AE10E94DA0285E4F7
:1012D00092E00E94C80060E08BE10E94DA0285E49F
:1012E00092E00E94C80060E08CE10E94DA0285E48E
:1012F00092E00E94C80060E08DE10E94DA0285E47D
:1013000092E00E94C80060E08EE10E94DA0285E46B
:1013100092E00E94C80060E08FE10E94DA0285E45A
:1013200092E00E94C80060E080E20E94DA0285E458
:1013300092E00E94C80087E30E943A0384E390E0B1
:10134000C4E3D0E09C012B5031092A30310508F06C
:10135000A5CF60E08AE10E94DA028EE393E00E946A
:10136000C80060E08BE10E94DA028DE193E00E9408
:10137000C80060E08CE10E94DA0285E293E00E94FE
:10138000C80060E08DE10E94DA028DE293E00E94E5
:10139000C80060E08EE10E94DA028AE393E00E94D6
:1013A000C80086E30E943A038AE593E00E94C800E1
:1013B00087E30E943A038AE393E00E94C80060E05A
:1013C0008FE10E94DA028DE293E00E94C80060E0A3
:1013D00080E20E94DA0285E293E00E94C80060E0A9
:1013E00081E20E94DA028DE193E00E94C80021961A
:1013F00087E30E943A03CE01CB30D1050CF047CFF2
:1014000060E08AE10E94DA028EE392E00E94C80066
:1014100060E08BE10E94DA028DE193E00E94C80057
:1014200060E08CE10E94DA0285E293E00E94C8004D
:1014300060E08DE10E94DA028DE293E00E94C80034
:1014400060E08EE10E94DA0286E393E0B6CF60E0CE
:101450008AE10E94DA028EE392E00E94C80060E016
:101460008BE10E94DA028DE193E00E94C80060E007
:101470008CE10E94DA0285E293E00E94C80060E0FD
:101480008DE10E94DA0288E493E00E94C80086E3BE
:101490000E943A038AE593E00E94C80087E30E9415
:1014A0003A0388E293E00E94C80060E08EE10E9467
:1014B000DA0289E493E00E94C80086E30E943A03BE
:1014C0008AE593E00E94C80087E30E943A038EE415
:1014D00093E00E94C80086E30E943A038AE593E005
:1014E0000E94C80087E30E943A0389E493E00E94C7
:1014F000C80060E08FE10E94DA0288E493E00E9475
:10150000C80086E30E943A038AE593E00E94C8007F
:1015100087E30E943A0388E293E057CF60E08AE1D4
:101520000E94DA028EE393E00E94C80060E08BE143
:101530000E94DA028DE193E00E94C80060E08CE135
:101540000E94DA028CE493E00E94C80086E30E94C5
:101550003A038AE593E00E94C80087E30E943A03B9
:1015600089E293E00E94C80060E08DE10E94DA0207
:101570008DE493E00E94C80086E30E943A038AE566
:1015800093E00E94C80087E30E943A038EE493E050
:101590000E94C80086E30E943A038AE593E00E9415
:1015A000C80087E30E943A0389E293E00E94C800E2
:1015B00060E08EE10E94DA028EE493E00E94C800AF
:1015C00086E30E943A038AE593E00E94C80087E31D
:1015D0000E943A038AE393E00E94C80086E30E94D7
:1015E0003A038AE593E00E94C80087E30E943A0329
:1015F0008EE493E00E94C80060E08FE10E94DA026E
:101600008DE493E00E94C80086E30E943A038AE5D5
:1016100093E00E94C80087E30E943A038EE493E0BF
:101620000E94C80086E30E943A038AE593E00E9484
:10163000C80087E30E943A0389E293E00E94C80051
:1016400060E080E20E94DA028CE493E00E94C8002D
:1016500086E30E943A038AE593E00E94C80087E38C
:101660000E943A0389E293E0B8CE60E08AE10E94EA
:10167000DA028DE392E00E94C80060E08BE10E94F4
:10168000DA0286E30E943A0380E593E00E94C800F4
:1016900060E08CE10E94DA0286E30E943A0388E56A
:1016A00093E00E94C80087E30E943A038EE493E02F
:1016B0000E94C80086E30E943A038BE993E00E94EF
:1016C000C80060E08DE10E94DA0289E593E00E94A3
:1016D000C80087E30E943A038AE393E00E94C800AF
:1016E00086E30E943A038BE993E00E94C80060E021
:1016F0008EE10E94DA028AE593E00E94C80087E347
:101700000E943A0388E393E00E94C80086E30E94A7
:101710003A038AE593E00E94C80060E08FE10E94EE
:10172000DA0289E593E00E94C80087E30E943A0349
:101730008AE393E00E94C80086E30E943A038BE9A3
:1017400093E00E94C80060E080E20E94DA0288E52F
:1017500093E00E94C80087E30E943A038EE493E07E
:101760000E94C80086E30E943A038BE993E00E943E
:10177000C80060E081E20E94DA0280E593E00E9406
:10178000C80021967CCDDF91CF910895C1E0D0E0D3
:101790001FE18091E8039091E9030E94D3080E9421
:1017A0003B09A091E803B091E903F8941196DC930A
:1017B000CE9352968D919C9153979C012150310963
:1017C00053963C932E93529718161906DCF4E09129
:1017D000EA03F091EB0312962D913C911397129F1F
:1017E000C001139F900D1124E80FF91FD783C68302
:1017F000FD01329650968281938181939193EA17ED
:10180000FB07C9F77894C5CFCF93DF93D0E0C0E052
:10181000CE01CB30D1050CF4A5C09C012B50310971
:101820002A30310508F460C09C01255131092A3065
:10183000310508F4B6C09C012F5131092A30310519
:1018400008F4D6C089970A9708F401C1E39709F014
:1018500038C160E082E00E94DA0285E492E00E94F2
:10186000C80060E083E00E94DA0285E492E00E9412
:10187000C80060E084E00E94DA0285E492E00E9401
:10188000C80060E085E00E94DA0285E492E00E94F0
:10189000C80060E086E00E94DA0285E492E00E94DF
:1018A000C80060E087E00E94DA0285E492E00E94CE
:1018B000C80060E088E00E94DA0285E492E00E94BD
:1018C000C80060E089E00E94DA0285E492E00E94AC
:1018D000C80084E390E0C4E3D0E09C012B503109C0
:1018E0002A30310508F0A0CF60E082E00E94DA02E1
:1018F0008DE193E00E94C80060E083E00E94DA027C
:1019000085E293E00E94C80060E084E00E94DA0271
:101910008DE293E00E94C80060E085E00E94DA0258
:101920008CE593E00E94C80060E086E00E94DA0245
:101930008DE293E00E94C80060E087E00E94DA0236
:1019400085E293E00E94C80060E088E00E94DA022D
:101950008DE193E00E94C8002196CE01CB30D105E5
:101960000CF05BCF60E082E00E94DA028DE193E050
:101970000E94C80060E083E00E94DA0285E293E002
:101980000E94C80060E084E00E94DA028DE293E0E9
:101990000E94C80060E085E00E94DA0286E393E0DE
:1019A000C1CF60E082E00E94DA028DE193E00E9404
:1019B000C80060E083E00E94DA0285E293E00E94C2
:1019C000C80060E084E00E94DA0284E693E00E94AE
:1019D000C80060E085E00E94DA028DE693E00E9494
:1019E000C80060E086E00E94DA0284E693E0A2CFBD
:1019F00060E082E00E94DA028DE193E00E94C8007C
:101A000060E083E00E94DA0285E793E00E94C8006C
:101A100060E084E00E94DA028DE793E00E94C80053
:101A200060E085E00E94DA0286E893E00E94C80048
:101A300060E086E00E94DA028DE793E00E94C80031
:101A400060E087E00E94DA0285E793E07BCF60E008
:101A500082E00E94DA0280E593E00E94C80060E024
:101A600083E00E94DA028EE893E00E94C80060E002
:101A700084E00E94DA0286E993E00E94C80060E0F8
:101A800085E00E94DA028FE993E00E94C80060E0DE
:101A900086E00E94DA0286E993E00E94C80060E0D6
:101AA00087E00E94DA028EE893E00E94C80060E0BE
:101AB00088E00E94DA0280E593E00E94C800219647
:101AC000A7CEDF91CF9108950E94040C0E94040CD0
:101AD0000E94040C0E94040C0C94040C0895809144
:101AE000E8039091E9030E94D3088091E603909166
:101AF000E7030A970CF48FC160E080E00E94DA02ED
:101B000083E30E943A0388E292E00E94C800809139
:101B1000E6039091E70364E670E00E945F0F072EF2
:101B2000000C880B990B0E945F0180E392E00E94F9
:101B3000C80060E082E00E94DA028EE492E00E9437
:101B4000C800E091EA03F091EB03E750FF4F80817A
:101B500090E00E940701E091EA03F091EB03E75067
:101B6000FF4F8081882309F41FC13AE0C32ED12C96
:101B7000B12CF12CE12CFEC0C70163E070E00E94A3
:101B80005F0F9EE1899FC02D1124F8E1AF2EA7E1E0
:101B90009A2EB6E18B2ED5E17D2E14E1612E03E164
:101BA000502E82E1482E91E1392E20E1222EDFE0F5
:101BB00082E30E943A036C2F8D2F0E94DA0282E6A4
:101BC00092E00E94C800E091EA03F091EB03DFE1AC
:101BD000DE9D8001DF9D100D1124E00FF11F80813B
:101BE00090E00E9407016C2F822D0E94DA028EE69F
:101BF00092E00E94C8008091EA039091EB038C0D63
:101C00009D1D0E94C8006C2F832D0E94DA028CE774
:101C100092E00E94C800E091EA03F091EB03E00F2C
:101C2000F11F8789908D0E949E016C2F842D0E9448
:101C3000DA0288E892E00E94C800E091EA03F0919D
:101C4000EB03E00FF11F838D948D20853185821B7E
:101C5000930B0E94070186E992E00E94C8006C2F56
:101C6000852D0E94DA0280EA92E00E94C800E0918D
:101C7000EA03F091EB03E00FF11F858996890E943A
:101C8000070186E992E00E94C8006C2F862D0E9411
:101C9000DA028DEA92E00E94C800E091EA03F09136
:101CA000EB03E00FF11F808591850E949E016C2F50
:101CB000872D0E94DA0284EC92E00E94C800E09135
:101CC000EA03F091EB03E00FF11F818D928D0E94EA
:101CD0009E016C2F882D0E94DA0281ED92E00E9415
:101CE000C800E091EA03F091EB03E00FF11F838D50
:101CF000948D0E949E016C2F892D0E94DA0287EA42
:101D000093E00E94C8008091EA039091EB03FC01EC
:101D1000E850FF4F2081D29F800D911D1124FC01BE
:101D2000828193810E9407016C2F8A2D0E94DA0222
:101D300086EB93E00E94C8008091EA039091EB0348
:101D4000080F191FF801868197810E94B108FFEFE3
:101D5000EF1AFF0A81E2B80E9FE1C90ED11CE09193
:101D6000EA03F091EB03E750FF4F80818E151F04CB
:101D7000D9F0D4F083E0E816F1040CF0FDCECB2DC1
:101D80008DE0A82E9CE0992E2BE0822E3AE0732E57
:101D900049E0642E58E0552E67E0462E76E0372E57
:101DA000E5E02E2ED4E004CFA091E803B091E90342
:101DB000F89421E030E011963C932E9352968D9149
:101DC0009C915397AC014150510953965C934E93AB
:101DD00052971816190614F0789481CEE091EA0310
:101DE000F091EB0312964D915C9113976FE1649F14
:101DF000C001659F900D1124E80FF91F37832683DA
:101E0000FD01329650968281938181939193EA17D6
:101E1000FB07C9F7E1CF0E94DA036ECECF93DF93C1
:101E200000D000D0CDB7DEB71092E7031092E603E2
:101E300084E190E09E838D8381E090E09C838B839E
:101E40009A8389830E947B0628EC30E0AE014B5FC9
:101E50005F4F66E973E086E092E00E94F60528ECA9
:101E600030E0AE014D5F5F4F6FE67DE08CE092E0C9
:101E70000E94F60528EC30E0AE014F5F5F4F67E04F
:101E800074E082E192E00E94F60528EC30E0AE01B9
:101E90004F5F5F4F67E074E082E192E00E94F605D9
:101EA00028EC30E0AE014F5F5F4F67E074E082E105
:101EB00092E00E94F6050E94F5077894FFCF97FB09
:101EC000072E16F4009407D077FD09D00E94730FF7
:101ED00007FC05D03EF4909581959F4F089570952D
:101EE00061957F4F0895AA1BBB1B51E107C0AA1F34
:101EF000BB1FA617B70710F0A61BB70B881F991FAB
:101F00005A95A9F780959095BC01CD0108950F933E
:101F10001F93CF93DF938230910510F482E090E01D
:101F2000E091F003F091F10330E020E0B0E0A0E0B8
:101F3000309799F42115310509F44AC0281B390B53
:101F400024303105D8F58A819B816115710589F1AD
:101F5000FB0193838283FE0111C040815181028184
:101F6000138148175907E0F04817590799F410975B
:101F700061F012960C93129713961C933296CF0130
:101F8000DF91CF911F910F9108950093F00310936B
:101F9000F103F4CF2115310551F04217530738F002
:101FA000A901DB019A01BD01DF01F801C1CFEF01F9
:101FB000F9CF9093F1038093F003CDCFFE01E20FB0
:101FC000F31F819391932250310939832883D7CF0E
:101FD0002091EE033091EF03232B41F42091020274
:101FE000309103023093EF032093EE03209100021F
:101FF000309101022115310541F42DB73EB74091D2
:10200000040250910502241B350BE091EE03F09180
:10201000EF03E217F307A0F42E1B3F0B2817390735
:1020200078F0AC014E5F5F4F2417350748F04E0F34
:102030005F1F5093EF034093EE03819391939FCFE3
:10204000F0E0E0E09CCFCF93DF930097E9F0FC0154
:10205000329713821282A091F003B091F103ED0147
:1020600030E020E01097A1F420813181820F931F8E
:102070002091EE033091EF032817390709F061C072
:10208000F093EF03E093EE03DF91CF910895EA011F
:10209000CE17DF07E8F54A815B819E0141155105A6
:1020A000B1F7E901FB83EA8349915991C40FD51F28
:1020B000EC17FD0761F4808191810296840F951FD2
:1020C000E90199838883828193819B838A83F0E0ED
:1020D000E0E012968D919C9113970097B9F52D91A0
:1020E0003C911197CD010296820F931F2091EE0330
:1020F0003091EF032817390739F6309751F51092D0
:10210000F1031092F003B093EF03A093EE03BCCF62
:10211000D383C28340815181840F951FC817D9078B
:1021200061F44E5F5F4F88819981480F591F518339
:1021300040838A819B81938382832115310509F035
:10214000B0CFF093F103E093F0039ECFFD01DC01EB
:10215000C0CF13821282D7CFFB01DC0102C00190F5
:0E2160000D9241505040D8F70895F894FFCFEB
:10216E000000F2032000626C696E6B007374617480
:10217E0073006E6164610030313233343536373876
:10218E00394142434445460054696D65723A200018
:10219E002020202020202020202020202020202031
:1021AE0020202020202020202020202020004E75BE
:1021BE006D626572206F6620546872656164733A51
:1021CE0020005468726561642049643A20005468A6
:1021DE0072656164206E616D653A200054687265A7
:1021EE0061642050433A2000537461636B20557331
:1021FE006167653A200020627974657320202000A3
:10220E00537461636B2053697A653A20004375728B
:10221E0072656E7420746F70206F662073746163C4
:10222E006B3A2000537461636B20626173653A20D0
:10223E0000537461636B20656E643A20006D6169B2
:10224E006E005448524541445F5245414459005432
:10225E0048524541445F57414954494E47005448FE
:10226E00524541445F52554E4E494E4700544852D6
:10227E004541445F534C454550494E470020202070
:10228E00232020200020202323232020002023236E
:10229E002323232020002323232323232300434F00
:1022AE004E53554D494E4700202323002020230036
:1022BE002020203020202000202030002323233017
:1022CE002323230020232330232320200023233005
:1022DE0023302323002020233023202000202330EE
:1022EE0023302320200023302323233023002020DB
:1022FE0030233020200020302323233020200030B4
:10230E002323232323300053636865642E20436FF9
:10231E00756E743A2000546872656164205374615E
:06232E007475733A2000F3
:00000001FF
