:100000000C9478000C9499000C9499000C9499002D
:100010000C9499000C9499000C9499000C949900FC
:100020000C9499000C9499000C9499000C949900EC
:100030000C9499000C9499000C9499000C949900DC
:100040000C9499000C9499000C9499000C949900CC
:100050000C9499000C94DF070C9499000C9499006F
:100060000C9499000C9499000C9499000C949900AC
:100070000C9499000C9499000C9499000C9499009C
:100080000C9499000C9499000C9499000C9499008C
:100090000C9499000C9499000C9499000C9499007C
:1000A0000C9499000C9499000C9499000C9499006C
:1000B0000C9499000C9499000C9499000C9499005C
:1000C0000C9499000C9499000C9499000C9499004C
:1000D0000C9499000C9499000C9499000C9499003C
:1000E0000C9499000C9493060C948D030C94FE03CD
:1000F00011241FBECFEFD1E2DEBFCDBF00E00CBFA9
:1001000012E0A0E0B2E0EAE3F3E100E00BBF02C0DE
:1001100007900D92A63BB107D9F722E0A6EBB2E01B
:1001200001C01D92A33EB207E1F70E943C080C9467
:100130009B090C940000EF92FF920F931F93CF93B3
:10014000DF931092D5021816190664F5C5EDD2E0BA
:1001500006EB12E0009510952AE0E22EF12CF80152
:10016000EC0FFD1FB7010E94450820E3280F2A93DA
:10017000CB010097A1F7EA54FD4F31969091C10051
:1001800095FDFCCF9091C00095FFF8CF2093C6005D
:1001900021912111F3CFDF91CF911F910F91FF900A
:1001A000EF9008952091B6022223A9F3E6EBF2E046
:1001B000E4CF82E08093C0001092C50080E180937C
:1001C000C400E1ECF0E08081886180830895809133
:1001D000C000881F8827881F08958091C00087FF6E
:1001E00003C08091C60008958FEF08959091C100DB
:1001F00095FDFCCF9091C00095FFF8CF8093C6008D
:1002000081E00895FC012081222371F031969091C4
:10021000C10095FDFCCF9091C00095FFF8CF2093D1
:10022000C60021912111F3CF08950F931F93CF930F
:10023000DF93CB011092D50218161906DCF4E5ED18
:10024000F2E0C6EBD2E0C095D0950AE010E09E0146
:100250002E0F3F1FB8010E944508805D8293CB019D
:100260000097A9F7C9018A549D4FDF91CF911F9143
:100270000F91089586EB92E0DF91CF911F910F913E
:100280000895009731F00C949B008091C00085FD8B
:1002900009C08091C10085FFF8CF8091C10085FD24
:1002A000F8CFF3CF80E38093C6000895EF92FF92DA
:1002B0000F931F93CF93DF93CB011092D5021816A3
:1002C000190664F5C5EDD2E006EB12E00095109535
:1002D0002AE0E22EF12CF801EC0FFD1FB7010E947D
:1002E000450820E3280F2A93CB010097A1F7EA5491
:1002F000FD4F31969091C10095FDFCCF9091C000CB
:1003000095FFF8CF2093C60021912111F3CFDF9103
:10031000CF911F910F91FF90EF9008952091B60219
:100320002223A9F3E6EBF2E0E4CFCF92DF92EF9243
:10033000FF920F931F93CF93DF93CDB7DEB7E19773
:100340000FB6F894DEBF0FBECDBF21E1E6E0F2E0CC
:10035000DE01919601900D922A95E1F79E012F5FA3
:100360003F4F690120E2D6011D922A95E9F7FE016F
:10037000B0960EEF1FEF0C191D09A8014E0F5F1F5D
:10038000BA0131979C012F70307837FF06C0215099
:100390003109206F3F6F2F5F3F4FA1E2EA2EF12C12
:1003A000EC0EFD1E2E0D3F1DD9012C91208397FDD3
:1003B0000F9695958795959587959595879595959C
:1003C000879518161906CCF28091C10085FDFCCFE7
:1003D0008091C00085FFF8CF80E38093C6008091B4
:1003E000C10085FDFCCF8091C00085FFF8CF88E774
:1003F0008093C6004B3151057CF04F5F5F4FF60193
:10040000E40FF51F9601255E3F4F80E38293E217CC
:10041000F307E1F76AE170E0FE01E60FF71F928152
:10042000992391F06E5F7F4FD601A60FB71F809181
:10043000C10085FDFCCF8091C00085FFF8CF90936F
:10044000C6009D919111F3CFE1960FB6F894DEBFEF
:100450000FBECDBFDF91CF911F910F91FF90EF9015
:10046000DF90CF900895CF92DF92EF92FF920F939B
:100470001F93CF93DF93CDB7DEB7E1970FB6F89414
:10048000DEBF0FBECDBF21E1E6E0F2E0DE019196D6
:1004900001900D922A95E1F79E012F5F3F4F690170
:1004A00020E2D6011D922A95E9F7DE0190960EEF23
:1004B0001FEF0C191D0998012A0F3B1FA901119765
:1004C000CB018F70907897FF04C00197806F9F6F6A
:1004D0000196E1E2F0E0EC0FFD1F8E0F9F1FFC0183
:1004E00080818C9377FF02C0615F7F4F7595679520
:1004F00075956795759567957595679516161706A1
:10050000D4F28091C10085FDFCCF8091C00085FFB1
:10051000F8CF80E38093C6008091C10085FDFCCFB9
:100520008091C00085FFF8CF88E78093C6002B310B
:1005300031057CF02F5F3F4FD601A20FB31F96010C
:10054000255E3F4F80E38E93A217B307E1F74AE1A0
:1005500050E0DE01A40FB51F12969C91992391F0F3
:100560004E5F5F4FF601E40FF51F8091C10085FDDE
:10057000FCCF8091C00085FFF8CF9093C600919189
:100580009111F3CFE1960FB6F894DEBF0FBECDBF49
:10059000DF91CF911F910F91FF90EF90DF90CF905F
:1005A00008950F931F93CF93DF93C62F282F30E02A
:1005B000C9012115310561F0E5EDF2E00AE010E036
:1005C000B8010E944508805D8293CB010097C1F776
:1005D000D0E0CE011092D502209761F0E5EDF2E077
:1005E0000AE010E0B8010E944508805D8293CB01CB
:1005F0000097C1F79091C10095FDFCCF8091C0009C
:1006000085FFF8CF8BE18093C6009091C10095FDE6
:10061000FCCF8091C00085FFF8CF8BE58093C600AA
:10062000C9010E9441018091C10085FDFCCF8091EC
:10063000C00085FFF8CF8BE38093C600CE010E94F7
:1006400041018091C10085FDFCCF8091C00085FFF4
:10065000F8CF88E48093C600DF91CF911F910F916E
:1006600008959091C10095FDFCCF9091C00095FF39
:10067000F8CF9BE19093C6009091C10095FDFCCF0F
:100680009091C00095FFF8CF9BE59093C6009091A4
:10069000C10095FDFCCF9091C00095FFF8CF93E38A
:1006A0009093C6009091C10095FDFCCF9091C00041
:1006B00095FFF8CF8093C6008091C10085FDFCCFE7
:1006C0008091C00085FFF8CF8DE68093C600089525
:1006D000F0E0E4E2508160E86083E5E2508160E8A8
:1006E00060830895F0E0E4E2508160E86083E5E231
:1006F000508160E060830895181619066CF430E0AC
:1007000020E0EFE9FFE03197F1F700C000002F5F34
:100710003F4F82179307A9F70895FC01208131818B
:100720008091C0004FEF87FD4091C600F0E0E4E209
:10073000508160E86083E5E2508160E860831216D2
:10074000130664F490E080E0EFE9FFE03197F1F701
:1007500000C00000019628173907B1F7F0E0E4E285
:10076000508160E86083E5E2508160E060831216AA
:10077000130664F490E080E0EFE9FFE03197F1F7D1
:1007800000C00000019628173907B1F7413631F053
:100790004A3709F0C5CF2C5E3F4FC2CF24513109F3
:1007A000BFCF8091C10085FDFCCF8091C00085FF47
:1007B000F8CF8BE18093C6008091C10085FDFCCF0E
:1007C0008091C00085FFF8CF8BE58093C6008091B3
:1007D000C10085FDFCCF8091C00085FFF8CF82E38A
:1007E0008093C6008091C10085FDFCCF8091C00040
:1007F00085FFF8CF8AE48093C6000895CF93DF93F6
:1008000000D01F92CDB7DEB7E090D602F090D702AD
:100810008091D6029091D70284569109E816F90684
:10082000BCF7E090D602F090D70260E080E00E9432
:10083000D1020E94D10383E30E943103E8E1F2E098
:1008400094E58091C10085FDFCCF8091C00085FFBB
:10085000F8CF9093C60091919111F3CF8091D60279
:100860009091D70264E670E00E944508072E000CC4
:10087000880B990B0E94560160E082E00E94D10231
:10088000E0E2F2E09EE48091C10085FDFCCF809122
:10089000C00085FFF8CF9093C60091919111F3CFDE
:1008A0008091D9029091DA020E94410160E084E0D7
:1008B0000E94D10254E3A52E52E0B52EF50194E535
:1008C0008091C10085FDFCCF8091C00085FFF8CFED
:1008D0009093C60091919111F3CF8091C10085FD55
:1008E000FCCF8091C00085FFF8CF80E38093C600E5
:1008F00060E085E00E94D10240E4C42E42E0D42EA4
:10090000F60194E58091C10085FDFCCF8091C00087
:1009100085FFF8CF9093C60091919111F3CFE091AC
:10092000DB02F091DC029381992371F0349680917F
:10093000C10085FDFCCF8091C00085FFF8CF90936A
:10094000C60091919111F3CF60E086E00E94D10240
:10095000EEE4F2E0FA83E98394E58091C10085FD3D
:10096000FCCF8091C00085FFF8CF9093C600919195
:100970009111F3CF8091DB029091DC0201960E94ED
:10098000950160E087E00E94D1020AE512E0F801DB
:1009900093E58091C10085FDFCCF8091C00085FF6B
:1009A000F8CF9093C60091919111F3CFE091DB02C3
:1009B000F091DC028789908D20A531A5821B930BD5
:1009C0000E94410138E6832E32E0932EF40190E23A
:1009D0008091C10085FDFCCF8091C00085FFF8CFDC
:1009E0009093C60091919111F3CF60E088E00E944E
:1009F000D1028FE692E09C838B83FC0193E580918A
:100A0000C10085FDFCCF8091C00085FFF8CF909399
:100A1000C60091919111F3CFE091DB02F091DC02DD
:100A2000868597850E944101E8E6F2E090E2809198
:100A3000C10085FDFCCF8091C00085FFF8CF909369
:100A4000C60091919111F3CF60E089E00E94D1023C
:100A50002CE7622E22E0722EF30193E48091C10014
:100A600085FDFCCF8091C00085FFF8CF9093C60034
:100A700091919111F3CFE091DB02F091DC02818141
:100A800092810E94950160E08AE00E94D10293E980
:100A9000492E92E0592EF20193E58091C10085FD27
:100AA000FCCF8091C00085FFF8CF9093C600919154
:100AB0009111F3CFE091DB02F091DC028089918902
:100AC0000E94950160E08BE00E94D10280EA282E0E
:100AD00082E0382EF10193E58091C10085FDFCCFC5
:100AE0008091C00085FFF8CF9093C600919191113D
:100AF000F3CFE091DB02F091DC02828993890E94BE
:100B0000950186E30E94310360E08DE00E94D102EE
:100B100094E58091C10085FDFCCF8091C00085FFE8
:100B2000F8CF9093C600F50191915F019111F1CF3B
:100B300081E090E00E949B0060E08EE00E94D10284
:100B400094E58091C10085FDFCCF8091C00085FFB8
:100B5000F8CF9093C600F60191916F019111F1CFFA
:100B6000E091DB02F091DC02918D992371F07A968D
:100B70008091C10085FDFCCF8091C00085FFF8CF3A
:100B80009093C60091919111F3CF60E08FE00E94A5
:100B9000D10294E58091C10085FDFCCF8091C00019
:100BA00085FFF8CF9093C600E981FA819191FA838D
:100BB000E9839111EFCF8091DB029091DC0247969F
:100BC0000E94950160E080E10E94D10293E580914E
:100BD000C10085FDFCCF8091C00085FFF8CF9093C8
:100BE000C600F80191918F019111F1CFE091DB02E4
:100BF000F091DC028789908D20A531A5821B930B93
:100C00000E944101E8E6F2E090E28091C10085FD9A
:100C1000FCCF8091C00085FFF8CF9093C6009191E2
:100C20009111F3CF60E081E10E94D10293E58091C0
:100C3000C10085FDFCCF8091C00085FFF8CF909367
:100C4000C600EB81FC819191FC83EB839111EFCF86
:100C5000E091DB02F091DC0284A195A10E944101A8
:100C600090E28091C10085FDFCCF8091C00085FF9E
:100C7000F8CF9093C600F40191914F019111F1CFFB
:100C800060E082E10E94D10293E48091C10085FD81
:100C9000FCCF8091C00085FFF8CF9093C600F30190
:100CA00091913F019111F1CFE091DB02F091DC02D3
:100CB0008789908D0E94950160E083E10E94D102B6
:100CC00093E58091C10085FDFCCF8091C00085FF38
:100CD000F8CF9093C600F20191912F019111F1CFBD
:100CE0008091DB029091DC0286960E94950160E083
:100CF00084E10E94D10293E58091C10085FDFCCF83
:100D00008091C00085FFF8CF9093C600F1019191CA
:100D10001F019111F1CF8091DB029091DC02889646
:100D20000E94950175CD7894912F802FFD2FEC2F87
:100D300009946F927F929F92AF92BF92CF92DF926F
:100D4000EF92FF920F931F93CF93DF937C01B62E08
:100D5000A72E942EC52E8901C9010E946D08E0912D
:100D6000DB02F091DC024091D9025091DA0226E1D7
:100D7000D22ED49E9001D59E300D11243F01620EDB
:100D8000731ED30151969C938E935097BC016E5F56
:100D90007F4F53967C936E935297E8016697C80FE6
:100DA000D91F5596DC93CE9354971882A982BA82A4
:100DB000CB829C821D821E821F82188619861A860B
:100DC0001B861C861D861E861F86188A198A1A8A0B
:100DD0001B8A83E996E09C8B8D8BCF018F549F4FAC
:100DE000DC011D921D921D921C9213970197DC014C
:100DF0001C92D3014C93D7010D900020E9F7AD016F
:100E0000C90103964E195F09B7018E0F9F1F0E94FB
:100E10009209E091DB02F091DC028091D90290917D
:100E2000DA02D89E9001D99E300D1124E20FF31FF3
:100E300017870687D283C18301969093DA02809345
:100E4000D902DF91CF911F910F91FF90EF90DF902A
:100E5000CF90BF90AF909F907F906F9008958091BA
:100E6000D8022091D9023091DA022150310982173B
:100E7000130624F01092D80280E008958F5F8093CB
:100E8000D8020895EEE6F0E080818260808384B528
:100E9000826084BD85B5856085BD8CE987BD089578
:100EA0002F923F924F925F926F927F928F929F927A
:100EB000AF92BF92CF92DF92EF92FF920F931F9368
:100EC000CF93DF93F0E0EEE52081EDE53081F72F61
:100ED000E62F31932083F92FE82F51916081F0E0C4
:100EE000EEE56083EDE55083DF91CF911F910F9187
:100EF000FF90EF90DF90CF90BF90AF909F908F903A
:100F00007F906F905F904F903F902F900895CF9378
:100F1000DF9300D01F92CDB7DEB70E94D90084E1E5
:100F200090E09C838B8381E090E09A83898386E1C3
:100F300090E00E946D089093DE028093DD0280ECC9
:100F400090E00E946D089093DC028093DB02109287
:100F5000DA021092D90228EC30E0AE014D5F5F4F0B
:100F60006DE873E08BEA92E00E94990628EC30E08D
:100F7000AE014F5F5F4F6EEF73E081EB92E00E9436
:100F80009906EEE6F0E080818260808384B582601D
:100F900084BD85B5856085BD8CE987BD78948091D9
:100FA000DB029091DC026DED72E001960E94500729
:100FB0000F900F900F900F90DF91CF9108951F9297
:100FC0000F920FB60F9211240BB60F921F932F930F
:100FD0003F934F935F936F937F938F939F93AF93C1
:100FE000BF93CF93DF93EF93FF931091D80280913B
:100FF000D9029091DA020197181719069CF1109204
:10100000D802C1E0D0E08091D6029091D70201963B
:101010009093D7028093D6028091DB029091DC02FC
:10102000BC0126E1129F600D711D11246F5F7F4F7F
:101030008C0F9D1F0E945007FF91EF91DF91CF9180
:10104000BF91AF919F918F917F916F915F914F91E0
:101050003F912F911F910F900BBE0F900FBE0F90DD
:101060001F901895C1E0C10FC093D80226E1C29F1E
:10107000E00111242196C7CF1092D7021092D60218
:101080000E94870790E080E0089597FB072E16F4F2
:10109000009407D077FD09D00E94590807FC05D0BD
:1010A0003EF4909581959F4F0895709561957F4F7F
:1010B0000895AA1BBB1B51E107C0AA1FBB1FA6179F
:1010C000B70710F0A61BB70B881F991F5A95A9F7F1
:1010D00080959095BC01CD0108950F931F93CF93F8
:1010E000DF938230910510F482E090E0E091E1021C
:1010F000F091E20230E020E0B0E0A0E0309799F417
:101100002115310509F44AC0281B390B243031055B
:10111000D8F58A819B816115710589F1FB01938363
:101120008283FE0111C040815181028113814817E1
:101130005907E0F04817590799F4109761F0129693
:101140000C93129713961C933296CF01DF91CF9197
:101150001F910F9108950093E1021093E202F4CFE2
:101160002115310551F04217530738F0A901DB0171
:101170009A01BD01DF01F801C1CFEF01F9CF9093D2
:10118000E2028093E102CDCFFE01E20FF31F8193D3
:1011900091932250310939832883D7CF2091DF02E0
:1011A0003091E002232B41F420910202309103029E
:1011B0003093E0022093DF0220910002309101027F
:1011C0002115310541F42DB73EB7409104025091ED
:1011D0000502241B350BE091DF02F091E002E217DB
:1011E000F307A0F42E1B3F0B2817390778F0AC014A
:1011F0004E5F5F4F2417350748F04E0F5F1F509327
:10120000E0024093DF02819391939FCFF0E0E0E012
:101210009CCFCF93DF930097E9F0FC0132971382C4
:101220001282A091E102B091E202ED0130E020E0F3
:101230001097A1F420813181820F931F2091DF024A
:101240003091E0022817390709F061C0F093E002FD
:10125000E093DF02DF91CF910895EA01CE17DF0717
:10126000E8F54A815B819E0141155105B1F7E9011D
:10127000FB83EA8349915991C40FD51FEC17FD07F1
:1012800061F4808191810296840F951FE901998311
:101290008883828193819B838A83F0E0E0E01296C9
:1012A0008D919C9113970097B9F52D913C911197D1
:1012B000CD010296820F931F2091DF023091E00250
:1012C0002817390739F6309751F51092E20210923B
:1012D000E102B093E002A093DF02BCCFD383C283CC
:1012E00040815181840F951FC817D90761F44E5F63
:1012F0005F4F88819981480F591F518340838A81AC
:101300009B81938382832115310509F0B0CFF0933F
:10131000E202E093E1029ECFFD01DC01C0CF138227
:101320001282D7CFFB01DC0102C001900D92415027
:0A1330005040D8F70895F894FFCF5D
:10133A000000E30220003031323334353637383991
:10134A004142434445460054696D65723A20004E55
:10135A00756D626572206F66205468726561647388
:10136A003A20005468726561642049643A20005446
:10137A006872656164206E616D653A200054687216
:10138A006561642050433A2000537461636B2055B1
:10139A00736167653A20002062797465730053743B
:1013AA0061636B2053697A653A20004375727265EE
:1013BA006E7420746F70206F6620737461636B3A69
:1013CA002000537461636B20626173653A20005395
:1013DA007461636B20656E643A2000626C696E6B9F
:0613EA000073746179003C
:00000001FF
