:100000000C947A000C949B000C949B000C949B0025
:100010000C949B000C949B000C949B000C949B00F4
:100020000C949B000C949B000C949B000C949B00E4
:100030000C949B000C949B000C949B000C949B00D4
:100040000C949B000C949B000C949B000C949B00C4
:100050000C949B000C9477090C949B000C949B00CF
:100060000C949B000C949B000C949B000C949B00A4
:100070000C949B000C949B000C949B000C949B0094
:100080000C949B000C949B000C949B000C949B0084
:100090000C949B000C949B000C949B000C949B0074
:1000A0000C949B000C949B000C949B000C949B0064
:1000B0000C949B000C949B000C949B000C949B0054
:1000C0000C949B000C949B000C949B000C949B0044
:1000D0000C949B000C949B000C949B000C949B0034
:1000E0000C949B000C945A080C949D000C940004F2
:1000F0000C94D80911241FBECFEFD1E2DEBFCDBFD3
:1001000000E00CBF12E0A0E0B2E0E4EDF8E100E0B6
:100110000BBF02C007900D92A03EB107D9F723E0B4
:10012000A0EEB2E001C01D92AD30B207E1F70E942F
:10013000DD0A0C94680C0C940000FC0120813181D4
:100140008091C0004FEF87FD4091C600F0E0E4E2EF
:10015000508160E86083E5E2508160E860831216B8
:10016000130664F490E080E0EFE9FFE03197F1F7E7
:1001700000C00000019628173907B1F7F0E0E4E26B
:10018000508160E86083E5E2508160E06083121690
:10019000130664F490E080E0EFE9FFE03197F1F7B7
:1001A00000C00000019628173907B1F7413631F039
:1001B0004A3709F0C5CF2C5E3F4FC2CF24513109D9
:1001C000BFCFEF92FF920F931F93CF93DF931092C5
:1001D000FF021816190664F5CFEFD2E000EE12E028
:1001E000009510952AE0E22EF12CF801EC0FFD1F8E
:1001F000B7010E94120B20E3280F2A93CB0100972E
:10020000A1F7E052FD4F31969091C10095FDFCCFD2
:100210009091C00095FFF8CF2093C6002191211145
:10022000F3CFDF91CF911F910F91FF90EF90089541
:100230002091E0022223A9F3E0EEF2E0E4CF82E095
:100240008093C0001092C50080E18093C400E1EC6F
:10025000F0E080818861808308958091C000881FCC
:100260008827881F08958091C00087FF03C0809170
:10027000C60008958FEF08959091C10095FDFCCFC1
:100280009091C00095FFF8CF8093C60081E008955B
:10029000FC012081222371F031969091C10095FDDF
:1002A000FCCF9091C00095FFF8CF2093C60021911C
:1002B0002111F3CF08950F931F93CF93DF93CB01B9
:1002C0001092FF0218161906DCF4EFEFF2E0C0EE10
:1002D000D2E0C095D0950AE010E09E012E0F3F1F9E
:1002E000B8010E94120B805D8293CB010097A9F7A1
:1002F000C90180529D4FDF91CF911F910F910895B9
:1003000080EE92E0DF91CF911F910F9108950097B9
:1003100031F00C94E1008091C00085FD09C080910E
:10032000C10085FFF8CF8091C10085FDF8CFF3CFE4
:1003300080E38093C6000895EF92FF920F931F937E
:10034000CF93DF93CB011092FF021816190664F5C4
:10035000CFEFD2E000EE12E0009510952AE0E22EF9
:10036000F12CF801EC0FFD1FB7010E94120B20E3E6
:10037000280F2A93CB010097A1F7E052FD4F319649
:100380009091C10095FDFCCF9091C00095FFF8CFF2
:100390002093C60021912111F3CFDF91CF911F91BE
:1003A0000F91FF90EF9008952091E0022223A9F38E
:1003B000E0EEF2E0E4CFCF92DF92EF92FF920F9364
:1003C0001F93CF93DF93CDB7DEB7E1970FB6F894C5
:1003D000DEBF0FBECDBF21E1E2E1F2E0DE0191968A
:1003E00001900D922A95E1F79E012F5F3F4F690121
:1003F00020E2D6011D922A95E9F7FE01B0960EEF94
:100400001FEF0C191D09A8014E0F5F1FBA0131978C
:100410009C012F70307837FF06C021503109206FC2
:100420003F6F2F5F3F4FA1E2EA2EF12CEC0EFD1E35
:100430002E0D3F1DD9012C91208397FD0F96959588
:100440008795959587959595879595958795181690
:100450001906CCF28091C10085FDFCCF8091C000CF
:1004600085FFF8CF80E38093C6008091C10085FDB1
:10047000FCCF8091C00085FFF8CF88E78093C6004D
:100480004B3151057CF04F5F5F4FF601E40FF51FD4
:100490009601255E3F4F80E38293E217F307E1F771
:1004A0006AE170E0FE01E60FF71F9281992391F057
:1004B0006E5F7F4FD601A60FB71F8091C10085FDEB
:1004C000FCCF8091C00085FFF8CF9093C6009D912E
:1004D0009111F3CFE1960FB6F894DEBF0FBECDBFFA
:1004E000DF91CF911F910F91FF90EF90DF90CF9010
:1004F0000895CF92DF92EF92FF920F931F93CF93C5
:10050000DF93CDB7DEB7E1970FB6F894DEBF0FBE2D
:10051000CDBF21E1E2E1F2E0DE01919601900D9282
:100520002A95E1F79E012F5F3F4F690120E2D60136
:100530001D922A95E9F7DE0190960EEF1FEF0C1938
:100540001D0998012A0F3B1FA9011197CB018F703C
:10055000907897FF04C00197806F9F6F0196E1E24A
:10056000F0E0EC0FFD1F8E0F9F1FFC0180818C932C
:1005700077FF02C0615F7F4F7595679575956795A9
:10058000759567957595679516161706D4F280913F
:10059000C10085FDFCCF8091C00085FFF8CF80E3CE
:1005A0008093C6008091C10085FDFCCF8091C00082
:1005B00085FFF8CF88E78093C6002B3131057CF0AA
:1005C0002F5F3F4FD601A20FB31F9601255E3F4F0D
:1005D00080E38E93A217B307E1F74AE150E0DE0112
:1005E000A40FB51F12969C91992391F04E5F5F4F17
:1005F000F601E40FF51F8091C10085FDFCCF8091CD
:10060000C00085FFF8CF9093C60091919111F3CF70
:10061000E1960FB6F894DEBF0FBECDBFDF91CF914C
:100620001F910F91FF90EF90DF90CF9008950F935F
:100630001F93CF93DF93C62F282F30E0C9012115D8
:10064000310561F0EFEFF2E00AE010E0B8010E943E
:10065000120B805D8293CB010097C1F7D0E0CE01F1
:100660001092FF02209761F0EFEFF2E00AE010E055
:10067000B8010E94120B805D8293CB010097C1F7F5
:100680009091C10095FDFCCF8091C00085FFF8CF0F
:100690008BE18093C6009091C10095FDFCCF8091C5
:1006A000C00085FFF8CF8BE58093C600C9010E948A
:1006B00087018091C10085FDFCCF8091C00085FF3E
:1006C000F8CF8BE38093C600CE010E948701809112
:1006D000C10085FDFCCF8091C00085FFF8CF88E484
:1006E0008093C600DF91CF911F910F910895909153
:1006F000C10095FDFCCF9091C00095FFF8CF9BE124
:100700009093C6009091C10095FDFCCF9091C000E0
:1007100095FFF8CF9BE59093C6009091C10095FDA1
:10072000FCCF9091C00095FFF8CF93E39093C60063
:100730009091C10095FDFCCF9091C00095FFF8CF3E
:100740008093C6008091C10085FDFCCF8091C000E0
:1007500085FFF8CF8DE68093C6000895F0E0E4E2CF
:10076000508160E86083E5E2508160E8608308952D
:10077000F0E0E4E2508160E86083E5E2508160E00F
:1007800060830895181619066CF430E020E0EFE954
:10079000FFE03197F1F700C000002F5F3F4F821755
:1007A0009307A9F708958091C10085FDFCCF809142
:1007B000C00085FFF8CF8BE18093C6008091C10017
:1007C00085FDFCCF8091C00085FFF8CF8BE580933D
:1007D000C6008091C10085FDFCCF8091C00085FFDF
:1007E000F8CF82E38093C6008091C10085FDFCCFE5
:1007F0008091C00085FFF8CF8AE48093C6000895F9
:1008000080910003909101030E94D3038091000323
:100810009091010360E080E00E94170383E30E944F
:100820007703E4E2F2E094E58091C10085FDFCCF1E
:100830008091C00085FFF8CF9093C60091919111EF
:10084000F3CF809100039091010364E670E00E9471
:10085000120B072E000C880B990B0E949C0160E084
:1008600082E00E941703ECE2F2E09EE48091C10076
:1008700085FDFCCF8091C00085FFF8CF9093C60026
:1008800091919111F3CF80910303909104030E9401
:10089000870160E084E00E94170360E4A62E62E016
:1008A000B62EF50194E58091C10085FDFCCF8091C5
:1008B000C00085FFF8CF9093C60091919111F3CFBE
:1008C0008091C10085FDFCCF8091C00085FFF8CFED
:1008D00080E38093C60060E085E00E9417035CE43B
:1008E000C52E52E0D52EF60194E58091C10085FD1C
:1008F000FCCF8091C00085FFF8CF9093C600919106
:100900009111F3CFE0910503F091060395819923AE
:1009100071F036968091C10085FDFCCF8091C000BA
:1009200085FFF8CF9093C60091919111F3CF60E0CD
:1009300086E00E9417034AE5E42E42E0F42EF70118
:1009400094E58091C10085FDFCCF8091C00085FFBA
:10095000F8CF9093C60091919111F3CF8DE990E07B
:100960000E94DB0160E087E00E94170306E612E0C8
:10097000F80193E58091C10085FDFCCF8091C00016
:1009800085FFF8CF9093C60091919111F3CFE0913C
:100990000503F09106038689978923813481821BA0
:1009A000930B0E94870134E7832E32E0932EF401EB
:1009B00090E28091C10085FDFCCF8091C00085FF51
:1009C000F8CF9093C60091919111F3CF60E088E049
:1009D0000E941703CBE7D2E0FE0193E58091C100AE
:1009E00085FDFCCF8091C00085FFF8CF9093C600B5
:1009F00091919111F3CFE0910503F0910603808965
:100A000091890E948701E4E7F2E090E28091C100C1
:100A100085FDFCCF8091C00085FFF8CF9093C60084
:100A200091919111F3CF60E089E00E94170328E8CB
:100A3000622E22E0722EF30193E48091C10085FDC5
:100A4000FCCF8091C00085FFF8CF9093C6009191B4
:100A50009111F3CFE0910503F09106038381948116
:100A60000E94DB0160E08AE00E9417039FE9492EA3
:100A700092E0592EF20193E58091C10085FDFCCFF3
:100A80008091C00085FFF8CF9093C600919191119D
:100A9000F3CFE0910503F0910603848995890E94C4
:100AA000DB0160E08BE00E9417038CEA282E82E0D5
:100AB000382EF10193E58091C10085FDFCCF809136
:100AC000C00085FFF8CF9093C60091919111F3CFAC
:100AD000E0910503F0910603868997890E94DB0166
:100AE00086E30E94770360E08DE00E94170394E59F
:100AF0008091C10085FDFCCF8091C00085FFF8CFBB
:100B00009093C600F50191915F019111F1CF81E0C1
:100B100090E00E94E10060E08EE00E94170394E5FF
:100B20008091C10085FDFCCF8091C00085FFF8CF8A
:100B30009093C600F60191916F019111F1CFE09170
:100B40000503F0910603978D992371F0B09680917B
:100B5000C10085FDFCCF8091C00085FFF8CF909348
:100B6000C60091919111F3CF60E08FE00E941703CE
:100B700094E58091C10085FDFCCF8091C00085FF88
:100B8000F8CF9093C600F70191917F019111F1CFB9
:100B900080E094E00E94DB0160E080E10E941703A6
:100BA00093E58091C10085FDFCCF8091C00085FF59
:100BB000F8CF9093C600F80191918F019111F1CF78
:100BC000E0910503F091060380A991A9258D368D4A
:100BD000821B930B0E948701E4E7F2E090E2809190
:100BE000C10085FDFCCF8091C00085FFF8CF9093B8
:100BF000C60091919111F3CF60E081E10E9417034B
:100C000093E58091C10085FDFCCF8091C00085FFF8
:100C1000F8CF9093C60099919111F3CFE09105031D
:100C2000F091060382A593A50E94870190E280912E
:100C3000C10085FDFCCF8091C00085FFF8CF909367
:100C4000C600F40191914F019111F1CF60E082E172
:100C50000E94170393E48091C10085FDFCCF809131
:100C6000C00085FFF8CF9093C600F30191913F013A
:100C70009111F1CFE0910503F0910603858D968DDA
:100C80000E94DB0160E083E10E94170393E58091FD
:100C9000C10085FDFCCF8091C00085FFF8CF909307
:100CA000C600F20191912F019111F1CFE09105035E
:100CB000F091060386A597A50E94DB0160E084E120
:100CC0000E94170393E58091C10085FDFCCF8091C0
:100CD000C00085FFF8CF9093C600F10191911F01EC
:100CE0009111F1CFE0910503F091060380A991A93C
:100CF0000E94DB018BCDFFCFE4E68E2E912CFAE132
:100D0000CF2E80910003909101030A970CF4CFC17C
:100D100060E080E00E94170383E30E947703E4E22F
:100D2000F2E094E58091C10085FDFCCF8091C00088
:100D300085FFF8CF9093C60091919111F3CF8091E8
:100D4000000390910103B4010E94120B072E000CC6
:100D5000880B990B0E949C01E8EBF2E090E28091F5
:100D6000C10085FDFCCF8091C00085FFF8CF909336
:100D7000C60091919111F3CF60E082E00E941703C9
:100D8000ECE2F2E09EE48091C10085FDFCCF809111
:100D9000C00085FFF8CF9093C60091919111F3CFD9
:100DA00080910303909104030E94870180910303C3
:100DB00090910403181619060CF0A3CF05E010E07B
:100DC000D0E0C0E074E0D72E82E30E947703EE24E7
:100DD000E394ED0C60E08D2D0E941703E0E4F2E057
:100DE00094E58091C10085FDFCCF8091C00085FF16
:100DF000F8CF9093C60091919111F3CFE091050344
:100E0000F0910603CC9EC001CD9E900D1124E80FF9
:100E1000F91F808190E00E94870162E0F62EFD0CB0
:100E200060E08E2D0E941703ECE4F2E094E58091DF
:100E3000C10085FDFCCF8091C00085FFF8CF909365
:100E4000C60091919111F3CFE0910503F091060353
:100E5000E00FF11F9081992371F031968091C100CC
:100E600085FDFCCF8091C00085FFF8CF9093C60030
:100E700091919111F3CF53E0E52EED0C60E08F2DB1
:100E80000E941703EAE5F2E094E58091C10085FD38
:100E9000FCCF8091C00085FFF8CF9093C600919160
:100EA0009111F3CFE0910503F0910603CC9EC001B0
:100EB000CD9E900D1124E80FF91F828993890E941D
:100EC000DB0144E0A42EAD0C60E08E2D0E941703E0
:100ED000E6E6F2E093E58091C10085FDFCCF8091CC
:100EE000C00085FFF8CF9093C60091919111F3CF88
:100EF000E0910503F0910603CC9EC001CD9E900DBC
:100F00001124E80FF91F8689978923813481821B78
:100F1000930B0E94870136EDE32E32E0F32EF701AA
:100F200090E28091C10085FDFCCF8091C00085FFDB
:100F3000F8CF9093C60091919111F3CF25E0B22E96
:100F4000BD0C60E08A2D0E941703EBE7F2E093E509
:100F50008091C10085FDFCCF8091C00085FFF8CF56
:100F60009093C60091919111F3CFE0910503F09118
:100F70000603CC9EC001CD9E900D1124E80FF91FF1
:100F8000808991890E94870190E28091C10085FD4E
:100F9000FCCF8091C00085FFF8CF9093C600F70189
:100FA00091917F019111F1CF96E0E92EED0C60E077
:100FB0008B2D0E941703E8E8F2E093E48091C100D2
:100FC00085FDFCCF8091C00085FFF8CF9093C600CF
:100FD00091919111F3CFE0910503F0910603CC9E1E
:100FE000C001CD9E900D1124E80FF91F83819481DB
:100FF0000E94DB0187E0F82EFD0C60E08E2D0E9440
:101000001703EFE9F2E093E58091C10085FDFCCF85
:101010008091C00085FFF8CF9093C6009191911107
:10102000F3CFE0910503F0910603CC9EC001CD9E65
:10103000900D1124E80FF91F848995890E94DB0126
:1010400060E08F2D0E941703ECEAF2E093E58091B7
:10105000C10085FDFCCF8091C00085FFF8CF909343
:10106000C60091919111F3CFE0910503F091060331
:10107000CC9EC001CD9E900D1124E80FF91F8689EA
:1010800097890E94DB01F9E0DF0E2196065E1F4F73
:101090008091030390910403C817D9070CF494CEF0
:1010A00080910003909101030A970CF031CE0E94C9
:1010B000D3032ECE7894912F802FFD2FEC2F0994FF
:1010C0006F927F929F92AF92BF92CF92DF92EF92F8
:1010D000FF920F931F93CF93DF937C01B62EC72E01
:1010E000942EA52E8901C9010E943A0B6090050338
:1010F0007090060340910303509104032AE1D22E1D
:10110000D49E9001D59E300D1124F301E20FF31F00
:10111000958B848BBC01600F711F778B668BE80108
:101120006697C80FD91FD18FC08F1882C982BA8223
:10113000AB829C821D821E821F82188619861A86A7
:101140001B861C861D861E861F86188A198A1A8A87
:101150001B8A8AE598E09C8B8D8BC3018F529F4F31
:10116000DC011D921D921D921C9213970197DC01C8
:101170001C924083B28AC38AF70101900020E9F7EC
:10118000AF01C90105964E195F09B701860D971D7C
:101190000E945F0CE0910503F09106038091030328
:1011A00090910403D89E9001D99E300D1124E20F36
:1011B000F31F118B008BD483C38301969093040398
:1011C00080930303DF91CF911F910F91FF90EF90D8
:1011D000DF90CF90BF90AF909F907F906F900895D9
:1011E0000E941F018AE190E00E943A0B909308034D
:1011F0008093070380EE90E00E943A0B90930603E1
:1012000080930503109204031092030308958091C4
:101210000203209103033091040321503109821706
:10122000130624F01092020380E008958F5F8093EC
:1012300002030895EEE6F0E080818260808384B549
:10124000826084BD85B5856085BD8CE987BD0895C4
:101250002F923F924F925F926F927F928F929F92C6
:10126000AF92BF92CF92DF92EF92FF920F931F93B4
:10127000CF93DF93F0E0EEE52081EDE53081F72FAD
:10128000E62F31932083F92FE82F51916081F0E010
:10129000EEE56083EDE55083DF91CF911F910F91D3
:1012A000FF90EF90DF90CF90BF90AF909F908F9086
:1012B0007F906F905F904F903F902F900895EEE653
:1012C000F0E080818260808384B5826084BD85B5D2
:1012D000856085BD8CE987BD7894809105039091E8
:1012E000060367E073E003960E94280908951F92A1
:1012F0000F920FB60F9211240BB60F921F932F93DC
:101300003F934F935F936F937F938F939F93AF938D
:10131000BF93CF93DF93EF93FF93109102038091DC
:101320000303909104030197181719069CF110927A
:101330000203C3E0D0E08091000390910103019685
:10134000909301038093000380910503909106031D
:10135000BC012AE1129F600D711D11246D5F7F4F4A
:101360008C0F9D1F0E942809FF91EF91DF91CF9173
:10137000BF91AF919F918F917F916F915F914F91AD
:101380003F912F911F910F900BBE0F900FBE0F90AA
:101390001F901895C1E0C10FC09302032AE1C29FBC
:1013A000E00111242396C7CF089508950895089564
:1013B00094E6A92EB12CDAE180910003909101030B
:1013C0000A970CF4F7C060E080E00E94170383E303
:1013D0000E94770383E292E00E944801809100031B
:1013E00090910103B5010E94120B072E000C880B8F
:1013F000990B0E949C0187EB92E00E94480160E0FB
:1014000082E00E9417038BE292E00E9448018091E3
:101410000303909104030E9487018091030390913C
:1014200004031816190644F685E0C82ED12CF12CB9
:10143000E12CC4E082E30E94770360E08C2F0E94DD
:1014400017038FE392E00E944801E0910503F091B9
:101450000603DE9D8001DF9D100D1124E00FF11FBA
:10146000808190E00E94870160E081E08C0F0E9403
:1014700017038BE492E00E9448018091050390914C
:1014800006038C0D9D1D0E94480160E082E08C0FD8
:101490000E94170389E592E00E944801E09105034C
:1014A000F0910603E00FF11F828993890E94DB010E
:1014B00060E083E08C0F0E94170385E692E00E94B3
:1014C0004801E0910503F0910603E00FF11F8689C2
:1014D000978923813481821B930B0E94870185EDBC
:1014E00092E00E94480160E084E08C0F0E941703A4
:1014F0008AE792E00E944801E0910503F09106031B
:10150000E00FF11F808991890E94870185ED92E0AB
:101510000E94480160E085E08C0F0E94170387E875
:1015200092E00E944801E0910503F0910603E00F6C
:10153000F11F838194810E94DB0160E086E08C0FC3
:101540000E9417038EE992E00E944801E091050392
:10155000F0910603E00FF11F848995890E94DB0159
:1015600060E087E08C0F0E9417038BEA92E00E94F4
:1015700048018091050390910603080F191FF80197
:10158000868997890E94DB01C75FFFEFEF1AFF0A88
:101590008AE1C80ED11C8091030390910403E816E0
:1015A000F9060CF447CF80910003909101030A974C
:1015B0000CF009CF0E94D30306CFCF93DF9300D066
:1015C0001F92CDB7DEB7109201031092000384E1A1
:1015D00090E09C838B8381E090E09A8389830E94D2
:1015E000F00828EC30E0AE014D5F5F4F6DE970E030
:1015F00086E092E00E94600828EC30E0AE014F5F88
:101600005F4F68ED79E08CE092E00E9460080E94F4
:101610005F0990E080E00F900F900F900F90DF91A6
:10162000CF91089597FB072E16F4009407D077FD0D
:1016300009D00E94260B07FC05D03EF490958195B9
:101640009F4F0895709561957F4F0895AA1BBB1B0E
:1016500051E107C0AA1FBB1FA617B70710F0A61BB2
:10166000B70B881F991F5A95A9F780959095BC01D3
:10167000CD0108950F931F93CF93DF93823091058F
:1016800010F482E090E0E0910B03F0910C0330E065
:1016900020E0B0E0A0E0309799F42115310509F47D
:1016A0004AC0281B390B24303105D8F58A819B812B
:1016B0006115710589F1FB0193838283FE0111C0DD
:1016C000408151810281138148175907E0F0481782
:1016D000590799F4109761F012960C93129713968C
:1016E0001C933296CF01DF91CF911F910F910895F6
:1016F00000930B0310930C03F4CF2115310551F027
:101700004217530738F0A901DB019A01BD01DF013F
:10171000F801C1CFEF01F9CF90930C0380930B0335
:10172000CDCFFE01E20FF31F819391932250310937
:1017300039832883D7CF2091090330910A03232BC3
:1017400041F4209102023091030230930A03209366
:10175000090320910002309101022115310541F465
:101760002DB73EB74091040250910502241B350B62
:10177000E0910903F0910A03E217F307A0F42E1B8E
:101780003F0B2817390778F0AC014E5F5F4F2417E5
:10179000350748F04E0F5F1F50930A03409309032B
:1017A000819391939FCFF0E0E0E09CCFCF93DF93C4
:1017B0000097E9F0FC01329713821282A0910B038B
:1017C000B0910C03ED0130E020E01097A1F42081EE
:1017D0003181820F931F2091090330910A0328174A
:1017E000390709F061C0F0930A03E0930903DF9120
:1017F000CF910895EA01CE17DF07E8F54A815B81B2
:101800009E0141155105B1F7E901FB83EA83499136
:101810005991C40FD51FEC17FD0761F480819181A8
:101820000296840F951FE9019983888382819381B1
:101830009B838A83F0E0E0E012968D919C91139750
:101840000097B9F52D913C911197CD010296820F29
:10185000931F2091090330910A032817390739F69D
:10186000309751F510920C0310920B03B0930A03BA
:10187000A0930903BCCFD383C28340815181840FDD
:10188000951FC817D90761F44E5F5F4F8881998112
:10189000480F591F518340838A819B8193838283A0
:1018A0002115310509F0B0CFF0930C03E0930B0341
:1018B0009ECFFD01DC01C0CF13821282D7CFFB0186
:1018C000DC0102C001900D9241505040D8F70895BC
:0418D000F894FFCFBA
:1018D40000000D032000626C696E6B007374617408
:1018E400730030313233343536373839414243446A
:1018F40045460054696D65723A20004E756D626507
:1019040072206F6620546872656164733A200054D3
:1019140068726561642049643A20005468726561A4
:1019240064206E616D653A200054687265616420BC
:1019340050433A2000537461636B205573616765AB
:101944003A200020627974657300537461636B20DC
:1019540053697A653A200043757272656E74207417
:101964006F70206F6620737461636B3A2000537448
:1019740061636B20626173653A2000537461636B29
:1019840020656E643A200020202020202020202082
:101994002020202020202020202020202020202043
:1019A400202020200020627974657320202000000C
:00000001FF
