:100000000C947A000C949B000C949B000C949B0025
:100010000C949B000C949B000C949B000C949B00F4
:100020000C949B000C949B000C949B000C949B00E4
:100030000C949B000C949B000C949B000C949B00D4
:100040000C949B000C949B000C949B000C949B00C4
:100050000C949B000C942D070C949B000C949B001B
:100060000C949B000C949B000C949B000C949B00A4
:100070000C949B000C949B000C949B000C949B0094
:100080000C949B000C949B000C949B000C949B0084
:100090000C949B000C949B000C949B000C949B0074
:1000A0000C949B000C949B000C949B000C949B0064
:1000B0000C949B000C949B000C949B000C949B0054
:1000C0000C949B000C949B000C949B000C949B0044
:1000D0000C949B000C949B000C949B000C949B0034
:1000E0000C949B000C94EE050C9493070C949403D1
:1000F0000C94160C11241FBECFEFD1E2DEBFCDBF92
:1001000000E00CBF13E0A0E0B2E0E8E3FBE100E0B8
:100110000BBF02C007900D92AA36B107D9F723E0B2
:10012000AAE6B3E001C01D92A439B207E1F70E942C
:10013000160C0C949A0D0C94000082E08093C00081
:100140001092C50080E18093C400E1ECF0E0808172
:100150008861808308958091C000881F8827881F48
:1001600008958091C00087FF03C08091C600089564
:100170008FEF08959091C10095FDFCCF9091C00044
:1001800095FFF8CF8093C60081E00895FC0120819F
:10019000222371F031969091C10095FDFCCF909192
:1001A000C00095FFF8CF2093C60021912111F3CF15
:1001B00008950F931F93CF93DF93CB011092890380
:1001C00018161906DCF4E9E8F3E0CAE6D3E0C095B6
:1001D000D0950AE010E09E012E0F3F1FB8010E944B
:1001E000440C805D8293CB010097A9F7C901865921
:1001F0009C4FDF91CF911F910F9108958AE693E074
:10020000DF91CF911F910F910895EF92FF920F937D
:100210001F93CF93DF930097B1F1109289031816C3
:1002200019060CF043C0C9E8D3E00AE613E00095D4
:1002300010952AE0E22EF12CF801EC0FFD1FB7011A
:100240000E94440C20E3280F2A93CB010097A1F7CA
:10025000E659FC4F31969091C10095FDFCCF9091ED
:10026000C00095FFF8CF2093C60021912111F3CF54
:10027000DF91CF911F910F91FF90EF9008958091A2
:10028000C00085FD09C08091C10085FFF8CF809135
:10029000C10085FDF8CFF3CF80E38093C600DF91E6
:1002A000CF911F910F91FF90EF90089520916A03D5
:1002B0002223A9F3EAE6F3E0CDCFEF92FF920F936A
:1002C0001F93CF93DF93CB01109289031816190661
:1002D00064F5C9E8D3E00AE613E0009510952AE03A
:1002E000E22EF12CF801EC0FFD1FB7010E94440C27
:1002F00020E3280F2A93CB010097A1F7E659FC4F82
:1003000031969091C10095FDFCCF9091C00095FF72
:10031000F8CF2093C60021912111F3CFDF91CF9127
:100320001F910F91FF90EF90089520916A0322236F
:10033000A9F3EAE6F3E0E4CFCF92DF92EF92FF92E7
:100340000F931F93CF93DF93CDB7DEB7E1970FB62F
:10035000F894DEBF0FBECDBF21E1E5E1F2E0DE01A2
:10036000919601900D922A95E1F79E012F5F3F4FE4
:10037000690120E2D6011D922A95E9F7FE01B096A7
:100380000EEF1FEF0C191D09A8014E0F5F1FBA01D8
:1003900031979C012F70307837FF06C0215031090A
:1003A000206F3F6F2F5F3F4FA1E2EA2EF12CEC0E42
:1003B000FD1E2E0D3F1DD9012C91208397FD0F9618
:1003C0009595879595958795959587959595879515
:1003D00018161906CCF28091C10085FDFCCF8091E2
:1003E000C00085FFF8CF80E38093C6008091C100F4
:1003F00085FDFCCF8091C00085FFF8CF88E7809312
:10040000C6004B3151057CF04F5F5F4FF601E40FA2
:10041000F51F9601255E3F4F80E38293E217F307B5
:10042000E1F76AE170E0FE01E60FF71F9281992380
:1004300091F06E5F7F4FD601A60FB71F8091C1006C
:1004400085FDFCCF8091C00085FFF8CF9093C6005A
:100450009D919111F3CFE1960FB6F894DEBF0FBED8
:10046000CDBFDF91CF911F910F91FF90EF90DF9063
:10047000CF900895CF92DF92EF92FF920F931F9348
:10048000CF93DF93CDB7DEB7E1970FB6F894DEBF19
:100490000FBECDBF21E1E5E1F2E0DE0191960190D2
:1004A0000D922A95E1F79E012F5F3F4F690120E2EF
:1004B000D6011D922A95E9F7DE0190960EEF1FEF07
:1004C0000C191D0998012A0F3B1FA9011197CB0197
:1004D0008F70907897FF04C00197806F9F6F01968F
:1004E000E1E2F0E0EC0FFD1F8E0F9F1FFC01808109
:1004F0008C9377FF02C0615F7F4F75956795759507
:100500006795759567957595679516161706D4F2D4
:100510008091C10085FDFCCF8091C00085FFF8CFA0
:1005200080E38093C6008091C10085FDFCCF80915F
:10053000C00085FFF8CF88E78093C6002B313105D6
:100540007CF02F5F3F4FD601A20FB31F9601255EAF
:100550003F4F80E38E93A217B307E1F74AE150E0E3
:10056000DE01A40FB51F12969C91992391F04E5F66
:100570005F4FF601E40FF51F8091C10085FDFCCFB0
:100580008091C00085FFF8CF9093C60091919111A2
:10059000F3CFE1960FB6F894DEBF0FBECDBFDF916B
:1005A000CF911F910F91FF90EF90DF90CF90089522
:1005B0000F931F93CF93DF93C62F282F30E0C901ED
:1005C0002115310561F0E9E8F3E00AE010E0B80137
:1005D0000E94440C805D8293CB010097C1F7D0E06C
:1005E000CE0110928903209761F0E9E8F3E00AE078
:1005F00010E0B8010E94440C805D8293CB0100970B
:10060000C1F79091C10095FDFCCF8091C00085FF9E
:10061000F8CF8BE18093C6009091C10095FDFCCF8F
:100620008091C00085FFF8CF8BE58093C600C9019B
:100630000E9405018091C10085FDFCCF8091C00022
:1006400085FFF8CF8BE38093C600CE010E940501A1
:100650008091C10085FDFCCF8091C00085FFF8CF5F
:1006600088E48093C600DF91CF911F910F91089588
:100670009091C10095FDFCCF9091C00095FFF8CFFF
:100680009BE19093C6009091C10095FDFCCF9091A5
:10069000C00095FFF8CF9BE59093C6009091C100F4
:1006A00095FDFCCF9091C00095FFF8CF93E3909318
:1006B000C6009091C10095FDFCCF9091C00095FFC0
:1006C000F8CF8093C6008091C10085FDFCCF80915A
:1006D000C00085FFF8CF8DE68093C6000895F0E056
:1006E000E4E2508160E86083E5E2508160E8608385
:1006F0000895F0E0E4E2508160E86083E5E2508133
:1007000060E060830895181619066CF430E020E06C
:10071000EFE9FFE03197F1F700C000002F5F3F4F96
:1007200082179307A9F70895FC01208131818091F8
:10073000C0004FEF87FD4091C600F0E0E4E2508139
:1007400060E86083E5E2508160E86083121613067A
:1007500064F490E080E0EFE9FFE03197F1F700C04A
:100760000000019628173907B1F7F0E0E4E2508164
:1007700060E86083E5E2508160E060831216130652
:1007800064F490E080E0EFE9FFE03197F1F700C01A
:100790000000019628173907B1F7413631F04A3782
:1007A00009F0C5CF2C5E3F4FC2CF24513109BFCFD6
:1007B0008091C10085FDFCCF8091C00085FFF8CFFE
:1007C0008BE18093C6008091C10085FDFCCF8091B4
:1007D000C00085FFF8CF8BE58093C6008091C100F3
:1007E00085FDFCCF8091C00085FFF8CF82E3809328
:1007F000C6008091C10085FDFCCF8091C00085FFBF
:10080000F8CF8AE48093C6000895FFCFE4E68E2EE9
:10081000912CFAE1CF2E80918A0390918B030A9755
:100820000CF4D9C160E080E00E94D80283E30E940A
:100830003803E7E2F2E094E58091C10085FDFCCF4A
:100840008091C00085FFF8CF9093C60091919111DF
:10085000F3CF80918A0390918B03B4010E94440CE2
:10086000072E000C880B990B0E945D01EFE2F2E06D
:1008700090E28091C10085FDFCCF8091C00085FF92
:10088000F8CF9093C60091919111F3CF60E082E090
:100890000E94D802EDE4F2E09EE48091C10085FD63
:1008A000FCCF8091C00085FFF8CF9093C600919156
:1008B0009111F3CFE0918C03F0918D03EF52FF4F34
:1008C000808190E00E940501E0918C03F0918D03FE
:1008D000EF52FF4F8081882309F49DCF05E010E09F
:1008E000D0E0C0E074E0D72E82E30E943803EE240B
:1008F000E394ED0C60E08D2D0E94D802E1E6F2E079
:1009000094E58091C10085FDFCCF8091C00085FFFA
:10091000F8CF9093C60091919111F3CFE0918C03A1
:10092000F0918D03CC9EC001CD9E900D1124E80F57
:10093000F91F808190E00E94050162E0F62EFD0C17
:1009400060E08E2D0E94D802EDE6F2E094E5809101
:10095000C10085FDFCCF8091C00085FFF8CF90934A
:10096000C60091919111F3CFE0918C03F0918D032A
:10097000E00FF11F9081992371F031968091C100B1
:1009800085FDFCCF8091C00085FFF8CF9093C60015
:1009900091919111F3CF53E0E52EED0C60E08F2D96
:1009A0000E94D802EBE7F2E094E58091C10085FD5A
:1009B000FCCF8091C00085FFF8CF9093C600919145
:1009C0009111F3CFE0918C03F0918D03CC9EC00187
:1009D000CD9E900D1124E80FF91F828993890E9402
:1009E0009C0144E0A42EAD0C60E08E2D0E94D80244
:1009F000E7E8F2E093E58091C10085FDFCCF8091AE
:100A0000C00085FFF8CF9093C60091919111F3CF6C
:100A1000E0918C03F0918D03CC9EC001CD9E900D92
:100A20001124E80FF91F8689978923813481821B5D
:100A3000930B0E94050135E9E32E32E0F32EF70116
:100A400090E28091C10085FDFCCF8091C00085FFC0
:100A5000F8CF9093C60091919111F3CF25E0B22E7B
:100A6000BD0C60E08A2D0E94D802EFE9F2E093E528
:100A70008091C10085FDFCCF8091C00085FFF8CF3B
:100A80009093C60091919111F3CFE0918C03F09176
:100A90008D03CC9EC001CD9E900D1124E80FF91F4F
:100AA000808991890E94050190E28091C10085FDB5
:100AB000FCCF8091C00085FFF8CF9093C600F7016E
:100AC00091917F019111F1CF96E0E92EED0C60E05C
:100AD0008B2D0E94D802ECEAF2E093E48091C100F1
:100AE00085FDFCCF8091C00085FFF8CF9093C600B4
:100AF00091919111F3CFE0918C03F0918D03CC9EF5
:100B0000C001CD9E900D1124E80FF91F83819481BF
:100B10000E949C0187E0F82EFD0C60E08E2D0E9463
:100B2000D802E3ECF2E093E58091C10085FDFCCFB3
:100B30008091C00085FFF8CF9093C60091919111EC
:100B4000F3CFE0918C03F0918D03CC9EC001CD9E3C
:100B5000900D1124E80FF91F848995890E949C014A
:100B600060E08F2D0E94D802E0EDF2E093E58091E5
:100B7000C10085FDFCCF8091C00085FFF8CF909328
:100B8000C60091919111F3CFE0918C03F0918D0308
:100B9000CC9EC001CD9E900D1124E80FF91F8689CF
:100BA00097890E949C01F9E0DF0E2196065E1F4F97
:100BB000E0918C03F0918D03EF52FF4F80818C17F1
:100BC0001D0611F00CF090CE80918A0390918B035A
:100BD0000A970CF027CE0E94D80324CE7894912F48
:100BE000802FFD2FEC2F09949F92AF92BF92CF924E
:100BF000DF92EF92FF920F931F93CF93DF937C01CD
:100C0000B62EC72EA42E952E8901C9010E946C0C08
:100C1000EC0120918C0330918D03F901EF52FF4FCD
:100C200090818AE1D82EF901D99EE00DF11D1124A1
:100C3000D58BC48BAE01400F511F578B468BA8013B
:100C400046515109C40FD51FD18FC08F1882C98258
:100C5000BA829B82AC821D821E821F8218861986F0
:100C60001A861B861C861D861E861F86188A198A70
:100C70001A8A1B8A4EEE55E05C8B4D8B9083B28AAC
:100C8000C38AF70101900020E9F7AF01B9019D9DEA
:100C9000600D711D1124CB014E195F09B701059636
:100CA0000E94910DE0918C03F0918D03DF01AF5212
:100CB000BF4F8C91D89EE00DF11D1124118B008B3C
:100CC000D483C3838F5F8C93DF91CF911F910F915A
:100CD000FF90EF90DF90CF90BF90AF909F900895DE
:100CE0000E949D0081EE90E00E946C0C90938D0319
:100CF00080938C03FC01E053FF4F21E02083319669
:100D000020838E529F4FFC01108211821282138227
:100D1000089520918C0330918D03F901E053FF4F2A
:100D200080812F523F4FD9012C912150330B8217D4
:100D300013061CF0108280E008958F5F8083089571
:100D4000EEE6F0E080818260808384B5826084BDBD
:100D500085B5856085BD8CE987BD08952F923F924A
:100D60004F925F926F927F928F929F92AF92BF92BB
:100D7000CF92DF92EF92FF920F931F93CF93DF9367
:100D8000F0E0EEE52081EDE53081F72FE62F31939D
:100D90002083F92FE82F51916081F0E0EEE5608328
:100DA000EDE55083DF91CF911F910F91FF90EF9070
:100DB000DF90CF90BF90AF909F908F907F906F907B
:100DC0005F904F903F902F900895CF93DF9300D086
:100DD0001F921F92CDB7DEB785E0EBEDF2E0DE01AA
:100DE000119601900D928A95E1F7EEE6F0E0808190
:100DF0008260808384B5826084BD85B5856085BD51
:100E00008CE987BD789480918C0390918D03FC01CF
:100E1000158A148A178A168A118E108E108226E17E
:100E20003CE0338B228B25E0FE013196DC011596E8
:100E300001900D922A95E1F7FC01118A108ABC01FC
:100E40006D5F7F4F4D960E94AE060F900F900F90F2
:100E50000F900F90DF91CF9108951F920F920FB6D0
:100E60000F9211240BB60F92FF920F931F932F93A3
:100E70003F934F935F936F937F938F939F93AF9322
:100E8000BF93CF93DF93EF93FF93C0918C03D091E7
:100E90008D03FE01E053FF4FF080DE01AF52BF4FE4
:100EA0008C918150990BF81619068CF1108203E091
:100EB00010E080918A0390918B03019690938B03AD
:100EC00080938A03BE018AE1F89E600D711D112492
:100ED0006D5F7F4FCE01800F911F0E94AE06FF9184
:100EE000EF91DF91CF91BF91AF919F918F917F91C2
:100EF0006F915F914F913F912F911F910F91FF90B3
:100F00000F900BBE0F900FBE0F901F90189501E031
:100F10000F0D00838AE1089F800111240D5F1F4F90
:100F2000C8CF08950895D0E0C0E087E30E94380359
:100F300080918A0390918B030A970CF4A5C0CB3063
:100F4000D1050CF4A7C0CE010B970A9708F4E4C0B2
:100F5000CE0145970A9708F414C1CE014F970A971E
:100F600008F476C1CE0189970A97E8F660E082E03E
:100F70000E94D8028BE392E00E94C60060E083E00A
:100F80000E94D80286E30E94380383E193E00E9426
:100F9000C60060E084E00E94D80286E30E94380325
:100FA0008BE193E00E94C60087E30E94380381E151
:100FB00093E00E94C60086E30E9438038EE593E02A
:100FC0000E94C60060E085E00E94D8028CE193E0B8
:100FD0000E94C60087E30E9438038DEF92E00E94D2
:100FE000C60086E30E9438038EE593E00E94C600A7
:100FF00060E086E00E94D8028DE193E00E94C60086
:1010000087E30E9438038BEF92E00E94C60086E3DC
:101010000E9438038DE193E00E94C60060E087E003
:101020000E94D8028CE193E00E94C60087E30E94F0
:1010300038038DEF92E00E94C60086E30E943803D9
:101040008EE593E00E94C60060E088E00E94D8022E
:101050008BE193E00E94C60087E30E94380381E1A0
:1010600093E00E94C60086E30E9438038EE593E079
:101070000E94C60060E089E00E94D80283E193E00C
:101080000E94C600219651CF0E94D803CB30D105D3
:101090000CF059CF60E082E00E94D8028CE392E02D
:1010A0000E94C60060E083E00E94D80280EE92E0D9
:1010B0000E94C60060E084E00E94D80288EE92E0C0
:1010C0000E94C60060E085E00E94D80280EF92E0B6
:1010D0000E94C60060E086E00E94D80289EF92E09C
:1010E0000E94C60060E087E00E94D80280EF92E094
:1010F0000E94C60060E088E00E94D80288EE92E07C
:101100000E94C60060E089E00E94D80280EE92E072
:101110000E94C600219609CF60E082E00E94D802BA
:1011200081E093E00E94C60060E083E00E94D80264
:1011300080EE92E00E94C60060E084E00E94D80247
:1011400088EE92E00E94C60060E085E00E94D8022E
:1011500080EF92E00E94C60060E086E00E94D80224
:101160008DEF92E00E94C60086E30E9438038DE175
:1011700093E00E94C60087E30E9438038DEF92E05F
:10118000AFCF60E082E00E94D8028CE392E00E9440
:10119000C60060E083E00E94D80280EE92E00E94E8
:1011A000C60060E084E00E94D80288EE92E00E94CF
:1011B000C60060E085E00E94D8028BE093E00E94C8
:1011C000C60086E30E9438038DE193E00E94C600CA
:1011D00087E30E9438038BEE92E00E94C60060E035
:1011E00086E00E94D8028CE093E00E94C60086E36D
:1011F0000E9438038DE193E00E94C60087E30E94BD
:10120000380381E193E00E94C60086E30E94380320
:101210008DE193E00E94C60087E30E9438038CE0D2
:1012200093E00E94C60060E087E00E94D8028BE055
:1012300093E00E94C60086E30E9438038DE193E0AC
:101240000E94C60087E30E9438038BEE92E050CFE5
:1012500060E082E00E94D80281E093E00E94C60034
:1012600060E083E00E94D80280EE92E00E94C60017
:1012700060E084E00E94D8028FE093E00E94C60004
:1012800086E30E9438038DE193E00E94C60087E365
:101290000E9438038CEE92E00E94C60060E085E078
:1012A0000E94D80280E193E00E94C60086E30E947B
:1012B00038038DE193E00E94C60087E30E94380363
:1012C00081E193E00E94C60086E30E9438038DE12D
:1012D00093E00E94C60087E30E9438038CEE92E000
:1012E0000E94C60060E086E00E94D80281E193E09F
:1012F0000E94C60086E30E9438038DE193E00E94BD
:10130000C60087E30E9438038DEF92E00E94C6007A
:1013100086E30E9438038DE193E00E94C60087E3D4
:101320000E94380381E193E00E94C60060E087E0FC
:101330000E94D80280E193E00E94C60086E30E94EA
:1013400038038DE193E00E94C60087E30E943803D2
:1013500081E193E00E94C60086E30E9438038DE19C
:1013600093E00E94C60087E30E9438038CEE92E06F
:101370000E94C60060E088E00E94D8028FE093E0FF
:101380000E94C60086E30E9438038DE193E00E942C
:10139000C60087E30E9438038CEE92E0B1CED0E025
:1013A000C0E080918A0390918B030A970CF457C098
:1013B000CB30D1050CF459C0CE010B970A9708F435
:1013C0008EC0CE0145970A9708F4A8C0CE014F976A
:1013D0000A9708F4CAC0CE0189970A9700F760E01F
:1013E00082E00E94D80283E193E00E94C60060E0A0
:1013F00083E00E94D80281E593E00E94C60060E08D
:1014000084E00E94D80289E593E00E94C60060E073
:1014100085E00E94D80282E693E00E94C60060E068
:1014200086E00E94D80289E593E00E94C60060E051
:1014300087E00E94D80281E593E00E94C60060E048
:1014400088E00E94D80283E193E00E94C6002196C2
:1014500080918A0390918B030A970CF0A9CF0E9488
:10146000D803CB30D1050CF0A7CF60E082E00E941A
:10147000D80280EE92E00E94C60060E083E00E9405
:10148000D80288EE92E00E94C60060E084E00E94EC
:10149000D80280EF92E00E94C60060E085E00E94E2
:1014A000D80289EF92E00E94C60060E086E00E94C8
:1014B000D80280EF92E00E94C60060E087E00E94C0
:1014C000D80288EE92E00E94C60060E088E00E94A8
:1014D000D80280EE92E00E94C600219662CF60E0C2
:1014E00082E00E94D80280EE92E00E94C60060E096
:1014F00083E00E94D80288EE92E00E94C60060E07D
:1015000084E00E94D80280EF92E00E94C60060E072
:1015100085E00E94D8028FE193E0C5CF60E082E0D1
:101520000E94D80280EE92E00E94C60060E083E054
:101530000E94D80288EE92E00E94C60060E084E03B
:101540000E94D80287E293E00E94C60060E085E036
:101550000E94D80280E393E00E94C60060E086E02B
:101560000E94D80287E293E0A6CF60E082E00E946A
:10157000D80280EE92E00E94C60060E083E00E9404
:10158000D80288E393E00E94C60060E084E00E94F5
:10159000D80280E493E00E94C60060E085E00E94EB
:1015A000D80289E493E00E94C60060E086E00E94D1
:1015B000D80280E493E00E94C60060E087E00E94C9
:1015C000D80288E393E07FCF089523E0A22EB12CC8
:1015D00080918A0390918B0302970CF424C160E000
:1015E00080E00E94D80283E30E94380386E292E002
:1015F0000E94C60080918A0390918B0364E670E09C
:101600000E94440C072E000C880B990B0E945D0170
:101610008EE292E00E94C60060E082E00E94D80262
:101620008CE492E00E94C600E0918C03F0918D035F
:10163000EF52FF4F808190E00E940501E0918C0302
:10164000F0918D03EF52FF4F8081882309F285E0EE
:10165000C82ED12CD0E0F12CE12C9EE1292ECDC05A
:10166000C701B5010E94440C829DC02D112476E172
:10167000972EE5E18E2EF4E17F2EA3E16A2EB2E1F2
:101680005B2E11E1412E00E1302E1FE082E30E942B
:1016900038036C2F812F0E94D80280E692E00E94CE
:1016A000C600E0918C03F0918D038AE18E9D80014C
:1016B0008F9D100D1124E00FF11F808190E00E949A
:1016C00005016C2F832D0E94D8028CE692E00E94C7
:1016D000C60080918C0390918D038C0D9D1D0E94FE
:1016E000C6006C2F842D0E94D8028AE792E00E94E7
:1016F000C600E0918C03F0918D03E00FF11F828909
:1017000093890E949C016C2F852D0E94D80286E847
:1017100092E00E94C600E0918C03F0918D03E00FEF
:10172000F11F8689978923813481821B930B0E9444
:10173000050184E992E00E94C6006C2F862D0E946C
:10174000D8028EE992E00E94C600E0918C03F091ED
:101750008D03E00FF11F808991890E94050184E9C2
:1017600092E00E94C6006C2F872D0E94D8028BEA5F
:1017700092E00E94C600E0918C03F0918D03E00F8F
:10178000F11F838194810E949C016C2F882D0E94FF
:10179000D80282EC92E00E94C600E0918C03F091A6
:1017A0008D03E00FF11F848995890E949C016C2FA5
:1017B000892D0E94D8028FEC92E00E94C600809191
:1017C0008C0390918D03080F191FF8018689978962
:1017D0000E949C01FFEFEF1AFF0AD25E8AE1C80E59
:1017E000D11CE0918C03F0918D03EF52FF4F80816B
:1017F0008E151F0409F00CF4EBCE83E0E816F1041B
:101800000CF02ECFCD2F8BE0982E9AE0892E29E078
:10181000722E38E0632E47E0542E56E0452E65E0E8
:10182000362E14E033CF0E94D803D9CECF93DF9366
:1018300000D01F92CDB7DEB710928B0310928A03AF
:1018400084E190E09C838B8381E090E09A8389839C
:101850000E94700628EC30E0AE014D5F5F4F64E9F6
:1018600073E086E092E00E94F40528EC30E0AE01DF
:101870004F5F5F4F63E977E08CE092E00E94F405F0
:101880000E94E5067894FFCF97FB072E16F400948C
:1018900007D077FD09D00E94580C07FC05D03EF414
:1018A000909581959F4F0895709561957F4F08950C
:1018B000AA1BBB1B51E107C0AA1FBB1FA617B70776
:1018C00010F0A61BB70B881F991F5A95A9F7809592
:1018D0009095BC01CD0108950F931F93CF93DF9393
:1018E0008230910510F482E090E0E0919203F09153
:1018F000930330E020E0B0E0A0E0309799F42115A8
:10190000310509F44AC0281B390B24303105D8F5BC
:101910008A819B816115710589F1FB019383828323
:10192000FE0111C04081518102811381481759077E
:10193000E0F04817590799F4109761F012960C934C
:10194000129713961C933296CF01DF91CF911F917E
:101950000F9108950093920310939303F4CF2115F0
:10196000310551F04217530738F0A901DB019A0104
:10197000BD01DF01F801C1CFEF01F9CF90939303CF
:1019800080939203CDCFFE01E20FF31F81939193D9
:101990002250310939832883D7CF20919003309189
:1019A0009103232B41F420910202309103023093E2
:1019B00091032093900320910002309101022115A0
:1019C000310541F42DB73EB7409104025091050214
:1019D000241B350BE0919003F0919103E217F3077C
:1019E000A0F42E1B3F0B2817390778F0AC014E5F8F
:1019F0005F4F2417350748F04E0F5F1F5093910338
:101A000040939003819391939FCFF0E0E0E09CCFCF
:101A1000CF93DF930097E9F0FC0132971382128293
:101A2000A0919203B0919303ED0130E020E0109774
:101A3000A1F420813181820F931F20919003309176
:101A400091032817390709F061C0F0939103E093DF
:101A50009003DF91CF910895EA01CE17DF07E8F5F3
:101A60004A815B819E0141155105B1F7E901FB8374
:101A7000EA8349915991C40FD51FEC17FD0761F412
:101A8000808191810296840F951FE9019983888353
:101A9000828193819B838A83F0E0E0E012968D91AE
:101AA0009C9113970097B9F52D913C911197CD0119
:101AB0000296820F931F2091900330919103281773
:101AC000390739F6309751F510929303109292032B
:101AD000B0939103A0939003BCCFD383C283408182
:101AE0005181840F951FC817D90761F44E5F5F4F6E
:101AF00088819981480F591F518340838A819B8136
:101B0000938382832115310509F0B0CFF0939303BD
:101B1000E09392039ECFFD01DC01C0CF13821282BD
:101B2000D7CFFB01DC0102C001900D924150504023
:081B3000D8F70895F894FFCFE7
:101B3800000094032000626C696E6B00636F6E7323
:101B4800756D657200303132333435363738394186
:101B580042434445460054696D65723A200020208E
:101B6800202020202020202020202020202020206D
:101B78002020202020202020202020004E756D626B
:101B88006572206F6620546872656164733A20003C
:101B98005468726561642049643A2000546872652B
:101BA8006164206E616D653A2000546872656164F5
:101BB8002050433A2000537461636B20557361676A
:101BC800653A2000206279746573202020005374E0
:101BD80061636B2053697A653A20004375727265B8
:101BE8006E7420746F70206F6620737461636B3A33
:101BF8002000537461636B20626173653A2000535F
:101C08007461636B20656E643A20006D61696E00D3
:101C180020202023202020002020232323202000F0
:101C280020232323232320200023232323232323A8
:101C38000050524F445543494E470020232300206B
:101C480020230020202030202020002020300023C6
:101C58002323302323230020232330232320200081
:101C68002323302330232300202023302320200067
:101C78002023302330232020002330232323302324
:101C88000020203023302020002030232323302040
:0A1C98002000302323232323300013
:00000001FF
