:100000000C947C000C949D000C949D000C949D001D
:100010000C949D000C949D000C949D000C949D00EC
:100020000C949D000C949D000C949D000C949D00DC
:100030000C949D000C949D000C949D000C949D00CC
:100040000C949D000C9449070C949D000C949D0009
:100050000C949D000C9447080C949D000C949D00FA
:100060000C949D000C949D000C949D000C949D009C
:100070000C949D000C949D000C949D000C949D008C
:100080000C949D000C949D000C949D000C949D007C
:100090000C949D000C949D000C949D000C949D006C
:1000A0000C949D000C949D000C949D000C949D005C
:1000B0000C949D000C949D000C949D000C949D004C
:1000C0000C949D000C949D000C949D000C949D003C
:1000D0000C949D000C949D000C949D000C949D002C
:1000E0000C949D000C94F0050C9496030C94231131
:1000F0000C94880F0C94901211241FBECFEFD1E204
:10010000DEBFCDBF00E00CBF14E0A0E0B2E0E6E44B
:10011000F8E200E00BBF02C007900D92A831B107D2
:10012000D9F724E0A8E1B4E001C01D92A835B207D8
:10013000E1F70E9490120C9421140C94000082E0CC
:100140008093C0001092C50080E18093C400E1EC70
:10015000F0E080818861808308958091C000881FCD
:100160008827881F08958091C00087FF03C0809171
:10017000C60008958FEF08959091C10095FDFCCFC2
:100180009091C00095FFF8CF8093C60081E008955C
:10019000FC012081222371F031969091C10095FDE0
:1001A000FCCF9091C00095FFF8CF2093C60021911D
:1001B0002111F3CF08950F931F93CF93DF93CB01BA
:1001C0001092370418161906DCF4E7E3F4E0C8E1EE
:1001D000D4E0C095D0950AE010E09E012E0F3F1F9D
:1001E000B8010E94CB12805D8293CB010097A9F7E2
:1001F000C901885E9B4FDF91CF911F910F910895A8
:1002000088E194E0DF91CF911F910F910895EF92D3
:10021000FF920F931F93CF93DF930097B1F110924A
:100220003704181619060CF043C0C7E3D4E008E100
:1002300014E0009510952AE0E22EF12CF801EC0F65
:10024000FD1FB7010E94CB1220E3280F2A93CB0198
:100250000097A1F7E85EFB4F31969091C10095FDA4
:10026000FCCF9091C00095FFF8CF2093C60021915C
:100270002111F3CFDF91CF911F910F91FF90EF905C
:1002800008958091C00085FD09C08091C10085FF5F
:10029000F8CF8091C10085FDF8CFF3CF80E3809344
:1002A000C600DF91CF911F910F91FF90EF900895BD
:1002B000209118042223A9F3E8E1F4E0CDCFEF92D6
:1002C000FF920F931F93CF93DF93CB0110923704CC
:1002D0001816190664F5C7E3D4E008E114E00095A8
:1002E00010952AE0E22EF12CF801EC0FFD1FB7016A
:1002F0000E94CB1220E3280F2A93CB010097A1F78D
:10030000E85EFB4F31969091C10095FDFCCF909136
:10031000C00095FFF8CF2093C60021912111F3CFA3
:10032000DF91CF911F910F91FF90EF900895209151
:1003300018042223A9F3E8E1F4E0E4CFCF92DF929E
:10034000EF92FF920F931F93CF93DF93CDB7DEB75A
:10035000E1970FB6F894DEBF0FBECDBF21E1EBE110
:10036000F2E0DE01919601900D922A95E1F79E014F
:100370002F5F3F4F690120E2D6011D922A95E9F7D0
:10038000FE01B0960EEF1FEF0C191D09A8014E0FCC
:100390005F1FBA0131979C012F70307837FF06C07C
:1003A00021503109206F3F6F2F5F3F4FA1E2EA2EAE
:1003B000F12CEC0EFD1E2E0D3F1DD9012C9120833A
:1003C00097FD0F9695958795959587959595879522
:1003D0009595879518161906CCF28091C10085FD78
:1003E000FCCF8091C00085FFF8CF80E38093C600EA
:1003F0008091C10085FDFCCF8091C00085FFF8CFC2
:1004000088E78093C6004B3151057CF04F5F5F4F0A
:10041000F601E40FF51F9601255E3F4F80E38293BE
:10042000E217F307E1F76AE170E0FE01E60FF71F5C
:100430009281992391F06E5F7F4FD601A60FB71F6F
:100440008091C10085FDFCCF8091C00085FFF8CF71
:100450009093C6009D919111F3CFE1960FB6F89459
:10046000DEBF0FBECDBFDF91CF911F910F91FF90E7
:10047000EF90DF90CF900895CF92DF92EF92FF92AE
:100480000F931F93CF93DF93CDB7DEB7E1970FB6EE
:10049000F894DEBF0FBECDBF21E1EBE1F2E0DE015B
:1004A000919601900D922A95E1F79E012F5F3F4FA3
:1004B000690120E2D6011D922A95E9F7DE019096A6
:1004C0000EEF1FEF0C191D0998012A0F3B1FA90100
:1004D0001197CB018F70907897FF04C00197806FC0
:1004E0009F6F0196E1E2F0E0EC0FFD1F8E0F9F1F62
:1004F000FC0180818C9377FF02C0615F7F4F75950F
:1005000067957595679575956795759567951616B1
:100510001706D4F28091C10085FDFCCF8091C00008
:1005200085FFF8CF80E38093C6008091C10085FDF0
:10053000FCCF8091C00085FFF8CF88E78093C6008C
:100540002B3131057CF02F5F3F4FD601A20FB31F37
:100550009601255E3F4F80E38E93A217B307E1F724
:100560004AE150E0DE01A40FB51F12969C91992339
:1005700091F04E5F5F4FF601E40FF51F8091C100CF
:1005800085FDFCCF8091C00085FFF8CF9093C60019
:1005900091919111F3CFE1960FB6F894DEBF0FBEA3
:1005A000CDBFDF91CF911F910F91FF90EF90DF9022
:1005B000CF9008950F931F93CF93DF93C62F282FCB
:1005C00030E0C9012115310561F0E7E3F4E00AE00C
:1005D00010E0B8010E94CB12805D8293CB0100979E
:1005E000C1F7D0E0CE0110923704209761F0E7E325
:1005F000F4E00AE010E0B8010E94CB12805D829323
:10060000CB010097C1F79091C10095FDFCCF80917F
:10061000C00085FFF8CF8BE18093C6009091C100A8
:1006200095FDFCCF8091C00085FFF8CF8BE58093CE
:10063000C600C9010E9407018091C10085FDFCCF61
:100640008091C00085FFF8CF8BE38093C600CE0178
:100650000E9407018091C10085FDFCCF8091C00000
:1006600085FFF8CF88E48093C600DF91CF911F917A
:100670000F9108959091C10095FDFCCF9091C0001D
:1006800095FFF8CF9BE19093C6009091C10095FD36
:10069000FCCF9091C00095FFF8CF9BE59093C600EA
:1006A0009091C10095FDFCCF9091C00095FFF8CFCF
:1006B00093E39093C6009091C10095FDFCCF90917B
:1006C000C00095FFF8CF8093C6008091C10085FDE2
:1006D000FCCF8091C00085FFF8CF8DE68093C600E7
:1006E0000895F0E0E4E2508160E86083E5E2508143
:1006F00060E860830895F0E0E4E2508160E86083A0
:10070000E5E2508160E060830895181619066CF4E4
:1007100030E020E0EFE9FFE03197F1F700C00000A2
:100720002F5F3F4F82179307A9F70895FC0120819F
:1007300031818091C0004FEF87FD4091C600F0E00D
:10074000E4E2508160E86083E5E2508160E8608324
:100750001216130664F490E080E0EFE9FFE03197B1
:10076000F1F700C00000019628173907B1F7F0E053
:10077000E4E2508160E86083E5E2508160E06083FC
:100780001216130664F490E080E0EFE9FFE0319781
:10079000F1F700C00000019628173907B1F741367C
:1007A00031F04A3709F0C5CF2C5E3F4FC2CF2451FC
:1007B0003109BFCF8091C10085FDFCCF8091C00081
:1007C00085FFF8CF8BE18093C6008091C10085FD45
:1007D000FCCF8091C00085FFF8CF8BE58093C600E9
:1007E0008091C10085FDFCCF8091C00085FFF8CFCE
:1007F00082E38093C6008091C10085FDFCCF80918B
:10080000C00085FFF8CF8AE48093C6000895FFCF2B
:10081000E4E68E2E912CFFE1CF2E8091380490914A
:1008200039040A970CF4D9C160E080E00E94DA0232
:1008300083E30E943A03EDE2F2E094E58091C10087
:1008400085FDFCCF8091C00085FFF8CF9093C60056
:1008500091919111F3CF8091380490913904B401B2
:100860000E94CB12072E000C880B990B0E945F018F
:10087000E5E3F2E090E28091C10085FDFCCF80913C
:10088000C00085FFF8CF9093C60091919111F3CFEE
:1008900060E082E00E94DA02E3E5F2E09EE480910B
:1008A000C10085FDFCCF8091C00085FFF8CF9093FB
:1008B000C60091919111F3CFE0913C04F0913D0479
:1008C000E750FF4F808190E00E940701E0913C04D7
:1008D000F0913D04E750FF4F8081882309F49DCFBC
:1008E0000AE010E0D0E0C0E074E0D72E82E30E947E
:1008F0003A03EE24E394ED0C60E08D2D0E94DA02C1
:10090000E7E6F2E094E58091C10085FDFCCF80919F
:10091000C00085FFF8CF9093C60091919111F3CF5D
:10092000E0913C04F0913D04CC9EC001CD9E900D21
:100930001124E80FF91F808190E00E94070162E016
:10094000F62EFD0C60E08E2D0E94DA02E3E7F2E065
:1009500094E58091C10085FDFCCF8091C00085FFAA
:10096000F8CF9093C60091919111F3CFE0913C04A0
:10097000F0913D04E00FF11F9081992371F03196C1
:100980008091C10085FDFCCF8091C00085FFF8CF2C
:100990009093C60091919111F3CF53E0E52EED0CA9
:1009A00060E08F2D0E94DA02E1E8F2E094E58091A8
:1009B000C10085FDFCCF8091C00085FFF8CF9093EA
:1009C000C60091919111F3CFE0913C04F0913D0468
:1009D000CC9EC001CD9E900D1124E80FF91F878990
:1009E000908D0E949E0144E0A42EAD0C60E08E2DFF
:1009F0000E94DA02EDE8F2E093E58091C10085FD06
:100A0000FCCF8091C00085FFF8CF9093C6009191F4
:100A10009111F3CFE0913C04F0913D04CC9EC001D4
:100A2000CD9E900D1124E80FF91F838D948D2085A4
:100A30003185821B930B0E9407013BE9E32E32E0D4
:100A4000F32EF70190E28091C10085FDFCCF8091EB
:100A5000C00085FFF8CF9093C60091919111F3CF1C
:100A600025E0B22EBD0C60E08A2D0E94DA02E5EA94
:100A7000F2E093E58091C10085FDFCCF8091C0003C
:100A800085FFF8CF9093C60091919111F3CFE0913B
:100A90003C04F0913D04CC9EC001CD9E900D1124EC
:100AA000E80FF91F858996890E94070190E28091DD
:100AB000C10085FDFCCF8091C00085FFF8CF9093E9
:100AC000C600F70191917F019111F1CF96E0E92ED7
:100AD000ED0C60E08B2D0E94DA02E2EBF2E093E491
:100AE0008091C10085FDFCCF8091C00085FFF8CFCB
:100AF0009093C60091919111F3CFE0913C04F09155
:100B00003D04CC9EC001CD9E900D1124E80FF91F2D
:100B1000808591850E949E0187E0F82EFD0C60E0A3
:100B20008E2D0E94DA02E9ECF2E093E58091C1009B
:100B300085FDFCCF8091C00085FFF8CF9093C60063
:100B400091919111F3CFE0913C04F0913D04CC9E42
:100B5000C001CD9E900D1124E80FF91F818D928D5B
:100B60000E949E0160E08F2D0E94DA02E6EDF2E025
:100B700093E58091C10085FDFCCF8091C00085FF89
:100B8000F8CF9093C60091919111F3CFE0913C047E
:100B9000F0913D04CC9EC001CD9E900D1124E80F34
:100BA000F91F838D948D0E949E01F9E0DF0E21963E
:100BB000E0913C04F0913D04E750FF4F8081015EDD
:100BC0001F4F8C171D0611F00CF090CE8091380449
:100BD000909139040A970CF027CE0E94DA0324CEB4
:100BE0007894912F802FFD2FEC2F09949F92AF9234
:100BF000BF92CF92DF92EF92FF920F931F93CF930A
:100C0000DF936C01B62E072FA42E952E7901C90112
:100C10000E94F31220913C0430913D04F901E75009
:100C2000FF4F40811FE1D901149FA00DB11D112478
:100C30005A969C938E9359974081D901149FA00D89
:100C4000B11D1124AC014E0D5F1D5C965C934E935B
:100C50005B974081D901149FA00DB11D11241196FD
:100C60001C924081D901149FA00DB11D1124129630
:100C70001D921D921D921C9215974081D901149FBF
:100C8000A00DB11D112441E050E017965C934E93E6
:100C90001697E7016697C80FD91F8081D901189F61
:100CA000A00DB11D11245E96DC93CE935D97188242
:100CB0000983BA829B82AC821D821E821F821886A3
:100CC00019861A861B861C861D861E861F86188A14
:100CD000198A1A8A1B8A80EF95E09C8B8D8B9081F4
:100CE0008081D901199FA00DB11D11248C938081A1
:100CF000D901189FA00DB11D11245796BC9257978A
:100D000058960C93D6010D900020E9F7AD01808133
:100D1000B901819F600D711D1124CB014C195D0932
:100D2000B6010A960E94181480913C0490913D04EB
:100D3000FC01E750FF4F2081DC01129FA00DB11D87
:100D400011245696FC92EE9255972081129F800DA9
:100D5000911D1124DC011996DC93CE9318978081A4
:100D60008F5F8083DF91CF911F910F91FF90EF9064
:100D7000DF90CF90BF90AF909F9008950E949F000A
:100D800089E091E00E94F31290933D0480933C042B
:100D9000FC01E850FF4F21E02083319620838650EC
:100DA0009F4FFC01108211821282138284E190E035
:100DB0000E94F31290933B0480933A048AE394E0F8
:100DC0000C94D4080F931F93CF9360913C047091BF
:100DD0003D048B0108501F4FD801CC9111968C9186
:100DE0008150990BC817190664F581E08C0F9FE1BB
:100DF00008C02C912150330B8F5F421753070CF022
:100E000080E0482F50E0FB01989FE00DF11D112478
:100E1000268137812130310561F78C1751F3D801D4
:100E20008C9342815381648175814F5F5F4F6F4F17
:100E30007F4F4283538364837583CF911F910F91BA
:100E4000089580E0D4CF80913C0490913D04FC0152
:100E5000E850FF4F208187509F4FFC018081FFCFDA
:100E600080913C0490913D04FC01E850FF4F2081AB
:100E700087509F4FDC018C918150990B28171906E0
:100E80001CF010828081089580818F5F8083808133
:100E900008951F920F920FB60F9211240BB60F9266
:100EA0002F933F934F938F939F93AF93BF93EF9362
:100EB000FF9320913C0430913D04D901A750BF4FCE
:100EC0008C91882379F080E04FE1F901489FE00D93
:100ED000F11D112412821382148215828F5F9C915E
:100EE000891798F3FF91EF91BF91AF919F918F91E7
:100EF0004F913F912F910F900BBE0F900FBE0F900F
:100F00001F901895EEE6F0E080818260808384B5C2
:100F1000826084BD85B5856085BD8CE987BD89E02B
:100F20009DE39093890080938800EFE6F0E0808154
:100F300082608083E1E8F0E080818D6080830895A5
:100F40002F923F924F925F926F927F928F929F92D9
:100F5000AF92BF92CF92DF92EF92FF920F931F93C7
:100F6000CF93DF93F0E0EEE52081EDE53081F72FC0
:100F7000E62F31932083F92FE82F51916081F0E023
:100F8000EEE56083EDE55083DF91CF911F910F91E6
:100F9000FF90EF90DF90CF90BF90AF909F908F9099
:100FA0007F906F905F904F903F902F900895CF93D8
:100FB000DF9380913C0490913D04FC01E850FF4F89
:100FC000D081CFE1CD9F800D911D112423E030E031
:100FD000FC01378326830E94E20620913C04309175
:100FE0003D04F901C89FE00DF11D112417821682FE
:100FF000B901DC9F600D711D1124685F7F4FCF0127
:1010000008960E94A007DF91CF910895CF93DF93B8
:1010100000D01F921F92CDB7DEB785E0E1EEF2E07F
:10102000DE01119601900D928A95E1F70E948207E8
:10103000789480913C0490913D04FC01128E118EB5
:10104000148E138E168E158E108220E932E1308FA9
:10105000278B25E0FE013196DC011A9601900D9256
:101060002A95E1F7FC01168A158A21E030E03783E2
:101070002683BC01685F7F4F87960E94A0070F9070
:101080000F900F900F900F90DF91CF9108951F92C6
:101090000F920FB60F9211240BB60F92EF92FF92A0
:1010A0000F931F932F933F934F935F936F937F9370
:1010B0008F939F93AF93BF93CF93DF93EF93FF9360
:1010C00080913C0490913D04FC01E850FF4FE0808A
:1010D000FC012FE1E29EE00DF11D11248681978134
:1010E000039721F081E090E0978386830E94E206D7
:1010F00000913C0410913D049FE1F92EF89EE0011F
:101100001124F801EC0FFD1F17821682209138047C
:10111000309139042F5F3F4F3093390420933804C6
:10112000F801E850FF4F8083B801EF9C600D711DFE
:101130001124685F7F4FCE010896800F911F0E9497
:10114000A007FF91EF91DF91CF91BF91AF919F9158
:101150008F917F916F915F914F913F912F911F914F
:101160000F91FF90EF900F900BBE0F900FBE0F905E
:101170001F9018958130910599F070F0823091059B
:1011800019F0039729F0089587E193E00C94C800C3
:1011900086EF92E00C94C80086E093E00C94C800BF
:1011A00086EE92E00C94C800DC01ED91FC9181E0A8
:1011B00090E091838083138A128A138212821582AF
:1011C000148217821682118610861386128615865F
:1011D000148617861686118A108A0895CF93DF9396
:1011E000F894DC01ED91FC9180819181181619062B
:1011F00034F4118210827894DF91CF910895809118
:101200003C0490913D04EC01C850DF4F2881A28935
:10121000B38930E01196AA0FBB1FAE0FBF1F119606
:101220003C932E93228933892F5F3F4F338B228B40
:101230002881BFE12B9F800D911D112423E030E018
:10124000FC01378326830E94D7077894DF91CF91E2
:101250000895615071091616170694F4FC01408137
:10126000518190E080E0FC01EE0FFF1FE40FF51FBD
:1012700024813581338322830196861797079CF357
:101280000895F894FC01A081B18181E090E011966D
:101290009C938E9352962D913C9153971216130660
:1012A00054F5E0913C04F0913D0412964D915C910F
:1012B00013976FE1649F9001659F300D1124E20F39
:1012C000F31F9783868390E080E0FC01EE0FFF1F01
:1012D000EA0FFB1F248135813383228301968730F7
:1012E000910599F752968D919C915397019753963A
:1012F0009C938E935297789408958AE394E00E9489
:10130000EE088AE394E00E944109F7CF0E947D092C
:101310000E947D098AE394E00E94EE0860E082E08A
:101320000E94DA0287E293E00E94C80080913C04A8
:1013300090913D0489960E94C80060E083E00E947D
:10134000DA0285E393E00E94C800E0913C04F0914A
:101350003D0485A196A10E94BA0860E085E00E9444
:10136000DA0287E293E00E94C80080913C049091E9
:101370003D04885B9F4F0E94C80060E086E00E94A9
:10138000DA0285E393E00E94C800E0913C04F0910A
:101390003D04EC5BFF4F808191810E94BA0863E2BB
:1013A00082E00E94DA0284E493E00E94C800E091A7
:1013B0003A04F0913B04828993890E94070163E219
:1013C00083E00E94DA02E0913A04F0913B048281CA
:1013D00093810E94070163E284E00E94DA02E091B7
:1013E0003A04F0913B04848195810E94070163E2F5
:1013F00085E00E94DA02E0913A04F0913B04868194
:1014000097810E94070163E286E00E94DA02E09180
:101410003A04F0913B04808591850E94070163E2C4
:1014200087E00E94DA02E0913A04F0913B04828561
:1014300093850E94070163E288E00E94DA02E0914E
:101440003A04F0913B04848595850E94070163E28C
:1014500089E00E94DA02E0913A04F0913B0486852B
:1014600097850E94070163E28AE00E94DA02E09118
:101470003A04F0913B04808991890E9407018AE334
:1014800094E00E94410946CF8AE394E00E94EE086E
:101490008AE394E00C94410908950895F894FC01BE
:1014A000208131812150310931832083789408953E
:1014B000F894FC01208131812F5F3F4F31832083DD
:1014C0007894089508950895CF93DF93D0E0C0E015
:1014D000CE01C531D1050CF4FBC09C012551310969
:1014E0002431310508F462C09C01295231092431AC
:1014F000310508F42FC19C012D53310924313105E8
:1015000008F4CFC181559109449708F431C2C5361A
:10151000D10509F062C260E082E00E94DA0289E44B
:1015200092E00E94C80060E083E00E94DA0289E451
:1015300092E00E94C80060E084E00E94DA0289E440
:1015400092E00E94C80060E085E00E94DA0289E42F
:1015500092E00E94C80060E086E00E94DA0289E41E
:1015600092E00E94C80060E087E00E94DA0289E40D
:1015700092E00E94C80060E088E00E94DA0289E4FC
:1015800092E00E94C80060E089E00E94DA0289E4EB
:1015900092E00E94C80086E690E0C6E6D0E09C019A
:1015A000255131092431310508F09ECF60E082E0F9
:1015B0000E94DA0281E492E00E94C80060E083E0C9
:1015C0000E94DA0286E30E943A0380E793E00E94D9
:1015D000C80060E084E00E94DA0286E30E943A03D9
:1015E00088E793E00E94C80087E30E943A038CE8F2
:1015F00093E00E94C80086E30E943A038CE793E0E0
:101600000E94C80060E085E00E94DA0289E793E06A
:101610000E94C80087E30E943A038CE693E00E9490
:10162000C80086E30E943A038CE793E00E94C8005A
:1016300060E086E00E94DA028AE793E00E94C80038
:1016400087E30E943A038AE693E00E94C80086E39B
:101650000E943A038AE793E00E94C80060E087E0B6
:101660000E94DA0289E793E00E94C80087E30E94A3
:101670003A038CE693E00E94C80086E30E943A0396
:101680008CE793E00E94C80060E088E00E94DA02E4
:1016900088E793E00E94C80087E30E943A038CE841
:1016A00093E00E94C80086E30E943A038CE793E02F
:1016B0000E94C80060E089E00E94DA0280E793E0BF
:1016C0000E94C8002196CE01C531D1050CF005CF8E
:1016D00060E082E00E94DA0282E492E00E94C800A8
:1016E00060E083E00E94DA028FE493E00E94C80089
:1016F00060E084E00E94DA0287E593E00E94C8007F
:1017000060E085E00E94DA028FE593E00E94C80065
:1017100060E086E00E94DA0288E693E00E94C8005A
:1017200060E087E00E94DA028FE593E00E94C80043
:1017300060E088E00E94DA0287E593E00E94C8003A
:1017400060E089E00E94DA028FE493E00E94C80022
:101750002196BECE60E082E00E94DA0280E893E04B
:101760000E94C80060E083E00E94DA028FE493E008
:101770000E94C80060E084E00E94DA028AE893E0F8
:101780000E94C80086E30E943A038AE793E00E9421
:10179000C80087E30E943A038BE593E00E94C800EB
:1017A00060E085E00E94DA028BE893E00E94C800C6
:1017B00086E30E943A038AE793E00E94C80087E329
:1017C0000E943A038CE893E00E94C80086E30E94DE
:1017D0003A038AE793E00E94C80087E30E943A0335
:1017E0008BE593E00E94C80060E086E00E94DA0288
:1017F0008CE893E00E94C80086E30E943A038AE7DF
:1018000093E00E94C80087E30E943A038CE693E0CD
:101810000E94C80086E30E943A038AE793E00E9490
:10182000C80087E30E943A038CE893E00E94C80056
:1018300060E087E00E94DA028BE893E00E94C80033
:1018400086E30E943A038AE793E00E94C80087E398
:101850000E943A038CE893E00E94C80086E30E944D
:101860003A038AE793E00E94C80087E30E943A03A4
:101870008BE593E00E94C80060E088E00E94DA02F5
:101880008AE893E00E94C80086E30E943A038AE750
:1018900093E00E94C80087E30E943A038BE593E03F
:1018A0004DCF60E082E00E94DA0282E492E00E9482
:1018B000C80060E083E00E94DA028FE493E00E94B7
:1018C000C80060E084E00E94DA0287E593E00E94AD
:1018D000C80060E085E00E94DA028EE893E00E9492
:1018E000C80086E30E943A038AE793E00E94C8009A
:1018F00087E30E943A038AE593E00E94C80060E013
:1019000086E00E94DA028FE893E00E94C80086E336
:101910000E943A038AE793E00E94C80087E30E948E
:101920003A038CE893E00E94C80086E30E943A03E1
:101930008AE793E00E94C80087E30E943A038FE899
:1019400093E00E94C80060E087E00E94DA028EE81F
:1019500093E00E94C80086E30E943A038AE793E07E
:101960000E94C80087E30E943A038AE593E0DECE36
:1019700060E082E00E94DA0280E893E00E94C80002
:1019800060E083E00E94DA028FE493E00E94C800E6
:1019900060E084E00E94DA0287E593E00E94C800DC
:1019A00060E085E00E94DA028FE593E00E94C800C3
:1019B00060E086E00E94DA028CE693E00E94C800B4
:1019C00086E30E943A038AE793E00E94C80087E317
:1019D0000E943A038CE693E0A1CEDF91CF91089567
:1019E0008AE394E00E94EE080E94640A8AE394E08D
:1019F0000E944109F5CFCF93DF93D0E0C0E087E3A9
:101A00000E943A03CE01C531D1050CF4BBC09C0144
:101A1000255131092431310508F45DC09C0129525A
:101A200031092431310508F4D4C09C012D5331090A
:101A30002431310508F434C181559109449708F4E3
:101A4000D6C1C536D10509F060C264E18AE10E94C1
:101A5000DA0289E492E00E94C80064E18BE10E940E
:101A6000DA0289E492E00E94C80064E18CE10E94FD
:101A7000DA0289E492E00E94C80064E18DE10E94EC
:101A8000DA0289E492E00E94C80064E18EE10E94DB
:101A9000DA0289E492E00E94C80064E18FE10E94CA
:101AA000DA0289E492E00E94C80064E180E20E94C8
:101AB000DA0289E492E00E94C80087E30E943A03B8
:101AC00086E690E0C6E6D0E09C012551310924313C
:101AD000310508F0A3CF64E18AE10E94DA0282E9CD
:101AE00093E00E94C80064E18BE10E94DA028FE477
:101AF00093E00E94C80064E18CE10E94DA0287E56D
:101B000093E00E94C80064E18DE10E94DA028FE553
:101B100093E00E94C80064E18EE10E94DA028CE644
:101B200093E00E94C80086E30E943A038AE793E0AC
:101B30000E94C80087E30E943A038CE693E00E946B
:101B4000C80064E18FE10E94DA028FE593E00E9411
:101B5000C80064E180E20E94DA0287E593E00E9417
:101B6000C80064E181E20E94DA028FE493E00E94FF
:101B7000C800219687E30E943A03CE01C531D10502
:101B80000CF045CF64E18AE10E94DA0282E492E03F
:101B90000E94C80064E18BE10E94DA028FE493E0C6
:101BA0000E94C80064E18CE10E94DA0287E593E0BC
:101BB0000E94C80064E18DE10E94DA028FE593E0A3
:101BC0000E94C80064E18EE10E94DA0288E693E098
:101BD000B6CF64E18AE10E94DA0282E492E00E94D8
:101BE000C80064E18BE10E94DA028FE493E00E9476
:101BF000C80064E18CE10E94DA0287E593E00E946C
:101C0000C80064E18DE10E94DA028EE893E00E9450
:101C1000C80086E30E943A038AE793E00E94C80066
:101C200087E30E943A038AE593E00E94C80064E1DA
:101C30008EE10E94DA028FE893E00E94C80086E3FA
:101C40000E943A038AE793E00E94C80087E30E945B
:101C50003A038CE893E00E94C80086E30E943A03AE
:101C60008AE793E00E94C80087E30E943A038FE866
:101C700093E00E94C80064E18FE10E94DA028EE8DE
:101C800093E00E94C80086E30E943A038AE793E04B
:101C90000E94C80087E30E943A038AE593E057CF89
:101CA00064E18AE10E94DA0282E993E00E94C800BE
:101CB00064E18BE10E94DA028FE493E00E94C800A5
:101CC00064E18CE10E94DA028AE893E00E94C80095
:101CD00086E30E943A038AE793E00E94C80087E304
:101CE0000E943A038BE593E00E94C80064E18DE115
:101CF0000E94DA028BE893E00E94C80086E30E940B
:101D00003A038AE793E00E94C80087E30E943A03FF
:101D10008CE893E00E94C80086E30E943A038AE7B9
:101D200093E00E94C80087E30E943A038BE593E0AA
:101D30000E94C80064E18EE10E94DA028CE893E020
:101D40000E94C80086E30E943A038AE793E00E945B
:101D5000C80087E30E943A038CE693E00E94C80023
:101D600086E30E943A038AE793E00E94C80087E373
:101D70000E943A038CE893E00E94C80064E18FE17E
:101D80000E94DA028BE893E00E94C80086E30E947A
:101D90003A038AE793E00E94C80087E30E943A036F
:101DA0008CE893E00E94C80086E30E943A038AE729
:101DB00093E00E94C80087E30E943A038BE593E01A
:101DC0000E94C80064E180E20E94DA028AE893E09F
:101DD0000E94C80086E30E943A038AE793E00E94CB
:101DE000C80087E30E943A038BE593E0B8CE64E134
:101DF0008AE10E94DA0281E492E00E94C80064E174
:101E00008BE10E94DA0286E30E943A0380E793E0C6
:101E10000E94C80064E18CE10E94DA0286E30E941D
:101E20003A0388E793E00E94C80087E30E943A03E0
:101E30008CE893E00E94C80086E30E943A038CE796
:101E400093E00E94C80064E18DE10E94DA0289E714
:101E500093E00E94C80087E30E943A038CE693E077
:101E60000E94C80086E30E943A038CE793E00E9438
:101E7000C80064E18EE10E94DA028AE793E00E94E2
:101E8000C80087E30E943A038AE693E00E94C800F4
:101E900086E30E943A038AE793E00E94C80064E167
:101EA0008FE10E94DA0289E793E00E94C80087E38D
:101EB0000E943A038CE693E00E94C80086E30E94E9
:101EC0003A038CE793E00E94C80064E180E20E943C
:101ED000DA0288E793E00E94C80087E30E943A0391
:101EE0008CE893E00E94C80086E30E943A038CE7E6
:101EF00093E00E94C80064E181E20E94DA0280E778
:101F000093E00E94C80021967ACDDF91CF91089589
:101F10000E94FB0C0E94FB0C0E94FB0C0E94FB0C1D
:101F20000C94FB0CEF92FF920F931F93CF93DF93D0
:101F300068E281E00E94DA0290E080E0FC01EE0FAE
:101F4000FF1FE05CFB4F1182108201968A309105E1
:101F5000A9F7D0E0C0E0EE24E394F12CE3C084E0E4
:101F60000E94DA028AEC93E00E94C80068E285E0F1
:101F70000E94DA028CE993E00E94C800809142043A
:101F80009091430468E2892B09F041C186E00E94E8
:101F9000DA028AEC93E00E94C80068E287E00E94BF
:101FA000DA028CE993E00E94C80080914404909189
:101FB000450468E2892B09F022C188E00E94DA0218
:101FC0008AEC93E00E94C80068E289E00E94DA028D
:101FD0008CE993E00E94C8008091460490914704E8
:101FE00068E2892B09F003C18AE00E94DA028AECD8
:101FF00093E00E94C80068E28BE00E94DA028CE95C
:1020000093E00E94C800809148049091490468E2DE
:10201000892B09F0E4C08CE00E94DA028AEC93E09C
:102020000E94C80068E28DE00E94DA028CE993E029
:102030000E94C80080914A0490914B0468E2892B69
:1020400009F0C5C08EE00E94DA028AEC93E00E949B
:10205000C80068E28FE00E94DA028CE993E00E94F7
:10206000C80080914C0490914D0468E2892B09F0DE
:10207000A6C080E10E94DA028AEC93E00E94C800C8
:1020800068E281E10E94DA028CE993E00E94C800D4
:1020900080914E0490914F0468E2892B09F087C02B
:1020A00082E10E94DA028AEC93E00E94C80068E2B2
:1020B00083E10E94DA028CE993E00E94C8008091DB
:1020C00050049091510468E2892B09F068C084E1C2
:1020D0000E94DA028AEC93E00E94C80068E285E17F
:1020E0000E94DA028CE993E00E94C80080915204B9
:1020F0009091530468E2892B09F049C086E10E945F
:10210000DA028AEC93E00E94C80068E287E10E944C
:10211000DA028CE993E00E94C800E8010A30110558
:1021200009F47DC068E281E00E94DA028E010F5F4F
:102130001F4FCC0FDD1FC05CDB4FF982E88268E2E5
:1021400081E00E94DA028CE993E00E94C80068E214
:1021500082E00E94DA0283EB93E00E94C80068E20A
:1021600083E00E94DA028CE993E00E94C80080912B
:1021700040049091410468E2892B09F4F0CE84E098
:102180000E94DA0281EE93E00E94C800EFCE86E161
:102190000E94DA0281EE93E00E94C800B6CF84E18B
:1021A0000E94DA0281EE93E00E94C80097CF82E19C
:1021B0000E94DA0281EE93E00E94C80078CF80E1AD
:1021C0000E94DA0281EE93E00E94C80059CF8EE0AF
:1021D0000E94DA0281EE93E00E94C8003ACF8CE0C0
:1021E0000E94DA0281EE93E00E94C8001BCF8AE0D1
:1021F0000E94DA0281EE93E00E94C800FCCE88E0E3
:102200000E94DA0281EE93E00E94C800DDCE86E0F3
:102210000E94DA0281EE93E00E94C800BECEDF91F8
:10222000CF911F910F91FF90EF9008950E94DA03D4
:102230000E94640A0E94DA030E94FB0C0E94DA03E7
:102240000E94920FF3CF8AE394E00E94EE088091FF
:102250003804909139040A970CF45FC160E080E083
:102260000E94DA0283E30E943A038CE292E00E9429
:10227000C800809138049091390464E670E00E94AF
:10228000CB12072E000C880B990B0E945F0184E390
:1022900092E00E94C80060E082E00E94DA0282E5DB
:1022A00092E00E94C800E0913C04F0913D04E750A8
:1022B000FF4F808190E00E940701E0913C04F09183
:1022C0003D04E750FF4F8081882309F421C13AE0A3
:1022D000C32ED12CB12CF12CE12C00C1C70163E03D
:1022E00070E00E94CB1291E2899FC02D1124F8E189
:1022F000AF2EA7E19A2EB6E18B2ED5E17D2E14E10B
:10230000612E03E1502E82E1482E91E1392E20E129
:10231000222EDFE082E30E943A036C2F8D2F0E9471
:10232000DA0286E692E00E94C800E0913C04F09157
:102330003D04DFE1DE9D8001DF9D100D1124E00FE3
:10234000F11F808190E00E9407016C2F822D0E9476
:10235000DA0282E792E00E94C80080913C049091EA
:102360003D048C0D9D1D0E94C8006C2F832D0E9482
:10237000DA0280E892E00E94C800E0913C04F0910B
:102380003D04E00FF11F8789908D0E949E016C2F04
:10239000842D0E94DA028CE892E00E94C800E0914D
:1023A0003C04F0913D04E00FF11F838D948D208556
:1023B0003185821B930B0E9407018AE992E00E94FB
:1023C000C8006C2F852D0E94DA0284EA92E00E94F8
:1023D000C800E0913C04F0913D04E00FF11F8589B5
:1023E00096890E9407018AE992E00E94C8006C2F3A
:1023F000862D0E94DA0281EB92E00E94C800E091F3
:102400003C04F0913D04E00FF11F808591850E940E
:102410009E016C2F872D0E94DA0288EC92E00E94C8
:10242000C800E0913C04F0913D04E00FF11F818D64
:10243000928D0E949E016C2F882D0E94DA0285EDFC
:1024400092E00E94C800E0913C04F0913D04E00F4E
:10245000F11F838D948D0E949E016C2F892D0E9407
:10246000DA0288EF93E00E94C80080913C049091CA
:102470003D04FC01E850FF4F2081D29F800D911D4B
:102480001124FC0182819381A481B5810E940701FE
:102490006C2F8A2D0E94DA0287E094E00E94C80027
:1024A00080913C0490913D04080F191FF80186812A
:1024B00097810E94BA08FFEFEF1AFF0AE0913C04EF
:1024C000F0913D04E750FF4F808191E2B90EEFE1BA
:1024D000CE0ED11C8E151F04D9F0D4F083E0E8167F
:1024E000F1040CF0FBCECB2D8DE0A82E9CE0992EB4
:1024F0002BE0822E3AE0732E49E0642E58E0552EF0
:1025000067E0462E76E0372EE5E02E2ED4E002CFAF
:102510008AE394E00E94410996CE0E94DA039ECE9F
:10252000CF93DF9300D000D0CDB7DEB7109239043F
:102530001092380484E190E09E838D8381E090E0E6
:102540009C838B839A8389830E94BE0628EC30E0AB
:10255000AE014B5F5F4F66E973E086E092E00E9458
:10256000F60528EC30E0AE014D5F5F4F63E271E1AC
:102570008CE092E00E94F60528EC30E0AE014F5F5F
:102580005F4F68E87FE082E192E00E94F6050E94DA
:1025900006087894FFCF97FB072E16F4009407D017
:1025A00077FD09D00E94DF1207FC05D03EF490951C
:1025B00081959F4F0895709561957F4F0895AA1B4F
:1025C000BB1B51E107C0AA1FBB1FA617B70710F01E
:1025D000A61BB70B881F991F5A95A9F78095909550
:1025E000BC01CD0108950F931F93CF93DF938230E9
:1025F000910510F482E090E0E0915604F0915704C8
:1026000030E020E0B0E0A0E0309799F421153105EA
:1026100009F44AC0281B390B24303105D8F58A81CA
:102620009B816115710589F1FB0193838283FE0112
:1026300011C0408151810281138148175907E0F090
:102640004817590799F4109761F012960C93129756
:1026500013961C933296CF01DF91CF911F910F916A
:1026600008950093560410935704F4CF21153105B3
:1026700051F04217530738F0A901DB019A01BD015F
:10268000DF01F801C1CFEF01F9CF90935704809398
:102690005604CDCFFE01E20FF31F81939193225098
:1026A000310939832883D7CF2091540430915504C0
:1026B000232B41F420910202309103023093550400
:1026C000209354042091000230910102211531051C
:1026D00041F42DB73EB74091040250910502241BEE
:1026E000350BE0915404F0915504E217F307A0F480
:1026F0002E1B3F0B2817390778F0AC014E5F5F4F58
:102700002417350748F04E0F5F1F50935504409330
:102710005404819391939FCFF0E0E0E09CCFCF935E
:10272000DF930097E9F0FC01329713821282A091A7
:102730005604B0915704ED0130E020E01097A1F469
:1027400020813181820F931F2091540430915504D0
:102750002817390709F061C0F0935504E093540439
:10276000DF91CF910895EA01CE17DF07E8F54A819E
:102770005B819E0141155105B1F7E901FB83EA83B5
:1027800049915991C40FD51FEC17FD0761F4808161
:1027900091810296840F951FE90199838883828134
:1027A00093819B838A83F0E0E0E012968D919C9167
:1027B00013970097B9F52D913C911197CD01029691
:1027C000820F931F20915404309155042817390724
:1027D00039F6309751F51092570410925604B09381
:1027E0005504A0935404BCCFD383C283408151814C
:1027F000840F951FC817D90761F44E5F5F4F88811A
:102800009981480F591F518340838A819B8193830B
:1028100082832115310509F0B0CFF0935704E0937E
:1028200056049ECFFD01DC01C0CF13821282D7CFA8
:10283000FB01DC0102C001900D9241505040D8F7DD
:062840000895F894FFCF9B
:10284600000058042000626C696E6B00737461743A
:10285600730070726F6475636572003031323334A1
:1028660035363738394142434445460054696D652B
:10287600723A200020202020202020202020202006
:102886002020202020202020202020202020202042
:1028960020004E756D626572206F66205468726501
:1028A6006164733A20005468726561642049643A31
:1028B6002000546872656164206E616D653A20007F
:1028C6005468726561642050433A20005374616312
:1028D6006B2055736167653A2000206279746573D1
:1028E60020202000537461636B2053697A653A2077
:1028F6000043757272656E7420746F70206F662067
:10290600737461636B3A2000537461636B20626178
:1029160073653A2000537461636B20656E643A20D8
:10292600006D61696E005448524541445F5245410D
:102936004459202020005448524541445F5741499C
:1029460054494E4720005448524541445F52554E23
:102956004E494E472020005448524541445F534C4F
:10296600454550494E4700746872656164206E6142
:102976006D653A20007468726561642073746174D1
:10298600653A200077616974696E67203D200020F2
:102996002020232020200020202323232020002065
:1029A600232323232320200023232323232323003D
:1029B6002020203020202000202030003020200041
:1029C600434F4E53554D494E4700202023002023A8
:1029D600230050524F445543494E47002B2D2D2D71
:1029E6002D2D2D2D2D2D2D2D2D2D2D2D2D2D2D2D11
:1029F6002D2B007C20426F756E64656420427566DF
:102A060066657220202020207C007C20202020204B
:102A16002020202020202020202020202020207C54
:102A2600007C23232323232323232323232323233A
:102A36002323232323237C0053636865642E2043CA
:102A46006F756E743A200054687265616420537421
:082A5600617475733A20000061
:00000001FF
